{
	"contract/DltToken.sol": {
		"DltToken": {
			"abi": [
				{
					"inputs": [
						{
							"internalType": "string",
							"name": "_name",
							"type": "string"
						},
						{
							"internalType": "string",
							"name": "_symbol",
							"type": "string"
						}
					],
					"stateMutability": "nonpayable",
					"type": "constructor"
				},
				{
					"anonymous": false,
					"inputs": [
						{
							"indexed": true,
							"internalType": "address",
							"name": "owner",
							"type": "address"
						},
						{
							"indexed": true,
							"internalType": "address",
							"name": "spender",
							"type": "address"
						},
						{
							"indexed": false,
							"internalType": "uint256",
							"name": "amount",
							"type": "uint256"
						}
					],
					"name": "Approval",
					"type": "event"
				},
				{
					"anonymous": false,
					"inputs": [
						{
							"indexed": true,
							"internalType": "address",
							"name": "sender",
							"type": "address"
						},
						{
							"indexed": true,
							"internalType": "address",
							"name": "reciever",
							"type": "address"
						},
						{
							"indexed": false,
							"internalType": "uint256",
							"name": "amount",
							"type": "uint256"
						}
					],
					"name": "Transfer",
					"type": "event"
				},
				{
					"inputs": [
						{
							"internalType": "address",
							"name": "_owner",
							"type": "address"
						},
						{
							"internalType": "address",
							"name": "_delegate",
							"type": "address"
						}
					],
					"name": "allowance",
					"outputs": [
						{
							"internalType": "uint256",
							"name": "",
							"type": "uint256"
						}
					],
					"stateMutability": "view",
					"type": "function"
				},
				{
					"inputs": [
						{
							"internalType": "address",
							"name": "_delegate",
							"type": "address"
						},
						{
							"internalType": "uint256",
							"name": "_amountOfToken",
							"type": "uint256"
						}
					],
					"name": "approve",
					"outputs": [],
					"stateMutability": "nonpayable",
					"type": "function"
				},
				{
					"inputs": [
						{
							"internalType": "address",
							"name": "_address",
							"type": "address"
						}
					],
					"name": "balanceOf",
					"outputs": [
						{
							"internalType": "uint256",
							"name": "",
							"type": "uint256"
						}
					],
					"stateMutability": "view",
					"type": "function"
				},
				{
					"inputs": [],
					"name": "decimal",
					"outputs": [
						{
							"internalType": "uint8",
							"name": "",
							"type": "uint8"
						}
					],
					"stateMutability": "pure",
					"type": "function"
				},
				{
					"inputs": [],
					"name": "getSymbol",
					"outputs": [
						{
							"internalType": "string",
							"name": "",
							"type": "string"
						}
					],
					"stateMutability": "view",
					"type": "function"
				},
				{
					"inputs": [],
					"name": "getTokenName",
					"outputs": [
						{
							"internalType": "string",
							"name": "",
							"type": "string"
						}
					],
					"stateMutability": "view",
					"type": "function"
				},
				{
					"inputs": [],
					"name": "getTotalSupply",
					"outputs": [
						{
							"internalType": "uint256",
							"name": "",
							"type": "uint256"
						}
					],
					"stateMutability": "view",
					"type": "function"
				},
				{
					"inputs": [
						{
							"internalType": "address",
							"name": "_reciever",
							"type": "address"
						},
						{
							"internalType": "uint256",
							"name": "_amountOfToken",
							"type": "uint256"
						}
					],
					"name": "transfer",
					"outputs": [],
					"stateMutability": "nonpayable",
					"type": "function"
				},
				{
					"inputs": [
						{
							"internalType": "address",
							"name": "_owner",
							"type": "address"
						},
						{
							"internalType": "address",
							"name": "_buyer",
							"type": "address"
						},
						{
							"internalType": "uint256",
							"name": "_amountOfToken",
							"type": "uint256"
						}
					],
					"name": "transferFrom",
					"outputs": [],
					"stateMutability": "nonpayable",
					"type": "function"
				}
			],
			"devdoc": {
				"kind": "dev",
				"methods": {},
				"version": 1
			},
			"evm": {
				"assembly": "    /* \"contract/DltToken.sol\":61:4042  contract DltToken{... */\n  mstore(0x40, 0x80)\n    /* \"contract/DltToken.sol\":477:685  constructor(string memory _name, string memory _symbol){... */\n  callvalue\n  dup1\n  iszero\n  tag_1\n  jumpi\n  revert(0x00, 0x00)\ntag_1:\n  pop\n  mload(0x40)\n  sub(codesize, bytecodeSize)\n  dup1\n  bytecodeSize\n  dup4\n  codecopy\n  dup2\n  dup2\n  add\n  0x40\n  mstore\n  dup2\n  add\n  swap1\n  tag_2\n  swap2\n  swap1\n  tag_3\n  jump\t// in\ntag_2:\n    /* \"contract/DltToken.sol\":555:560  _name */\n  dup2\n    /* \"contract/DltToken.sol\":543:552  tokenName */\n  0x00\n    /* \"contract/DltToken.sol\":543:560  tokenName = _name */\n  swap1\n  dup2\n  tag_6\n  swap2\n  swap1\n  tag_7\n  jump\t// in\ntag_6:\n  pop\n    /* \"contract/DltToken.sol\":585:592  _symbol */\n  dup1\n    /* \"contract/DltToken.sol\":571:582  tokenSymbol */\n  0x01\n    /* \"contract/DltToken.sol\":571:592  tokenSymbol = _symbol */\n  swap1\n  dup2\n  tag_8\n  swap2\n  swap1\n  tag_7\n  jump\t// in\ntag_8:\n  pop\n    /* \"contract/DltToken.sol\":611:621  msg.sender */\n  caller\n    /* \"contract/DltToken.sol\":603:608  owner */\n  0x03\n  0x00\n    /* \"contract/DltToken.sol\":603:621  owner = msg.sender */\n  0x0100\n  exp\n  dup2\n  sload\n  dup2\n  0xffffffffffffffffffffffffffffffffffffffff\n  mul\n  not\n  and\n  swap1\n  dup4\n  0xffffffffffffffffffffffffffffffffffffffff\n  and\n  mul\n  or\n  swap1\n  sstore\n  pop\n    /* \"contract/DltToken.sol\":655:677  mint(1_000_000, owner) */\n  tag_9\n    /* \"contract/DltToken.sol\":660:669  1_000_000 */\n  0x0f4240\n    /* \"contract/DltToken.sol\":671:676  owner */\n  0x03\n  0x00\n  swap1\n  sload\n  swap1\n  0x0100\n  exp\n  swap1\n  div\n  0xffffffffffffffffffffffffffffffffffffffff\n  and\n    /* \"contract/DltToken.sol\":655:659  mint */\n  shl(0x20, tag_10)\n    /* \"contract/DltToken.sol\":655:677  mint(1_000_000, owner) */\n  0x20\n  shr\n  jump\t// in\ntag_9:\n    /* \"contract/DltToken.sol\":477:685  constructor(string memory _name, string memory _symbol){... */\n  pop\n  pop\n    /* \"contract/DltToken.sol\":61:4042  contract DltToken{... */\n  jump(tag_11)\n    /* \"contract/DltToken.sol\":3753:4039  function mint(uint256 _amount, address _addr) internal {... */\ntag_10:\n    /* \"contract/DltToken.sol\":3819:3839  uint256 actualSupply */\n  0x00\n    /* \"contract/DltToken.sol\":3853:3859  10**18 */\n  0x0de0b6b3a7640000\n    /* \"contract/DltToken.sol\":3842:3849  _amount */\n  dup4\n    /* \"contract/DltToken.sol\":3842:3860  _amount * (10**18) */\n  tag_13\n  swap2\n  swap1\n  tag_14\n  jump\t// in\ntag_13:\n    /* \"contract/DltToken.sol\":3819:3860  uint256 actualSupply = _amount * (10**18) */\n  swap1\n  pop\n    /* \"contract/DltToken.sol\":3907:3919  actualSupply */\n  dup1\n    /* \"contract/DltToken.sol\":3889:3897  balances */\n  0x04\n    /* \"contract/DltToken.sol\":3889:3904  balances[_addr] */\n  0x00\n    /* \"contract/DltToken.sol\":3898:3903  _addr */\n  dup5\n    /* \"contract/DltToken.sol\":3889:3904  balances[_addr] */\n  0xffffffffffffffffffffffffffffffffffffffff\n  and\n  0xffffffffffffffffffffffffffffffffffffffff\n  and\n  dup2\n  mstore\n  0x20\n  add\n  swap1\n  dup2\n  mstore\n  0x20\n  add\n  0x00\n  keccak256\n  sload\n    /* \"contract/DltToken.sol\":3889:3919  balances[_addr] + actualSupply */\n  tag_15\n  swap2\n  swap1\n  tag_16\n  jump\t// in\ntag_15:\n    /* \"contract/DltToken.sol\":3871:3879  balances */\n  0x04\n    /* \"contract/DltToken.sol\":3871:3886  balances[_addr] */\n  0x00\n    /* \"contract/DltToken.sol\":3880:3885  _addr */\n  dup5\n    /* \"contract/DltToken.sol\":3871:3886  balances[_addr] */\n  0xffffffffffffffffffffffffffffffffffffffff\n  and\n  0xffffffffffffffffffffffffffffffffffffffff\n  and\n  dup2\n  mstore\n  0x20\n  add\n  swap1\n  dup2\n  mstore\n  0x20\n  add\n  0x00\n  keccak256\n    /* \"contract/DltToken.sol\":3871:3919  balances[_addr] = balances[_addr] + actualSupply */\n  dup2\n  swap1\n  sstore\n  pop\n    /* \"contract/DltToken.sol\":3960:3972  actualSupply */\n  dup1\n    /* \"contract/DltToken.sol\":3946:3957  totalSupply */\n  sload(0x02)\n    /* \"contract/DltToken.sol\":3946:3972  totalSupply + actualSupply */\n  tag_17\n  swap2\n  swap1\n  tag_16\n  jump\t// in\ntag_17:\n    /* \"contract/DltToken.sol\":3932:3943  totalSupply */\n  0x02\n    /* \"contract/DltToken.sol\":3932:3972  totalSupply = totalSupply + actualSupply */\n  dup2\n  swap1\n  sstore\n  pop\n    /* \"contract/DltToken.sol\":4011:4016  _addr */\n  dup2\n    /* \"contract/DltToken.sol\":3990:4031  Transfer(address(0), _addr, actualSupply) */\n  0xffffffffffffffffffffffffffffffffffffffff\n  and\n    /* \"contract/DltToken.sol\":4007:4008  0 */\n  0x00\n    /* \"contract/DltToken.sol\":3990:4031  Transfer(address(0), _addr, actualSupply) */\n  0xffffffffffffffffffffffffffffffffffffffff\n  and\n  0xddf252ad1be2c89b69c2b068fc378daa952ba7f163c4a11628f55a4df523b3ef\n    /* \"contract/DltToken.sol\":4018:4030  actualSupply */\n  dup4\n    /* \"contract/DltToken.sol\":3990:4031  Transfer(address(0), _addr, actualSupply) */\n  mload(0x40)\n  tag_18\n  swap2\n  swap1\n  tag_19\n  jump\t// in\ntag_18:\n  mload(0x40)\n  dup1\n  swap2\n  sub\n  swap1\n  log3\n    /* \"contract/DltToken.sol\":3808:4039  {... */\n  pop\n    /* \"contract/DltToken.sol\":3753:4039  function mint(uint256 _amount, address _addr) internal {... */\n  pop\n  pop\n  jump\t// out\n    /* \"#utility.yul\":7:82   */\ntag_20:\n    /* \"#utility.yul\":40:46   */\n  0x00\n    /* \"#utility.yul\":73:75   */\n  0x40\n    /* \"#utility.yul\":67:76   */\n  mload\n    /* \"#utility.yul\":57:76   */\n  swap1\n  pop\n    /* \"#utility.yul\":7:82   */\n  swap1\n  jump\t// out\n    /* \"#utility.yul\":88:205   */\ntag_21:\n    /* \"#utility.yul\":197:198   */\n  0x00\n    /* \"#utility.yul\":194:195   */\n  0x00\n    /* \"#utility.yul\":187:199   */\n  revert\n    /* \"#utility.yul\":211:328   */\ntag_22:\n    /* \"#utility.yul\":320:321   */\n  0x00\n    /* \"#utility.yul\":317:318   */\n  0x00\n    /* \"#utility.yul\":310:322   */\n  revert\n    /* \"#utility.yul\":334:451   */\ntag_23:\n    /* \"#utility.yul\":443:444   */\n  0x00\n    /* \"#utility.yul\":440:441   */\n  0x00\n    /* \"#utility.yul\":433:445   */\n  revert\n    /* \"#utility.yul\":457:574   */\ntag_24:\n    /* \"#utility.yul\":566:567   */\n  0x00\n    /* \"#utility.yul\":563:564   */\n  0x00\n    /* \"#utility.yul\":556:568   */\n  revert\n    /* \"#utility.yul\":580:682   */\ntag_25:\n    /* \"#utility.yul\":621:627   */\n  0x00\n    /* \"#utility.yul\":672:674   */\n  0x1f\n    /* \"#utility.yul\":668:675   */\n  not\n    /* \"#utility.yul\":663:665   */\n  0x1f\n    /* \"#utility.yul\":656:661   */\n  dup4\n    /* \"#utility.yul\":652:666   */\n  add\n    /* \"#utility.yul\":648:676   */\n  and\n    /* \"#utility.yul\":638:676   */\n  swap1\n  pop\n    /* \"#utility.yul\":580:682   */\n  swap2\n  swap1\n  pop\n  jump\t// out\n    /* \"#utility.yul\":688:868   */\ntag_26:\n    /* \"#utility.yul\":736:813   */\n  0x4e487b7100000000000000000000000000000000000000000000000000000000\n    /* \"#utility.yul\":733:734   */\n  0x00\n    /* \"#utility.yul\":726:814   */\n  mstore\n    /* \"#utility.yul\":833:837   */\n  0x41\n    /* \"#utility.yul\":830:831   */\n  0x04\n    /* \"#utility.yul\":823:838   */\n  mstore\n    /* \"#utility.yul\":857:861   */\n  0x24\n    /* \"#utility.yul\":854:855   */\n  0x00\n    /* \"#utility.yul\":847:862   */\n  revert\n    /* \"#utility.yul\":874:1155   */\ntag_27:\n    /* \"#utility.yul\":957:984   */\n  tag_63\n    /* \"#utility.yul\":979:983   */\n  dup3\n    /* \"#utility.yul\":957:984   */\n  tag_25\n  jump\t// in\ntag_63:\n    /* \"#utility.yul\":949:955   */\n  dup2\n    /* \"#utility.yul\":945:985   */\n  add\n    /* \"#utility.yul\":1087:1093   */\n  dup2\n    /* \"#utility.yul\":1075:1085   */\n  dup2\n    /* \"#utility.yul\":1072:1094   */\n  lt\n    /* \"#utility.yul\":1051:1069   */\n  0xffffffffffffffff\n    /* \"#utility.yul\":1039:1049   */\n  dup3\n    /* \"#utility.yul\":1036:1070   */\n  gt\n    /* \"#utility.yul\":1033:1095   */\n  or\n    /* \"#utility.yul\":1030:1118   */\n  iszero\n  tag_64\n  jumpi\n    /* \"#utility.yul\":1098:1116   */\n  tag_65\n  tag_26\n  jump\t// in\ntag_65:\n    /* \"#utility.yul\":1030:1118   */\ntag_64:\n    /* \"#utility.yul\":1138:1148   */\n  dup1\n    /* \"#utility.yul\":1134:1136   */\n  0x40\n    /* \"#utility.yul\":1127:1149   */\n  mstore\n    /* \"#utility.yul\":917:1155   */\n  pop\n    /* \"#utility.yul\":874:1155   */\n  pop\n  pop\n  jump\t// out\n    /* \"#utility.yul\":1161:1290   */\ntag_28:\n    /* \"#utility.yul\":1195:1201   */\n  0x00\n    /* \"#utility.yul\":1222:1242   */\n  tag_67\n  tag_20\n  jump\t// in\ntag_67:\n    /* \"#utility.yul\":1212:1242   */\n  swap1\n  pop\n    /* \"#utility.yul\":1251:1284   */\n  tag_68\n    /* \"#utility.yul\":1279:1283   */\n  dup3\n    /* \"#utility.yul\":1271:1277   */\n  dup3\n    /* \"#utility.yul\":1251:1284   */\n  tag_27\n  jump\t// in\ntag_68:\n    /* \"#utility.yul\":1161:1290   */\n  swap2\n  swap1\n  pop\n  jump\t// out\n    /* \"#utility.yul\":1296:1604   */\ntag_29:\n    /* \"#utility.yul\":1358:1362   */\n  0x00\n    /* \"#utility.yul\":1448:1466   */\n  0xffffffffffffffff\n    /* \"#utility.yul\":1440:1446   */\n  dup3\n    /* \"#utility.yul\":1437:1467   */\n  gt\n    /* \"#utility.yul\":1434:1490   */\n  iszero\n  tag_70\n  jumpi\n    /* \"#utility.yul\":1470:1488   */\n  tag_71\n  tag_26\n  jump\t// in\ntag_71:\n    /* \"#utility.yul\":1434:1490   */\ntag_70:\n    /* \"#utility.yul\":1508:1537   */\n  tag_72\n    /* \"#utility.yul\":1530:1536   */\n  dup3\n    /* \"#utility.yul\":1508:1537   */\n  tag_25\n  jump\t// in\ntag_72:\n    /* \"#utility.yul\":1500:1537   */\n  swap1\n  pop\n    /* \"#utility.yul\":1592:1596   */\n  0x20\n    /* \"#utility.yul\":1586:1590   */\n  dup2\n    /* \"#utility.yul\":1582:1597   */\n  add\n    /* \"#utility.yul\":1574:1597   */\n  swap1\n  pop\n    /* \"#utility.yul\":1296:1604   */\n  swap2\n  swap1\n  pop\n  jump\t// out\n    /* \"#utility.yul\":1610:1749   */\ntag_30:\n    /* \"#utility.yul\":1699:1705   */\n  dup3\n    /* \"#utility.yul\":1694:1697   */\n  dup2\n    /* \"#utility.yul\":1689:1692   */\n  dup4\n    /* \"#utility.yul\":1683:1706   */\n  mcopy\n    /* \"#utility.yul\":1740:1741   */\n  0x00\n    /* \"#utility.yul\":1731:1737   */\n  dup4\n    /* \"#utility.yul\":1726:1729   */\n  dup4\n    /* \"#utility.yul\":1722:1738   */\n  add\n    /* \"#utility.yul\":1715:1742   */\n  mstore\n    /* \"#utility.yul\":1610:1749   */\n  pop\n  pop\n  pop\n  jump\t// out\n    /* \"#utility.yul\":1755:2189   */\ntag_31:\n    /* \"#utility.yul\":1844:1849   */\n  0x00\n    /* \"#utility.yul\":1869:1935   */\n  tag_75\n    /* \"#utility.yul\":1885:1934   */\n  tag_76\n    /* \"#utility.yul\":1927:1933   */\n  dup5\n    /* \"#utility.yul\":1885:1934   */\n  tag_29\n  jump\t// in\ntag_76:\n    /* \"#utility.yul\":1869:1935   */\n  tag_28\n  jump\t// in\ntag_75:\n    /* \"#utility.yul\":1860:1935   */\n  swap1\n  pop\n    /* \"#utility.yul\":1958:1964   */\n  dup3\n    /* \"#utility.yul\":1951:1956   */\n  dup2\n    /* \"#utility.yul\":1944:1965   */\n  mstore\n    /* \"#utility.yul\":1996:2000   */\n  0x20\n    /* \"#utility.yul\":1989:1994   */\n  dup2\n    /* \"#utility.yul\":1985:2001   */\n  add\n    /* \"#utility.yul\":2034:2037   */\n  dup5\n    /* \"#utility.yul\":2025:2031   */\n  dup5\n    /* \"#utility.yul\":2020:2023   */\n  dup5\n    /* \"#utility.yul\":2016:2032   */\n  add\n    /* \"#utility.yul\":2013:2038   */\n  gt\n    /* \"#utility.yul\":2010:2122   */\n  iszero\n  tag_77\n  jumpi\n    /* \"#utility.yul\":2041:2120   */\n  tag_78\n  tag_24\n  jump\t// in\ntag_78:\n    /* \"#utility.yul\":2010:2122   */\ntag_77:\n    /* \"#utility.yul\":2131:2183   */\n  tag_79\n    /* \"#utility.yul\":2176:2182   */\n  dup5\n    /* \"#utility.yul\":2171:2174   */\n  dup3\n    /* \"#utility.yul\":2166:2169   */\n  dup6\n    /* \"#utility.yul\":2131:2183   */\n  tag_30\n  jump\t// in\ntag_79:\n    /* \"#utility.yul\":1850:2189   */\n  pop\n    /* \"#utility.yul\":1755:2189   */\n  swap4\n  swap3\n  pop\n  pop\n  pop\n  jump\t// out\n    /* \"#utility.yul\":2209:2564   */\ntag_32:\n    /* \"#utility.yul\":2276:2281   */\n  0x00\n    /* \"#utility.yul\":2325:2328   */\n  dup3\n    /* \"#utility.yul\":2318:2322   */\n  0x1f\n    /* \"#utility.yul\":2310:2316   */\n  dup4\n    /* \"#utility.yul\":2306:2323   */\n  add\n    /* \"#utility.yul\":2302:2329   */\n  slt\n    /* \"#utility.yul\":2292:2414   */\n  tag_81\n  jumpi\n    /* \"#utility.yul\":2333:2412   */\n  tag_82\n  tag_23\n  jump\t// in\ntag_82:\n    /* \"#utility.yul\":2292:2414   */\ntag_81:\n    /* \"#utility.yul\":2443:2449   */\n  dup2\n    /* \"#utility.yul\":2437:2450   */\n  mload\n    /* \"#utility.yul\":2468:2558   */\n  tag_83\n    /* \"#utility.yul\":2554:2557   */\n  dup5\n    /* \"#utility.yul\":2546:2552   */\n  dup3\n    /* \"#utility.yul\":2539:2543   */\n  0x20\n    /* \"#utility.yul\":2531:2537   */\n  dup7\n    /* \"#utility.yul\":2527:2544   */\n  add\n    /* \"#utility.yul\":2468:2558   */\n  tag_31\n  jump\t// in\ntag_83:\n    /* \"#utility.yul\":2459:2558   */\n  swap2\n  pop\n    /* \"#utility.yul\":2282:2564   */\n  pop\n    /* \"#utility.yul\":2209:2564   */\n  swap3\n  swap2\n  pop\n  pop\n  jump\t// out\n    /* \"#utility.yul\":2570:3423   */\ntag_3:\n    /* \"#utility.yul\":2669:2675   */\n  0x00\n    /* \"#utility.yul\":2677:2683   */\n  0x00\n    /* \"#utility.yul\":2726:2728   */\n  0x40\n    /* \"#utility.yul\":2714:2723   */\n  dup4\n    /* \"#utility.yul\":2705:2712   */\n  dup6\n    /* \"#utility.yul\":2701:2724   */\n  sub\n    /* \"#utility.yul\":2697:2729   */\n  slt\n    /* \"#utility.yul\":2694:2813   */\n  iszero\n  tag_85\n  jumpi\n    /* \"#utility.yul\":2732:2811   */\n  tag_86\n  tag_21\n  jump\t// in\ntag_86:\n    /* \"#utility.yul\":2694:2813   */\ntag_85:\n    /* \"#utility.yul\":2873:2874   */\n  0x00\n    /* \"#utility.yul\":2862:2871   */\n  dup4\n    /* \"#utility.yul\":2858:2875   */\n  add\n    /* \"#utility.yul\":2852:2876   */\n  mload\n    /* \"#utility.yul\":2903:2921   */\n  0xffffffffffffffff\n    /* \"#utility.yul\":2895:2901   */\n  dup2\n    /* \"#utility.yul\":2892:2922   */\n  gt\n    /* \"#utility.yul\":2889:3006   */\n  iszero\n  tag_87\n  jumpi\n    /* \"#utility.yul\":2925:3004   */\n  tag_88\n  tag_22\n  jump\t// in\ntag_88:\n    /* \"#utility.yul\":2889:3006   */\ntag_87:\n    /* \"#utility.yul\":3030:3104   */\n  tag_89\n    /* \"#utility.yul\":3096:3103   */\n  dup6\n    /* \"#utility.yul\":3087:3093   */\n  dup3\n    /* \"#utility.yul\":3076:3085   */\n  dup7\n    /* \"#utility.yul\":3072:3094   */\n  add\n    /* \"#utility.yul\":3030:3104   */\n  tag_32\n  jump\t// in\ntag_89:\n    /* \"#utility.yul\":3020:3104   */\n  swap3\n  pop\n    /* \"#utility.yul\":2823:3114   */\n  pop\n    /* \"#utility.yul\":3174:3176   */\n  0x20\n    /* \"#utility.yul\":3163:3172   */\n  dup4\n    /* \"#utility.yul\":3159:3177   */\n  add\n    /* \"#utility.yul\":3153:3178   */\n  mload\n    /* \"#utility.yul\":3205:3223   */\n  0xffffffffffffffff\n    /* \"#utility.yul\":3197:3203   */\n  dup2\n    /* \"#utility.yul\":3194:3224   */\n  gt\n    /* \"#utility.yul\":3191:3308   */\n  iszero\n  tag_90\n  jumpi\n    /* \"#utility.yul\":3227:3306   */\n  tag_91\n  tag_22\n  jump\t// in\ntag_91:\n    /* \"#utility.yul\":3191:3308   */\ntag_90:\n    /* \"#utility.yul\":3332:3406   */\n  tag_92\n    /* \"#utility.yul\":3398:3405   */\n  dup6\n    /* \"#utility.yul\":3389:3395   */\n  dup3\n    /* \"#utility.yul\":3378:3387   */\n  dup7\n    /* \"#utility.yul\":3374:3396   */\n  add\n    /* \"#utility.yul\":3332:3406   */\n  tag_32\n  jump\t// in\ntag_92:\n    /* \"#utility.yul\":3322:3406   */\n  swap2\n  pop\n    /* \"#utility.yul\":3124:3416   */\n  pop\n    /* \"#utility.yul\":2570:3423   */\n  swap3\n  pop\n  swap3\n  swap1\n  pop\n  jump\t// out\n    /* \"#utility.yul\":3429:3528   */\ntag_33:\n    /* \"#utility.yul\":3481:3487   */\n  0x00\n    /* \"#utility.yul\":3515:3520   */\n  dup2\n    /* \"#utility.yul\":3509:3521   */\n  mload\n    /* \"#utility.yul\":3499:3521   */\n  swap1\n  pop\n    /* \"#utility.yul\":3429:3528   */\n  swap2\n  swap1\n  pop\n  jump\t// out\n    /* \"#utility.yul\":3534:3714   */\ntag_34:\n    /* \"#utility.yul\":3582:3659   */\n  0x4e487b7100000000000000000000000000000000000000000000000000000000\n    /* \"#utility.yul\":3579:3580   */\n  0x00\n    /* \"#utility.yul\":3572:3660   */\n  mstore\n    /* \"#utility.yul\":3679:3683   */\n  0x22\n    /* \"#utility.yul\":3676:3677   */\n  0x04\n    /* \"#utility.yul\":3669:3684   */\n  mstore\n    /* \"#utility.yul\":3703:3707   */\n  0x24\n    /* \"#utility.yul\":3700:3701   */\n  0x00\n    /* \"#utility.yul\":3693:3708   */\n  revert\n    /* \"#utility.yul\":3720:4040   */\ntag_35:\n    /* \"#utility.yul\":3764:3770   */\n  0x00\n    /* \"#utility.yul\":3801:3802   */\n  0x02\n    /* \"#utility.yul\":3795:3799   */\n  dup3\n    /* \"#utility.yul\":3791:3803   */\n  div\n    /* \"#utility.yul\":3781:3803   */\n  swap1\n  pop\n    /* \"#utility.yul\":3848:3849   */\n  0x01\n    /* \"#utility.yul\":3842:3846   */\n  dup3\n    /* \"#utility.yul\":3838:3850   */\n  and\n    /* \"#utility.yul\":3869:3887   */\n  dup1\n    /* \"#utility.yul\":3859:3940   */\n  tag_96\n  jumpi\n    /* \"#utility.yul\":3925:3929   */\n  0x7f\n    /* \"#utility.yul\":3917:3923   */\n  dup3\n    /* \"#utility.yul\":3913:3930   */\n  and\n    /* \"#utility.yul\":3903:3930   */\n  swap2\n  pop\n    /* \"#utility.yul\":3859:3940   */\ntag_96:\n    /* \"#utility.yul\":3987:3989   */\n  0x20\n    /* \"#utility.yul\":3979:3985   */\n  dup3\n    /* \"#utility.yul\":3976:3990   */\n  lt\n    /* \"#utility.yul\":3956:3974   */\n  dup2\n    /* \"#utility.yul\":3953:3991   */\n  sub\n    /* \"#utility.yul\":3950:4034   */\n  tag_97\n  jumpi\n    /* \"#utility.yul\":4006:4024   */\n  tag_98\n  tag_34\n  jump\t// in\ntag_98:\n    /* \"#utility.yul\":3950:4034   */\ntag_97:\n    /* \"#utility.yul\":3771:4040   */\n  pop\n    /* \"#utility.yul\":3720:4040   */\n  swap2\n  swap1\n  pop\n  jump\t// out\n    /* \"#utility.yul\":4046:4187   */\ntag_36:\n    /* \"#utility.yul\":4095:4099   */\n  0x00\n    /* \"#utility.yul\":4118:4121   */\n  dup2\n    /* \"#utility.yul\":4110:4121   */\n  swap1\n  pop\n    /* \"#utility.yul\":4141:4144   */\n  dup2\n    /* \"#utility.yul\":4138:4139   */\n  0x00\n    /* \"#utility.yul\":4131:4145   */\n  mstore\n    /* \"#utility.yul\":4175:4179   */\n  0x20\n    /* \"#utility.yul\":4172:4173   */\n  0x00\n    /* \"#utility.yul\":4162:4180   */\n  keccak256\n    /* \"#utility.yul\":4154:4180   */\n  swap1\n  pop\n    /* \"#utility.yul\":4046:4187   */\n  swap2\n  swap1\n  pop\n  jump\t// out\n    /* \"#utility.yul\":4193:4286   */\ntag_37:\n    /* \"#utility.yul\":4230:4236   */\n  0x00\n    /* \"#utility.yul\":4277:4279   */\n  0x20\n    /* \"#utility.yul\":4272:4274   */\n  0x1f\n    /* \"#utility.yul\":4265:4270   */\n  dup4\n    /* \"#utility.yul\":4261:4275   */\n  add\n    /* \"#utility.yul\":4257:4280   */\n  div\n    /* \"#utility.yul\":4247:4280   */\n  swap1\n  pop\n    /* \"#utility.yul\":4193:4286   */\n  swap2\n  swap1\n  pop\n  jump\t// out\n    /* \"#utility.yul\":4292:4399   */\ntag_38:\n    /* \"#utility.yul\":4336:4344   */\n  0x00\n    /* \"#utility.yul\":4386:4391   */\n  dup3\n    /* \"#utility.yul\":4380:4384   */\n  dup3\n    /* \"#utility.yul\":4376:4392   */\n  shl\n    /* \"#utility.yul\":4355:4392   */\n  swap1\n  pop\n    /* \"#utility.yul\":4292:4399   */\n  swap3\n  swap2\n  pop\n  pop\n  jump\t// out\n    /* \"#utility.yul\":4405:4798   */\ntag_39:\n    /* \"#utility.yul\":4474:4480   */\n  0x00\n    /* \"#utility.yul\":4524:4525   */\n  0x08\n    /* \"#utility.yul\":4512:4522   */\n  dup4\n    /* \"#utility.yul\":4508:4526   */\n  mul\n    /* \"#utility.yul\":4547:4644   */\n  tag_103\n    /* \"#utility.yul\":4577:4643   */\n  0xffffffffffffffffffffffffffffffffffffffffffffffffffffffffffffffff\n    /* \"#utility.yul\":4566:4575   */\n  dup3\n    /* \"#utility.yul\":4547:4644   */\n  tag_38\n  jump\t// in\ntag_103:\n    /* \"#utility.yul\":4665:4704   */\n  tag_104\n    /* \"#utility.yul\":4695:4703   */\n  dup7\n    /* \"#utility.yul\":4684:4693   */\n  dup4\n    /* \"#utility.yul\":4665:4704   */\n  tag_38\n  jump\t// in\ntag_104:\n    /* \"#utility.yul\":4653:4704   */\n  swap6\n  pop\n    /* \"#utility.yul\":4737:4741   */\n  dup1\n    /* \"#utility.yul\":4733:4742   */\n  not\n    /* \"#utility.yul\":4726:4731   */\n  dup5\n    /* \"#utility.yul\":4722:4743   */\n  and\n    /* \"#utility.yul\":4713:4743   */\n  swap4\n  pop\n    /* \"#utility.yul\":4786:4790   */\n  dup1\n    /* \"#utility.yul\":4776:4784   */\n  dup7\n    /* \"#utility.yul\":4772:4791   */\n  and\n    /* \"#utility.yul\":4765:4770   */\n  dup5\n    /* \"#utility.yul\":4762:4792   */\n  or\n    /* \"#utility.yul\":4752:4792   */\n  swap3\n  pop\n    /* \"#utility.yul\":4481:4798   */\n  pop\n  pop\n    /* \"#utility.yul\":4405:4798   */\n  swap4\n  swap3\n  pop\n  pop\n  pop\n  jump\t// out\n    /* \"#utility.yul\":4804:4881   */\ntag_40:\n    /* \"#utility.yul\":4841:4848   */\n  0x00\n    /* \"#utility.yul\":4870:4875   */\n  dup2\n    /* \"#utility.yul\":4859:4875   */\n  swap1\n  pop\n    /* \"#utility.yul\":4804:4881   */\n  swap2\n  swap1\n  pop\n  jump\t// out\n    /* \"#utility.yul\":4887:4947   */\ntag_41:\n    /* \"#utility.yul\":4915:4918   */\n  0x00\n    /* \"#utility.yul\":4936:4941   */\n  dup2\n    /* \"#utility.yul\":4929:4941   */\n  swap1\n  pop\n    /* \"#utility.yul\":4887:4947   */\n  swap2\n  swap1\n  pop\n  jump\t// out\n    /* \"#utility.yul\":4953:5095   */\ntag_42:\n    /* \"#utility.yul\":5003:5012   */\n  0x00\n    /* \"#utility.yul\":5036:5089   */\n  tag_108\n    /* \"#utility.yul\":5054:5088   */\n  tag_109\n    /* \"#utility.yul\":5063:5087   */\n  tag_110\n    /* \"#utility.yul\":5081:5086   */\n  dup5\n    /* \"#utility.yul\":5063:5087   */\n  tag_40\n  jump\t// in\ntag_110:\n    /* \"#utility.yul\":5054:5088   */\n  tag_41\n  jump\t// in\ntag_109:\n    /* \"#utility.yul\":5036:5089   */\n  tag_40\n  jump\t// in\ntag_108:\n    /* \"#utility.yul\":5023:5089   */\n  swap1\n  pop\n    /* \"#utility.yul\":4953:5095   */\n  swap2\n  swap1\n  pop\n  jump\t// out\n    /* \"#utility.yul\":5101:5176   */\ntag_43:\n    /* \"#utility.yul\":5144:5147   */\n  0x00\n    /* \"#utility.yul\":5165:5170   */\n  dup2\n    /* \"#utility.yul\":5158:5170   */\n  swap1\n  pop\n    /* \"#utility.yul\":5101:5176   */\n  swap2\n  swap1\n  pop\n  jump\t// out\n    /* \"#utility.yul\":5182:5451   */\ntag_44:\n    /* \"#utility.yul\":5292:5331   */\n  tag_113\n    /* \"#utility.yul\":5323:5330   */\n  dup4\n    /* \"#utility.yul\":5292:5331   */\n  tag_42\n  jump\t// in\ntag_113:\n    /* \"#utility.yul\":5353:5444   */\n  tag_114\n    /* \"#utility.yul\":5402:5443   */\n  tag_115\n    /* \"#utility.yul\":5426:5442   */\n  dup3\n    /* \"#utility.yul\":5402:5443   */\n  tag_43\n  jump\t// in\ntag_115:\n    /* \"#utility.yul\":5394:5400   */\n  dup5\n    /* \"#utility.yul\":5387:5391   */\n  dup5\n    /* \"#utility.yul\":5381:5392   */\n  sload\n    /* \"#utility.yul\":5353:5444   */\n  tag_39\n  jump\t// in\ntag_114:\n    /* \"#utility.yul\":5347:5351   */\n  dup3\n    /* \"#utility.yul\":5340:5445   */\n  sstore\n    /* \"#utility.yul\":5258:5451   */\n  pop\n    /* \"#utility.yul\":5182:5451   */\n  pop\n  pop\n  pop\n  jump\t// out\n    /* \"#utility.yul\":5457:5530   */\ntag_45:\n    /* \"#utility.yul\":5502:5505   */\n  0x00\n    /* \"#utility.yul\":5523:5524   */\n  0x00\n    /* \"#utility.yul\":5516:5524   */\n  swap1\n  pop\n    /* \"#utility.yul\":5457:5530   */\n  swap1\n  jump\t// out\n    /* \"#utility.yul\":5536:5725   */\ntag_46:\n    /* \"#utility.yul\":5613:5645   */\n  tag_118\n  tag_45\n  jump\t// in\ntag_118:\n    /* \"#utility.yul\":5654:5719   */\n  tag_119\n    /* \"#utility.yul\":5712:5718   */\n  dup2\n    /* \"#utility.yul\":5704:5710   */\n  dup5\n    /* \"#utility.yul\":5698:5702   */\n  dup5\n    /* \"#utility.yul\":5654:5719   */\n  tag_44\n  jump\t// in\ntag_119:\n    /* \"#utility.yul\":5589:5725   */\n  pop\n    /* \"#utility.yul\":5536:5725   */\n  pop\n  pop\n  jump\t// out\n    /* \"#utility.yul\":5731:5917   */\ntag_47:\n    /* \"#utility.yul\":5791:5911   */\ntag_121:\n    /* \"#utility.yul\":5808:5811   */\n  dup2\n    /* \"#utility.yul\":5801:5806   */\n  dup2\n    /* \"#utility.yul\":5798:5812   */\n  lt\n    /* \"#utility.yul\":5791:5911   */\n  iszero\n  tag_123\n  jumpi\n    /* \"#utility.yul\":5862:5901   */\n  tag_124\n    /* \"#utility.yul\":5899:5900   */\n  0x00\n    /* \"#utility.yul\":5892:5897   */\n  dup3\n    /* \"#utility.yul\":5862:5901   */\n  tag_46\n  jump\t// in\ntag_124:\n    /* \"#utility.yul\":5835:5836   */\n  0x01\n    /* \"#utility.yul\":5828:5833   */\n  dup2\n    /* \"#utility.yul\":5824:5837   */\n  add\n    /* \"#utility.yul\":5815:5837   */\n  swap1\n  pop\n    /* \"#utility.yul\":5791:5911   */\n  jump(tag_121)\ntag_123:\n    /* \"#utility.yul\":5731:5917   */\n  pop\n  pop\n  jump\t// out\n    /* \"#utility.yul\":5923:6466   */\ntag_48:\n    /* \"#utility.yul\":6024:6026   */\n  0x1f\n    /* \"#utility.yul\":6019:6022   */\n  dup3\n    /* \"#utility.yul\":6016:6027   */\n  gt\n    /* \"#utility.yul\":6013:6459   */\n  iszero\n  tag_126\n  jumpi\n    /* \"#utility.yul\":6058:6096   */\n  tag_127\n    /* \"#utility.yul\":6090:6095   */\n  dup2\n    /* \"#utility.yul\":6058:6096   */\n  tag_36\n  jump\t// in\ntag_127:\n    /* \"#utility.yul\":6142:6171   */\n  tag_128\n    /* \"#utility.yul\":6160:6170   */\n  dup5\n    /* \"#utility.yul\":6142:6171   */\n  tag_37\n  jump\t// in\ntag_128:\n    /* \"#utility.yul\":6132:6140   */\n  dup2\n    /* \"#utility.yul\":6128:6172   */\n  add\n    /* \"#utility.yul\":6325:6327   */\n  0x20\n    /* \"#utility.yul\":6313:6323   */\n  dup6\n    /* \"#utility.yul\":6310:6328   */\n  lt\n    /* \"#utility.yul\":6307:6356   */\n  iszero\n  tag_129\n  jumpi\n    /* \"#utility.yul\":6346:6354   */\n  dup2\n    /* \"#utility.yul\":6331:6354   */\n  swap1\n  pop\n    /* \"#utility.yul\":6307:6356   */\ntag_129:\n    /* \"#utility.yul\":6369:6449   */\n  tag_130\n    /* \"#utility.yul\":6425:6447   */\n  tag_131\n    /* \"#utility.yul\":6443:6446   */\n  dup6\n    /* \"#utility.yul\":6425:6447   */\n  tag_37\n  jump\t// in\ntag_131:\n    /* \"#utility.yul\":6415:6423   */\n  dup4\n    /* \"#utility.yul\":6411:6448   */\n  add\n    /* \"#utility.yul\":6398:6409   */\n  dup3\n    /* \"#utility.yul\":6369:6449   */\n  tag_47\n  jump\t// in\ntag_130:\n    /* \"#utility.yul\":6028:6459   */\n  pop\n  pop\n    /* \"#utility.yul\":6013:6459   */\ntag_126:\n    /* \"#utility.yul\":5923:6466   */\n  pop\n  pop\n  pop\n  jump\t// out\n    /* \"#utility.yul\":6472:6589   */\ntag_49:\n    /* \"#utility.yul\":6526:6534   */\n  0x00\n    /* \"#utility.yul\":6576:6581   */\n  dup3\n    /* \"#utility.yul\":6570:6574   */\n  dup3\n    /* \"#utility.yul\":6566:6582   */\n  shr\n    /* \"#utility.yul\":6545:6582   */\n  swap1\n  pop\n    /* \"#utility.yul\":6472:6589   */\n  swap3\n  swap2\n  pop\n  pop\n  jump\t// out\n    /* \"#utility.yul\":6595:6764   */\ntag_50:\n    /* \"#utility.yul\":6639:6645   */\n  0x00\n    /* \"#utility.yul\":6672:6723   */\n  tag_134\n    /* \"#utility.yul\":6720:6721   */\n  0x00\n    /* \"#utility.yul\":6716:6722   */\n  not\n    /* \"#utility.yul\":6708:6713   */\n  dup5\n    /* \"#utility.yul\":6705:6706   */\n  0x08\n    /* \"#utility.yul\":6701:6714   */\n  mul\n    /* \"#utility.yul\":6672:6723   */\n  tag_49\n  jump\t// in\ntag_134:\n    /* \"#utility.yul\":6668:6724   */\n  not\n    /* \"#utility.yul\":6753:6757   */\n  dup1\n    /* \"#utility.yul\":6747:6751   */\n  dup4\n    /* \"#utility.yul\":6743:6758   */\n  and\n    /* \"#utility.yul\":6733:6758   */\n  swap2\n  pop\n    /* \"#utility.yul\":6646:6764   */\n  pop\n    /* \"#utility.yul\":6595:6764   */\n  swap3\n  swap2\n  pop\n  pop\n  jump\t// out\n    /* \"#utility.yul\":6769:7064   */\ntag_51:\n    /* \"#utility.yul\":6845:6849   */\n  0x00\n    /* \"#utility.yul\":6991:7020   */\n  tag_136\n    /* \"#utility.yul\":7016:7019   */\n  dup4\n    /* \"#utility.yul\":7010:7014   */\n  dup4\n    /* \"#utility.yul\":6991:7020   */\n  tag_50\n  jump\t// in\ntag_136:\n    /* \"#utility.yul\":6983:7020   */\n  swap2\n  pop\n    /* \"#utility.yul\":7053:7056   */\n  dup3\n    /* \"#utility.yul\":7050:7051   */\n  0x02\n    /* \"#utility.yul\":7046:7057   */\n  mul\n    /* \"#utility.yul\":7040:7044   */\n  dup3\n    /* \"#utility.yul\":7037:7058   */\n  or\n    /* \"#utility.yul\":7029:7058   */\n  swap1\n  pop\n    /* \"#utility.yul\":6769:7064   */\n  swap3\n  swap2\n  pop\n  pop\n  jump\t// out\n    /* \"#utility.yul\":7069:8464   */\ntag_7:\n    /* \"#utility.yul\":7186:7223   */\n  tag_138\n    /* \"#utility.yul\":7219:7222   */\n  dup3\n    /* \"#utility.yul\":7186:7223   */\n  tag_33\n  jump\t// in\ntag_138:\n    /* \"#utility.yul\":7288:7306   */\n  0xffffffffffffffff\n    /* \"#utility.yul\":7280:7286   */\n  dup2\n    /* \"#utility.yul\":7277:7307   */\n  gt\n    /* \"#utility.yul\":7274:7330   */\n  iszero\n  tag_139\n  jumpi\n    /* \"#utility.yul\":7310:7328   */\n  tag_140\n  tag_26\n  jump\t// in\ntag_140:\n    /* \"#utility.yul\":7274:7330   */\ntag_139:\n    /* \"#utility.yul\":7354:7392   */\n  tag_141\n    /* \"#utility.yul\":7386:7390   */\n  dup3\n    /* \"#utility.yul\":7380:7391   */\n  sload\n    /* \"#utility.yul\":7354:7392   */\n  tag_35\n  jump\t// in\ntag_141:\n    /* \"#utility.yul\":7439:7506   */\n  tag_142\n    /* \"#utility.yul\":7499:7505   */\n  dup3\n    /* \"#utility.yul\":7491:7497   */\n  dup3\n    /* \"#utility.yul\":7485:7489   */\n  dup6\n    /* \"#utility.yul\":7439:7506   */\n  tag_48\n  jump\t// in\ntag_142:\n    /* \"#utility.yul\":7533:7534   */\n  0x00\n    /* \"#utility.yul\":7557:7561   */\n  0x20\n    /* \"#utility.yul\":7544:7561   */\n  swap1\n  pop\n    /* \"#utility.yul\":7589:7591   */\n  0x1f\n    /* \"#utility.yul\":7581:7587   */\n  dup4\n    /* \"#utility.yul\":7578:7592   */\n  gt\n    /* \"#utility.yul\":7606:7607   */\n  0x01\n    /* \"#utility.yul\":7601:8219   */\n  dup2\n  eq\n  tag_144\n  jumpi\n    /* \"#utility.yul\":8263:8264   */\n  0x00\n    /* \"#utility.yul\":8280:8286   */\n  dup5\n    /* \"#utility.yul\":8277:8354   */\n  iszero\n  tag_145\n  jumpi\n    /* \"#utility.yul\":8329:8338   */\n  dup3\n    /* \"#utility.yul\":8324:8327   */\n  dup8\n    /* \"#utility.yul\":8320:8339   */\n  add\n    /* \"#utility.yul\":8314:8340   */\n  mload\n    /* \"#utility.yul\":8305:8340   */\n  swap1\n  pop\n    /* \"#utility.yul\":8277:8354   */\ntag_145:\n    /* \"#utility.yul\":8380:8447   */\n  tag_146\n    /* \"#utility.yul\":8440:8446   */\n  dup6\n    /* \"#utility.yul\":8433:8438   */\n  dup3\n    /* \"#utility.yul\":8380:8447   */\n  tag_51\n  jump\t// in\ntag_146:\n    /* \"#utility.yul\":8374:8378   */\n  dup7\n    /* \"#utility.yul\":8367:8448   */\n  sstore\n    /* \"#utility.yul\":8236:8458   */\n  pop\n    /* \"#utility.yul\":7571:8458   */\n  jump(tag_143)\n    /* \"#utility.yul\":7601:8219   */\ntag_144:\n    /* \"#utility.yul\":7653:7657   */\n  0x1f\n    /* \"#utility.yul\":7649:7658   */\n  not\n    /* \"#utility.yul\":7641:7647   */\n  dup5\n    /* \"#utility.yul\":7637:7659   */\n  and\n    /* \"#utility.yul\":7687:7724   */\n  tag_147\n    /* \"#utility.yul\":7719:7723   */\n  dup7\n    /* \"#utility.yul\":7687:7724   */\n  tag_36\n  jump\t// in\ntag_147:\n    /* \"#utility.yul\":7746:7747   */\n  0x00\n    /* \"#utility.yul\":7760:7968   */\ntag_148:\n    /* \"#utility.yul\":7774:7781   */\n  dup3\n    /* \"#utility.yul\":7771:7772   */\n  dup2\n    /* \"#utility.yul\":7768:7782   */\n  lt\n    /* \"#utility.yul\":7760:7968   */\n  iszero\n  tag_150\n  jumpi\n    /* \"#utility.yul\":7853:7862   */\n  dup5\n    /* \"#utility.yul\":7848:7851   */\n  dup10\n    /* \"#utility.yul\":7844:7863   */\n  add\n    /* \"#utility.yul\":7838:7864   */\n  mload\n    /* \"#utility.yul\":7830:7836   */\n  dup3\n    /* \"#utility.yul\":7823:7865   */\n  sstore\n    /* \"#utility.yul\":7904:7905   */\n  0x01\n    /* \"#utility.yul\":7896:7902   */\n  dup3\n    /* \"#utility.yul\":7892:7906   */\n  add\n    /* \"#utility.yul\":7882:7906   */\n  swap2\n  pop\n    /* \"#utility.yul\":7951:7953   */\n  0x20\n    /* \"#utility.yul\":7940:7949   */\n  dup6\n    /* \"#utility.yul\":7936:7954   */\n  add\n    /* \"#utility.yul\":7923:7954   */\n  swap5\n  pop\n    /* \"#utility.yul\":7797:7801   */\n  0x20\n    /* \"#utility.yul\":7794:7795   */\n  dup2\n    /* \"#utility.yul\":7790:7802   */\n  add\n    /* \"#utility.yul\":7785:7802   */\n  swap1\n  pop\n    /* \"#utility.yul\":7760:7968   */\n  jump(tag_148)\ntag_150:\n    /* \"#utility.yul\":7996:8002   */\n  dup7\n    /* \"#utility.yul\":7987:7994   */\n  dup4\n    /* \"#utility.yul\":7984:8003   */\n  lt\n    /* \"#utility.yul\":7981:8160   */\n  iszero\n  tag_151\n  jumpi\n    /* \"#utility.yul\":8054:8063   */\n  dup5\n    /* \"#utility.yul\":8049:8052   */\n  dup10\n    /* \"#utility.yul\":8045:8064   */\n  add\n    /* \"#utility.yul\":8039:8065   */\n  mload\n    /* \"#utility.yul\":8097:8145   */\n  tag_152\n    /* \"#utility.yul\":8139:8143   */\n  0x1f\n    /* \"#utility.yul\":8131:8137   */\n  dup10\n    /* \"#utility.yul\":8127:8144   */\n  and\n    /* \"#utility.yul\":8116:8125   */\n  dup3\n    /* \"#utility.yul\":8097:8145   */\n  tag_50\n  jump\t// in\ntag_152:\n    /* \"#utility.yul\":8089:8095   */\n  dup4\n    /* \"#utility.yul\":8082:8146   */\n  sstore\n    /* \"#utility.yul\":8004:8160   */\n  pop\n    /* \"#utility.yul\":7981:8160   */\ntag_151:\n    /* \"#utility.yul\":8206:8207   */\n  0x01\n    /* \"#utility.yul\":8202:8203   */\n  0x02\n    /* \"#utility.yul\":8194:8200   */\n  dup9\n    /* \"#utility.yul\":8190:8204   */\n  mul\n    /* \"#utility.yul\":8186:8208   */\n  add\n    /* \"#utility.yul\":8180:8184   */\n  dup9\n    /* \"#utility.yul\":8173:8209   */\n  sstore\n    /* \"#utility.yul\":7608:8219   */\n  pop\n  pop\n  pop\n    /* \"#utility.yul\":7571:8458   */\ntag_143:\n  pop\n    /* \"#utility.yul\":7161:8464   */\n  pop\n  pop\n  pop\n    /* \"#utility.yul\":7069:8464   */\n  pop\n  pop\n  jump\t// out\n    /* \"#utility.yul\":8470:8650   */\ntag_52:\n    /* \"#utility.yul\":8518:8595   */\n  0x4e487b7100000000000000000000000000000000000000000000000000000000\n    /* \"#utility.yul\":8515:8516   */\n  0x00\n    /* \"#utility.yul\":8508:8596   */\n  mstore\n    /* \"#utility.yul\":8615:8619   */\n  0x11\n    /* \"#utility.yul\":8612:8613   */\n  0x04\n    /* \"#utility.yul\":8605:8620   */\n  mstore\n    /* \"#utility.yul\":8639:8643   */\n  0x24\n    /* \"#utility.yul\":8636:8637   */\n  0x00\n    /* \"#utility.yul\":8629:8644   */\n  revert\n    /* \"#utility.yul\":8656:9066   */\ntag_14:\n    /* \"#utility.yul\":8696:8703   */\n  0x00\n    /* \"#utility.yul\":8719:8739   */\n  tag_155\n    /* \"#utility.yul\":8737:8738   */\n  dup3\n    /* \"#utility.yul\":8719:8739   */\n  tag_40\n  jump\t// in\ntag_155:\n    /* \"#utility.yul\":8714:8739   */\n  swap2\n  pop\n    /* \"#utility.yul\":8753:8773   */\n  tag_156\n    /* \"#utility.yul\":8771:8772   */\n  dup4\n    /* \"#utility.yul\":8753:8773   */\n  tag_40\n  jump\t// in\ntag_156:\n    /* \"#utility.yul\":8748:8773   */\n  swap3\n  pop\n    /* \"#utility.yul\":8808:8809   */\n  dup3\n    /* \"#utility.yul\":8805:8806   */\n  dup3\n    /* \"#utility.yul\":8801:8810   */\n  mul\n    /* \"#utility.yul\":8830:8860   */\n  tag_157\n    /* \"#utility.yul\":8848:8859   */\n  dup2\n    /* \"#utility.yul\":8830:8860   */\n  tag_40\n  jump\t// in\ntag_157:\n    /* \"#utility.yul\":8819:8860   */\n  swap2\n  pop\n    /* \"#utility.yul\":9009:9010   */\n  dup3\n    /* \"#utility.yul\":9000:9007   */\n  dup3\n    /* \"#utility.yul\":8996:9011   */\n  div\n    /* \"#utility.yul\":8993:8994   */\n  dup5\n    /* \"#utility.yul\":8990:9012   */\n  eq\n    /* \"#utility.yul\":8970:8971   */\n  dup4\n    /* \"#utility.yul\":8963:8972   */\n  iszero\n    /* \"#utility.yul\":8943:9026   */\n  or\n    /* \"#utility.yul\":8920:9059   */\n  tag_158\n  jumpi\n    /* \"#utility.yul\":9039:9057   */\n  tag_159\n  tag_52\n  jump\t// in\ntag_159:\n    /* \"#utility.yul\":8920:9059   */\ntag_158:\n    /* \"#utility.yul\":8704:9066   */\n  pop\n    /* \"#utility.yul\":8656:9066   */\n  swap3\n  swap2\n  pop\n  pop\n  jump\t// out\n    /* \"#utility.yul\":9072:9263   */\ntag_16:\n    /* \"#utility.yul\":9112:9115   */\n  0x00\n    /* \"#utility.yul\":9131:9151   */\n  tag_161\n    /* \"#utility.yul\":9149:9150   */\n  dup3\n    /* \"#utility.yul\":9131:9151   */\n  tag_40\n  jump\t// in\ntag_161:\n    /* \"#utility.yul\":9126:9151   */\n  swap2\n  pop\n    /* \"#utility.yul\":9165:9185   */\n  tag_162\n    /* \"#utility.yul\":9183:9184   */\n  dup4\n    /* \"#utility.yul\":9165:9185   */\n  tag_40\n  jump\t// in\ntag_162:\n    /* \"#utility.yul\":9160:9185   */\n  swap3\n  pop\n    /* \"#utility.yul\":9208:9209   */\n  dup3\n    /* \"#utility.yul\":9205:9206   */\n  dup3\n    /* \"#utility.yul\":9201:9210   */\n  add\n    /* \"#utility.yul\":9194:9210   */\n  swap1\n  pop\n    /* \"#utility.yul\":9229:9232   */\n  dup1\n    /* \"#utility.yul\":9226:9227   */\n  dup3\n    /* \"#utility.yul\":9223:9233   */\n  gt\n    /* \"#utility.yul\":9220:9256   */\n  iszero\n  tag_163\n  jumpi\n    /* \"#utility.yul\":9236:9254   */\n  tag_164\n  tag_52\n  jump\t// in\ntag_164:\n    /* \"#utility.yul\":9220:9256   */\ntag_163:\n    /* \"#utility.yul\":9072:9263   */\n  swap3\n  swap2\n  pop\n  pop\n  jump\t// out\n    /* \"#utility.yul\":9269:9387   */\ntag_53:\n    /* \"#utility.yul\":9356:9380   */\n  tag_166\n    /* \"#utility.yul\":9374:9379   */\n  dup2\n    /* \"#utility.yul\":9356:9380   */\n  tag_40\n  jump\t// in\ntag_166:\n    /* \"#utility.yul\":9351:9354   */\n  dup3\n    /* \"#utility.yul\":9344:9381   */\n  mstore\n    /* \"#utility.yul\":9269:9387   */\n  pop\n  pop\n  jump\t// out\n    /* \"#utility.yul\":9393:9615   */\ntag_19:\n    /* \"#utility.yul\":9486:9490   */\n  0x00\n    /* \"#utility.yul\":9524:9526   */\n  0x20\n    /* \"#utility.yul\":9513:9522   */\n  dup3\n    /* \"#utility.yul\":9509:9527   */\n  add\n    /* \"#utility.yul\":9501:9527   */\n  swap1\n  pop\n    /* \"#utility.yul\":9537:9608   */\n  tag_168\n    /* \"#utility.yul\":9605:9606   */\n  0x00\n    /* \"#utility.yul\":9594:9603   */\n  dup4\n    /* \"#utility.yul\":9590:9607   */\n  add\n    /* \"#utility.yul\":9581:9587   */\n  dup5\n    /* \"#utility.yul\":9537:9608   */\n  tag_53\n  jump\t// in\ntag_168:\n    /* \"#utility.yul\":9393:9615   */\n  swap3\n  swap2\n  pop\n  pop\n  jump\t// out\n    /* \"contract/DltToken.sol\":61:4042  contract DltToken{... */\ntag_11:\n  dataSize(sub_0)\n  dup1\n  dataOffset(sub_0)\n  0x00\n  codecopy\n  0x00\n  return\nstop\n\nsub_0: assembly {\n        /* \"contract/DltToken.sol\":61:4042  contract DltToken{... */\n      mstore(0x40, 0x80)\n      callvalue\n      dup1\n      iszero\n      tag_1\n      jumpi\n      revert(0x00, 0x00)\n    tag_1:\n      pop\n      jumpi(tag_2, lt(calldatasize, 0x04))\n      shr(0xe0, calldataload(0x00))\n      dup1\n      0x76809ce3\n      gt\n      tag_12\n      jumpi\n      dup1\n      0x76809ce3\n      eq\n      tag_7\n      jumpi\n      dup1\n      0x862b092b\n      eq\n      tag_8\n      jumpi\n      dup1\n      0xa9059cbb\n      eq\n      tag_9\n      jumpi\n      dup1\n      0xc4e41b22\n      eq\n      tag_10\n      jumpi\n      dup1\n      0xdd62ed3e\n      eq\n      tag_11\n      jumpi\n      jump(tag_2)\n    tag_12:\n      dup1\n      0x095ea7b3\n      eq\n      tag_3\n      jumpi\n      dup1\n      0x15070401\n      eq\n      tag_4\n      jumpi\n      dup1\n      0x23b872dd\n      eq\n      tag_5\n      jumpi\n      dup1\n      0x70a08231\n      eq\n      tag_6\n      jumpi\n    tag_2:\n      revert(0x00, 0x00)\n        /* \"contract/DltToken.sol\":2253:2535  function approve(address _delegate, uint256 _amountOfToken) external {... */\n    tag_3:\n      tag_13\n      0x04\n      dup1\n      calldatasize\n      sub\n      dup2\n      add\n      swap1\n      tag_14\n      swap2\n      swap1\n      tag_15\n      jump\t// in\n    tag_14:\n      tag_16\n      jump\t// in\n    tag_13:\n      stop\n        /* \"contract/DltToken.sol\":1011:1106  function getSymbol() external view returns (string memory){... */\n    tag_4:\n      tag_17\n      tag_18\n      jump\t// in\n    tag_17:\n      mload(0x40)\n      tag_19\n      swap2\n      swap1\n      tag_20\n      jump\t// in\n    tag_19:\n      mload(0x40)\n      dup1\n      swap2\n      sub\n      swap1\n      return\n        /* \"contract/DltToken.sol\":2684:3469  function transferFrom(address _owner, address _buyer, uint256 _amountOfToken) external {... */\n    tag_5:\n      tag_21\n      0x04\n      dup1\n      calldatasize\n      sub\n      dup2\n      add\n      swap1\n      tag_22\n      swap2\n      swap1\n      tag_23\n      jump\t// in\n    tag_22:\n      tag_24\n      jump\t// in\n    tag_21:\n      stop\n        /* \"contract/DltToken.sol\":1499:1611  function balanceOf(address _address) external view returns (uint256){... */\n    tag_6:\n      tag_25\n      0x04\n      dup1\n      calldatasize\n      sub\n      dup2\n      add\n      swap1\n      tag_26\n      swap2\n      swap1\n      tag_27\n      jump\t// in\n    tag_26:\n      tag_28\n      jump\t// in\n    tag_25:\n      mload(0x40)\n      tag_29\n      swap2\n      swap1\n      tag_30\n      jump\t// in\n    tag_29:\n      mload(0x40)\n      dup1\n      swap2\n      sub\n      swap1\n      return\n        /* \"contract/DltToken.sol\":1395:1470  function decimal() external pure returns(uint8){... */\n    tag_7:\n      tag_31\n      tag_32\n      jump\t// in\n    tag_31:\n      mload(0x40)\n      tag_33\n      swap2\n      swap1\n      tag_34\n      jump\t// in\n    tag_33:\n      mload(0x40)\n      dup1\n      swap2\n      sub\n      swap1\n      return\n        /* \"contract/DltToken.sol\":907:1003  function getTokenName() external view returns (string memory){... */\n    tag_8:\n      tag_35\n      tag_36\n      jump\t// in\n    tag_35:\n      mload(0x40)\n      tag_37\n      swap2\n      swap1\n      tag_20\n      jump\t// in\n    tag_37:\n      mload(0x40)\n      dup1\n      swap2\n      sub\n      swap1\n      return\n        /* \"contract/DltToken.sol\":1619:2243  function transfer(address _reciever, uint256 _amountOfToken) external  {... */\n    tag_9:\n      tag_38\n      0x04\n      dup1\n      calldatasize\n      sub\n      dup2\n      add\n      swap1\n      tag_39\n      swap2\n      swap1\n      tag_15\n      jump\t// in\n    tag_39:\n      tag_40\n      jump\t// in\n    tag_38:\n      stop\n        /* \"contract/DltToken.sol\":1293:1387  function getTotalSupply() external view returns (uint256){... */\n    tag_10:\n      tag_41\n      tag_42\n      jump\t// in\n    tag_41:\n      mload(0x40)\n      tag_43\n      swap2\n      swap1\n      tag_30\n      jump\t// in\n    tag_43:\n      mload(0x40)\n      dup1\n      swap2\n      sub\n      swap1\n      return\n        /* \"contract/DltToken.sol\":2543:2676  function allowance(address _owner, address _delegate) external view returns (uint) {... */\n    tag_11:\n      tag_44\n      0x04\n      dup1\n      calldatasize\n      sub\n      dup2\n      add\n      swap1\n      tag_45\n      swap2\n      swap1\n      tag_46\n      jump\t// in\n    tag_45:\n      tag_47\n      jump\t// in\n    tag_44:\n      mload(0x40)\n      tag_48\n      swap2\n      swap1\n      tag_30\n      jump\t// in\n    tag_48:\n      mload(0x40)\n      dup1\n      swap2\n      sub\n      swap1\n      return\n        /* \"contract/DltToken.sol\":2253:2535  function approve(address _delegate, uint256 _amountOfToken) external {... */\n    tag_16:\n        /* \"contract/DltToken.sol\":2364:2378  _amountOfToken */\n      dup1\n        /* \"contract/DltToken.sol\":2341:2349  balances */\n      0x04\n        /* \"contract/DltToken.sol\":2341:2361  balances[msg.sender] */\n      0x00\n        /* \"contract/DltToken.sol\":2350:2360  msg.sender */\n      caller\n        /* \"contract/DltToken.sol\":2341:2361  balances[msg.sender] */\n      0xffffffffffffffffffffffffffffffffffffffff\n      and\n      0xffffffffffffffffffffffffffffffffffffffff\n      and\n      dup2\n      mstore\n      0x20\n      add\n      swap1\n      dup2\n      mstore\n      0x20\n      add\n      0x00\n      keccak256\n      sload\n        /* \"contract/DltToken.sol\":2341:2378  balances[msg.sender] > _amountOfToken */\n      gt\n        /* \"contract/DltToken.sol\":2333:2404  require(balances[msg.sender] > _amountOfToken, \"Balance is not enough\") */\n      tag_50\n      jumpi\n      mload(0x40)\n      0x08c379a000000000000000000000000000000000000000000000000000000000\n      dup2\n      mstore\n      0x04\n      add\n      tag_51\n      swap1\n      tag_52\n      jump\t// in\n    tag_51:\n      mload(0x40)\n      dup1\n      swap2\n      sub\n      swap1\n      revert\n    tag_50:\n        /* \"contract/DltToken.sol\":2448:2462  _amountOfToken */\n      dup1\n        /* \"contract/DltToken.sol\":2417:2422  allow */\n      0x05\n        /* \"contract/DltToken.sol\":2417:2434  allow[msg.sender] */\n      0x00\n        /* \"contract/DltToken.sol\":2423:2433  msg.sender */\n      caller\n        /* \"contract/DltToken.sol\":2417:2434  allow[msg.sender] */\n      0xffffffffffffffffffffffffffffffffffffffff\n      and\n      0xffffffffffffffffffffffffffffffffffffffff\n      and\n      dup2\n      mstore\n      0x20\n      add\n      swap1\n      dup2\n      mstore\n      0x20\n      add\n      0x00\n      keccak256\n        /* \"contract/DltToken.sol\":2417:2445  allow[msg.sender][_delegate] */\n      0x00\n        /* \"contract/DltToken.sol\":2435:2444  _delegate */\n      dup5\n        /* \"contract/DltToken.sol\":2417:2445  allow[msg.sender][_delegate] */\n      0xffffffffffffffffffffffffffffffffffffffff\n      and\n      0xffffffffffffffffffffffffffffffffffffffff\n      and\n      dup2\n      mstore\n      0x20\n      add\n      swap1\n      dup2\n      mstore\n      0x20\n      add\n      0x00\n      keccak256\n        /* \"contract/DltToken.sol\":2417:2462  allow[msg.sender][_delegate] = _amountOfToken */\n      dup2\n      swap1\n      sstore\n      pop\n        /* \"contract/DltToken.sol\":2501:2510  _delegate */\n      dup2\n        /* \"contract/DltToken.sol\":2480:2527  Approval(msg.sender, _delegate, _amountOfToken) */\n      0xffffffffffffffffffffffffffffffffffffffff\n      and\n        /* \"contract/DltToken.sol\":2489:2499  msg.sender */\n      caller\n        /* \"contract/DltToken.sol\":2480:2527  Approval(msg.sender, _delegate, _amountOfToken) */\n      0xffffffffffffffffffffffffffffffffffffffff\n      and\n      0x8c5be1e5ebec7d5bd14f71427d1e84f3dd0314c0f7b2291e5b200ac8c7c3b925\n        /* \"contract/DltToken.sol\":2512:2526  _amountOfToken */\n      dup4\n        /* \"contract/DltToken.sol\":2480:2527  Approval(msg.sender, _delegate, _amountOfToken) */\n      mload(0x40)\n      tag_53\n      swap2\n      swap1\n      tag_30\n      jump\t// in\n    tag_53:\n      mload(0x40)\n      dup1\n      swap2\n      sub\n      swap1\n      log3\n        /* \"contract/DltToken.sol\":2253:2535  function approve(address _delegate, uint256 _amountOfToken) external {... */\n      pop\n      pop\n      jump\t// out\n        /* \"contract/DltToken.sol\":1011:1106  function getSymbol() external view returns (string memory){... */\n    tag_18:\n        /* \"contract/DltToken.sol\":1055:1068  string memory */\n      0x60\n        /* \"contract/DltToken.sol\":1087:1098  tokenSymbol */\n      0x01\n        /* \"contract/DltToken.sol\":1080:1098  return tokenSymbol */\n      dup1\n      sload\n      tag_55\n      swap1\n      tag_56\n      jump\t// in\n    tag_55:\n      dup1\n      0x1f\n      add\n      0x20\n      dup1\n      swap2\n      div\n      mul\n      0x20\n      add\n      mload(0x40)\n      swap1\n      dup2\n      add\n      0x40\n      mstore\n      dup1\n      swap3\n      swap2\n      swap1\n      dup2\n      dup2\n      mstore\n      0x20\n      add\n      dup3\n      dup1\n      sload\n      tag_57\n      swap1\n      tag_56\n      jump\t// in\n    tag_57:\n      dup1\n      iszero\n      tag_58\n      jumpi\n      dup1\n      0x1f\n      lt\n      tag_59\n      jumpi\n      0x0100\n      dup1\n      dup4\n      sload\n      div\n      mul\n      dup4\n      mstore\n      swap2\n      0x20\n      add\n      swap2\n      jump(tag_58)\n    tag_59:\n      dup3\n      add\n      swap2\n      swap1\n      0x00\n      mstore\n      keccak256(0x00, 0x20)\n      swap1\n    tag_60:\n      dup2\n      sload\n      dup2\n      mstore\n      swap1\n      0x01\n      add\n      swap1\n      0x20\n      add\n      dup1\n      dup4\n      gt\n      tag_60\n      jumpi\n      dup3\n      swap1\n      sub\n      0x1f\n      and\n      dup3\n      add\n      swap2\n    tag_58:\n      pop\n      pop\n      pop\n      pop\n      pop\n      swap1\n      pop\n        /* \"contract/DltToken.sol\":1011:1106  function getSymbol() external view returns (string memory){... */\n      swap1\n      jump\t// out\n        /* \"contract/DltToken.sol\":2684:3469  function transferFrom(address _owner, address _buyer, uint256 _amountOfToken) external {... */\n    tag_24:\n        /* \"contract/DltToken.sol\":2832:2833  0 */\n      0x00\n        /* \"contract/DltToken.sol\":2814:2834  _owner != address(0) */\n      0xffffffffffffffffffffffffffffffffffffffff\n      and\n        /* \"contract/DltToken.sol\":2814:2820  _owner */\n      dup4\n        /* \"contract/DltToken.sol\":2814:2834  _owner != address(0) */\n      0xffffffffffffffffffffffffffffffffffffffff\n      and\n      sub\n        /* \"contract/DltToken.sol\":2806:2861  require(_owner != address(0), \"Address is not allowed\") */\n      tag_62\n      jumpi\n      mload(0x40)\n      0x08c379a000000000000000000000000000000000000000000000000000000000\n      dup2\n      mstore\n      0x04\n      add\n      tag_63\n      swap1\n      tag_64\n      jump\t// in\n    tag_63:\n      mload(0x40)\n      dup1\n      swap2\n      sub\n      swap1\n      revert\n    tag_62:\n        /* \"contract/DltToken.sol\":2898:2899  0 */\n      0x00\n        /* \"contract/DltToken.sol\":2880:2900  _buyer != address(0) */\n      0xffffffffffffffffffffffffffffffffffffffff\n      and\n        /* \"contract/DltToken.sol\":2880:2886  _buyer */\n      dup3\n        /* \"contract/DltToken.sol\":2880:2900  _buyer != address(0) */\n      0xffffffffffffffffffffffffffffffffffffffff\n      and\n      sub\n        /* \"contract/DltToken.sol\":2872:2927  require(_buyer != address(0), \"Address is not allowed\") */\n      tag_65\n      jumpi\n      mload(0x40)\n      0x08c379a000000000000000000000000000000000000000000000000000000000\n      dup2\n      mstore\n      0x04\n      add\n      tag_66\n      swap1\n      tag_64\n      jump\t// in\n    tag_66:\n      mload(0x40)\n      dup1\n      swap2\n      sub\n      swap1\n      revert\n    tag_65:\n        /* \"contract/DltToken.sol\":2966:2974  balances */\n      0x04\n        /* \"contract/DltToken.sol\":2966:2982  balances[_owner] */\n      0x00\n        /* \"contract/DltToken.sol\":2975:2981  _owner */\n      dup5\n        /* \"contract/DltToken.sol\":2966:2982  balances[_owner] */\n      0xffffffffffffffffffffffffffffffffffffffff\n      and\n      0xffffffffffffffffffffffffffffffffffffffff\n      and\n      dup2\n      mstore\n      0x20\n      add\n      swap1\n      dup2\n      mstore\n      0x20\n      add\n      0x00\n      keccak256\n      sload\n        /* \"contract/DltToken.sol\":2948:2962  _amountOfToken */\n      dup2\n        /* \"contract/DltToken.sol\":2948:2982  _amountOfToken <= balances[_owner] */\n      gt\n      iszero\n        /* \"contract/DltToken.sol\":2940:2983  require(_amountOfToken <= balances[_owner]) */\n      tag_67\n      jumpi\n      revert(0x00, 0x00)\n    tag_67:\n        /* \"contract/DltToken.sol\":3020:3025  allow */\n      0x05\n        /* \"contract/DltToken.sol\":3020:3033  allow[_owner] */\n      0x00\n        /* \"contract/DltToken.sol\":3026:3032  _owner */\n      dup5\n        /* \"contract/DltToken.sol\":3020:3033  allow[_owner] */\n      0xffffffffffffffffffffffffffffffffffffffff\n      and\n      0xffffffffffffffffffffffffffffffffffffffff\n      and\n      dup2\n      mstore\n      0x20\n      add\n      swap1\n      dup2\n      mstore\n      0x20\n      add\n      0x00\n      keccak256\n        /* \"contract/DltToken.sol\":3020:3045  allow[_owner][msg.sender] */\n      0x00\n        /* \"contract/DltToken.sol\":3034:3044  msg.sender */\n      caller\n        /* \"contract/DltToken.sol\":3020:3045  allow[_owner][msg.sender] */\n      0xffffffffffffffffffffffffffffffffffffffff\n      and\n      0xffffffffffffffffffffffffffffffffffffffff\n      and\n      dup2\n      mstore\n      0x20\n      add\n      swap1\n      dup2\n      mstore\n      0x20\n      add\n      0x00\n      keccak256\n      sload\n        /* \"contract/DltToken.sol\":3002:3016  _amountOfToken */\n      dup2\n        /* \"contract/DltToken.sol\":3002:3045  _amountOfToken <= allow[_owner][msg.sender] */\n      gt\n      iszero\n        /* \"contract/DltToken.sol\":2994:3046  require(_amountOfToken <= allow[_owner][msg.sender]) */\n      tag_68\n      jumpi\n      revert(0x00, 0x00)\n    tag_68:\n        /* \"contract/DltToken.sol\":3097:3111  _amountOfToken */\n      dup1\n        /* \"contract/DltToken.sol\":3078:3086  balances */\n      0x04\n        /* \"contract/DltToken.sol\":3078:3094  balances[_owner] */\n      0x00\n        /* \"contract/DltToken.sol\":3087:3093  _owner */\n      dup6\n        /* \"contract/DltToken.sol\":3078:3094  balances[_owner] */\n      0xffffffffffffffffffffffffffffffffffffffff\n      and\n      0xffffffffffffffffffffffffffffffffffffffff\n      and\n      dup2\n      mstore\n      0x20\n      add\n      swap1\n      dup2\n      mstore\n      0x20\n      add\n      0x00\n      keccak256\n      sload\n        /* \"contract/DltToken.sol\":3078:3111  balances[_owner] - _amountOfToken */\n      tag_69\n      swap2\n      swap1\n      tag_70\n      jump\t// in\n    tag_69:\n        /* \"contract/DltToken.sol\":3059:3067  balances */\n      0x04\n        /* \"contract/DltToken.sol\":3059:3075  balances[_owner] */\n      0x00\n        /* \"contract/DltToken.sol\":3068:3074  _owner */\n      dup6\n        /* \"contract/DltToken.sol\":3059:3075  balances[_owner] */\n      0xffffffffffffffffffffffffffffffffffffffff\n      and\n      0xffffffffffffffffffffffffffffffffffffffff\n      and\n      dup2\n      mstore\n      0x20\n      add\n      swap1\n      dup2\n      mstore\n      0x20\n      add\n      0x00\n      keccak256\n        /* \"contract/DltToken.sol\":3059:3111  balances[_owner] = balances[_owner] - _amountOfToken */\n      dup2\n      swap1\n      sstore\n      pop\n        /* \"contract/DltToken.sol\":3153:3167  _amountOfToken */\n      dup1\n        /* \"contract/DltToken.sol\":3124:3129  allow */\n      0x05\n        /* \"contract/DltToken.sol\":3124:3137  allow[_owner] */\n      0x00\n        /* \"contract/DltToken.sol\":3130:3136  _owner */\n      dup6\n        /* \"contract/DltToken.sol\":3124:3137  allow[_owner] */\n      0xffffffffffffffffffffffffffffffffffffffff\n      and\n      0xffffffffffffffffffffffffffffffffffffffff\n      and\n      dup2\n      mstore\n      0x20\n      add\n      swap1\n      dup2\n      mstore\n      0x20\n      add\n      0x00\n      keccak256\n        /* \"contract/DltToken.sol\":3124:3149  allow[_owner][msg.sender] */\n      0x00\n        /* \"contract/DltToken.sol\":3138:3148  msg.sender */\n      caller\n        /* \"contract/DltToken.sol\":3124:3149  allow[_owner][msg.sender] */\n      0xffffffffffffffffffffffffffffffffffffffff\n      and\n      0xffffffffffffffffffffffffffffffffffffffff\n      and\n      dup2\n      mstore\n      0x20\n      add\n      swap1\n      dup2\n      mstore\n      0x20\n      add\n      0x00\n      keccak256\n      0x00\n        /* \"contract/DltToken.sol\":3124:3167  allow[_owner][msg.sender] -= _amountOfToken */\n      dup3\n      dup3\n      sload\n      tag_71\n      swap2\n      swap1\n      tag_70\n      jump\t// in\n    tag_71:\n      swap3\n      pop\n      pop\n      dup2\n      swap1\n      sstore\n      pop\n        /* \"contract/DltToken.sol\":3218:3232  _amountOfToken */\n      dup1\n        /* \"contract/DltToken.sol\":3199:3207  balances */\n      0x04\n        /* \"contract/DltToken.sol\":3199:3215  balances[_buyer] */\n      0x00\n        /* \"contract/DltToken.sol\":3208:3214  _buyer */\n      dup5\n        /* \"contract/DltToken.sol\":3199:3215  balances[_buyer] */\n      0xffffffffffffffffffffffffffffffffffffffff\n      and\n      0xffffffffffffffffffffffffffffffffffffffff\n      and\n      dup2\n      mstore\n      0x20\n      add\n      swap1\n      dup2\n      mstore\n      0x20\n      add\n      0x00\n      keccak256\n      sload\n        /* \"contract/DltToken.sol\":3199:3232  balances[_buyer] + _amountOfToken */\n      tag_72\n      swap2\n      swap1\n      tag_73\n      jump\t// in\n    tag_72:\n        /* \"contract/DltToken.sol\":3180:3188  balances */\n      0x04\n        /* \"contract/DltToken.sol\":3180:3196  balances[_buyer] */\n      0x00\n        /* \"contract/DltToken.sol\":3189:3195  _buyer */\n      dup5\n        /* \"contract/DltToken.sol\":3180:3196  balances[_buyer] */\n      0xffffffffffffffffffffffffffffffffffffffff\n      and\n      0xffffffffffffffffffffffffffffffffffffffff\n      and\n      dup2\n      mstore\n      0x20\n      add\n      swap1\n      dup2\n      mstore\n      0x20\n      add\n      0x00\n      keccak256\n        /* \"contract/DltToken.sol\":3180:3232  balances[_buyer] = balances[_buyer] + _amountOfToken */\n      dup2\n      swap1\n      sstore\n      pop\n        /* \"contract/DltToken.sol\":3246:3268  uint256 fivePercentage */\n      0x00\n        /* \"contract/DltToken.sol\":3271:3307  calculateFivePercent(_amountOfToken) */\n      tag_74\n        /* \"contract/DltToken.sol\":3292:3306  _amountOfToken */\n      dup3\n        /* \"contract/DltToken.sol\":3271:3291  calculateFivePercent */\n      tag_75\n        /* \"contract/DltToken.sol\":3271:3307  calculateFivePercent(_amountOfToken) */\n      jump\t// in\n    tag_74:\n        /* \"contract/DltToken.sol\":3246:3307  uint256 fivePercentage = calculateFivePercent(_amountOfToken) */\n      swap1\n      pop\n        /* \"contract/DltToken.sol\":3348:3362  fivePercentage */\n      dup1\n        /* \"contract/DltToken.sol\":3334:3345  totalSupply */\n      sload(0x02)\n        /* \"contract/DltToken.sol\":3334:3362  totalSupply - fivePercentage */\n      tag_76\n      swap2\n      swap1\n      tag_70\n      jump\t// in\n    tag_76:\n        /* \"contract/DltToken.sol\":3320:3331  totalSupply */\n      0x02\n        /* \"contract/DltToken.sol\":3320:3362  totalSupply = totalSupply - fivePercentage */\n      dup2\n      swap1\n      sstore\n      pop\n        /* \"contract/DltToken.sol\":3375:3403  burn(_owner, fivePercentage) */\n      tag_77\n        /* \"contract/DltToken.sol\":3380:3386  _owner */\n      dup5\n        /* \"contract/DltToken.sol\":3388:3402  fivePercentage */\n      dup3\n        /* \"contract/DltToken.sol\":3375:3379  burn */\n      tag_78\n        /* \"contract/DltToken.sol\":3375:3403  burn(_owner, fivePercentage) */\n      jump\t// in\n    tag_77:\n        /* \"contract/DltToken.sol\":3438:3444  _buyer */\n      dup3\n        /* \"contract/DltToken.sol\":3421:3461  Transfer(_owner, _buyer, _amountOfToken) */\n      0xffffffffffffffffffffffffffffffffffffffff\n      and\n        /* \"contract/DltToken.sol\":3430:3436  _owner */\n      dup5\n        /* \"contract/DltToken.sol\":3421:3461  Transfer(_owner, _buyer, _amountOfToken) */\n      0xffffffffffffffffffffffffffffffffffffffff\n      and\n      0xddf252ad1be2c89b69c2b068fc378daa952ba7f163c4a11628f55a4df523b3ef\n        /* \"contract/DltToken.sol\":3446:3460  _amountOfToken */\n      dup5\n        /* \"contract/DltToken.sol\":3421:3461  Transfer(_owner, _buyer, _amountOfToken) */\n      mload(0x40)\n      tag_79\n      swap2\n      swap1\n      tag_30\n      jump\t// in\n    tag_79:\n      mload(0x40)\n      dup1\n      swap2\n      sub\n      swap1\n      log3\n        /* \"contract/DltToken.sol\":2771:3469  {... */\n      pop\n        /* \"contract/DltToken.sol\":2684:3469  function transferFrom(address _owner, address _buyer, uint256 _amountOfToken) external {... */\n      pop\n      pop\n      pop\n      jump\t// out\n        /* \"contract/DltToken.sol\":1499:1611  function balanceOf(address _address) external view returns (uint256){... */\n    tag_28:\n        /* \"contract/DltToken.sol\":1559:1566  uint256 */\n      0x00\n        /* \"contract/DltToken.sol\":1585:1593  balances */\n      0x04\n        /* \"contract/DltToken.sol\":1585:1603  balances[_address] */\n      0x00\n        /* \"contract/DltToken.sol\":1594:1602  _address */\n      dup4\n        /* \"contract/DltToken.sol\":1585:1603  balances[_address] */\n      0xffffffffffffffffffffffffffffffffffffffff\n      and\n      0xffffffffffffffffffffffffffffffffffffffff\n      and\n      dup2\n      mstore\n      0x20\n      add\n      swap1\n      dup2\n      mstore\n      0x20\n      add\n      0x00\n      keccak256\n      sload\n        /* \"contract/DltToken.sol\":1578:1603  return balances[_address] */\n      swap1\n      pop\n        /* \"contract/DltToken.sol\":1499:1611  function balanceOf(address _address) external view returns (uint256){... */\n      swap2\n      swap1\n      pop\n      jump\t// out\n        /* \"contract/DltToken.sol\":1395:1470  function decimal() external pure returns(uint8){... */\n    tag_32:\n        /* \"contract/DltToken.sol\":1436:1441  uint8 */\n      0x00\n        /* \"contract/DltToken.sol\":1460:1462  18 */\n      0x12\n        /* \"contract/DltToken.sol\":1453:1462  return 18 */\n      swap1\n      pop\n        /* \"contract/DltToken.sol\":1395:1470  function decimal() external pure returns(uint8){... */\n      swap1\n      jump\t// out\n        /* \"contract/DltToken.sol\":907:1003  function getTokenName() external view returns (string memory){... */\n    tag_36:\n        /* \"contract/DltToken.sol\":954:967  string memory */\n      0x60\n        /* \"contract/DltToken.sol\":986:995  tokenName */\n      0x00\n        /* \"contract/DltToken.sol\":979:995  return tokenName */\n      dup1\n      sload\n      tag_83\n      swap1\n      tag_56\n      jump\t// in\n    tag_83:\n      dup1\n      0x1f\n      add\n      0x20\n      dup1\n      swap2\n      div\n      mul\n      0x20\n      add\n      mload(0x40)\n      swap1\n      dup2\n      add\n      0x40\n      mstore\n      dup1\n      swap3\n      swap2\n      swap1\n      dup2\n      dup2\n      mstore\n      0x20\n      add\n      dup3\n      dup1\n      sload\n      tag_84\n      swap1\n      tag_56\n      jump\t// in\n    tag_84:\n      dup1\n      iszero\n      tag_85\n      jumpi\n      dup1\n      0x1f\n      lt\n      tag_86\n      jumpi\n      0x0100\n      dup1\n      dup4\n      sload\n      div\n      mul\n      dup4\n      mstore\n      swap2\n      0x20\n      add\n      swap2\n      jump(tag_85)\n    tag_86:\n      dup3\n      add\n      swap2\n      swap1\n      0x00\n      mstore\n      keccak256(0x00, 0x20)\n      swap1\n    tag_87:\n      dup2\n      sload\n      dup2\n      mstore\n      swap1\n      0x01\n      add\n      swap1\n      0x20\n      add\n      dup1\n      dup4\n      gt\n      tag_87\n      jumpi\n      dup3\n      swap1\n      sub\n      0x1f\n      and\n      dup3\n      add\n      swap2\n    tag_85:\n      pop\n      pop\n      pop\n      pop\n      pop\n      swap1\n      pop\n        /* \"contract/DltToken.sol\":907:1003  function getTokenName() external view returns (string memory){... */\n      swap1\n      jump\t// out\n        /* \"contract/DltToken.sol\":1619:2243  function transfer(address _reciever, uint256 _amountOfToken) external  {... */\n    tag_40:\n        /* \"contract/DltToken.sol\":1730:1731  0 */\n      0x00\n        /* \"contract/DltToken.sol\":1709:1732  _reciever != address(0) */\n      0xffffffffffffffffffffffffffffffffffffffff\n      and\n        /* \"contract/DltToken.sol\":1709:1718  _reciever */\n      dup3\n        /* \"contract/DltToken.sol\":1709:1732  _reciever != address(0) */\n      0xffffffffffffffffffffffffffffffffffffffff\n      and\n      sub\n        /* \"contract/DltToken.sol\":1701:1759  require(_reciever != address(0), \"Address is not allowed\") */\n      tag_89\n      jumpi\n      mload(0x40)\n      0x08c379a000000000000000000000000000000000000000000000000000000000\n      dup2\n      mstore\n      0x04\n      add\n      tag_90\n      swap1\n      tag_64\n      jump\t// in\n    tag_90:\n      mload(0x40)\n      dup1\n      swap2\n      sub\n      swap1\n      revert\n    tag_89:\n        /* \"contract/DltToken.sol\":1798:1806  balances */\n      0x04\n        /* \"contract/DltToken.sol\":1798:1818  balances[msg.sender] */\n      0x00\n        /* \"contract/DltToken.sol\":1807:1817  msg.sender */\n      caller\n        /* \"contract/DltToken.sol\":1798:1818  balances[msg.sender] */\n      0xffffffffffffffffffffffffffffffffffffffff\n      and\n      0xffffffffffffffffffffffffffffffffffffffff\n      and\n      dup2\n      mstore\n      0x20\n      add\n      swap1\n      dup2\n      mstore\n      0x20\n      add\n      0x00\n      keccak256\n      sload\n        /* \"contract/DltToken.sol\":1780:1794  _amountOfToken */\n      dup2\n        /* \"contract/DltToken.sol\":1780:1818  _amountOfToken <= balances[msg.sender] */\n      gt\n      iszero\n        /* \"contract/DltToken.sol\":1772:1865  require(_amountOfToken <= balances[msg.sender], \"You can't take more than what is avaliable\") */\n      tag_91\n      jumpi\n      mload(0x40)\n      0x08c379a000000000000000000000000000000000000000000000000000000000\n      dup2\n      mstore\n      0x04\n      add\n      tag_92\n      swap1\n      tag_93\n      jump\t// in\n    tag_92:\n      mload(0x40)\n      dup1\n      swap2\n      sub\n      swap1\n      revert\n    tag_91:\n        /* \"contract/DltToken.sol\":1903:1917  _amountOfToken */\n      dup1\n        /* \"contract/DltToken.sol\":1878:1886  balances */\n      0x04\n        /* \"contract/DltToken.sol\":1878:1898  balances[msg.sender] */\n      0x00\n        /* \"contract/DltToken.sol\":1887:1897  msg.sender */\n      caller\n        /* \"contract/DltToken.sol\":1878:1898  balances[msg.sender] */\n      0xffffffffffffffffffffffffffffffffffffffff\n      and\n      0xffffffffffffffffffffffffffffffffffffffff\n      and\n      dup2\n      mstore\n      0x20\n      add\n      swap1\n      dup2\n      mstore\n      0x20\n      add\n      0x00\n      keccak256\n      0x00\n        /* \"contract/DltToken.sol\":1878:1917  balances[msg.sender] -=  _amountOfToken */\n      dup3\n      dup3\n      sload\n      tag_94\n      swap2\n      swap1\n      tag_70\n      jump\t// in\n    tag_94:\n      swap3\n      pop\n      pop\n      dup2\n      swap1\n      sstore\n      pop\n        /* \"contract/DltToken.sol\":1974:1988  _amountOfToken */\n      dup1\n        /* \"contract/DltToken.sol\":1952:1960  balances */\n      0x04\n        /* \"contract/DltToken.sol\":1952:1971  balances[_reciever] */\n      0x00\n        /* \"contract/DltToken.sol\":1961:1970  _reciever */\n      dup5\n        /* \"contract/DltToken.sol\":1952:1971  balances[_reciever] */\n      0xffffffffffffffffffffffffffffffffffffffff\n      and\n      0xffffffffffffffffffffffffffffffffffffffff\n      and\n      dup2\n      mstore\n      0x20\n      add\n      swap1\n      dup2\n      mstore\n      0x20\n      add\n      0x00\n      keccak256\n      sload\n        /* \"contract/DltToken.sol\":1952:1988  balances[_reciever] + _amountOfToken */\n      tag_95\n      swap2\n      swap1\n      tag_73\n      jump\t// in\n    tag_95:\n        /* \"contract/DltToken.sol\":1930:1938  balances */\n      0x04\n        /* \"contract/DltToken.sol\":1930:1949  balances[_reciever] */\n      0x00\n        /* \"contract/DltToken.sol\":1939:1948  _reciever */\n      dup5\n        /* \"contract/DltToken.sol\":1930:1949  balances[_reciever] */\n      0xffffffffffffffffffffffffffffffffffffffff\n      and\n      0xffffffffffffffffffffffffffffffffffffffff\n      and\n      dup2\n      mstore\n      0x20\n      add\n      swap1\n      dup2\n      mstore\n      0x20\n      add\n      0x00\n      keccak256\n        /* \"contract/DltToken.sol\":1930:1988  balances[_reciever] = balances[_reciever] + _amountOfToken */\n      dup2\n      swap1\n      sstore\n      pop\n        /* \"contract/DltToken.sol\":2001:2023  uint256 fivePercentage */\n      0x00\n        /* \"contract/DltToken.sol\":2026:2062  calculateFivePercent(_amountOfToken) */\n      tag_96\n        /* \"contract/DltToken.sol\":2047:2061  _amountOfToken */\n      dup3\n        /* \"contract/DltToken.sol\":2026:2046  calculateFivePercent */\n      tag_75\n        /* \"contract/DltToken.sol\":2026:2062  calculateFivePercent(_amountOfToken) */\n      jump\t// in\n    tag_96:\n        /* \"contract/DltToken.sol\":2001:2062  uint256 fivePercentage = calculateFivePercent(_amountOfToken) */\n      swap1\n      pop\n        /* \"contract/DltToken.sol\":2103:2117  fivePercentage */\n      dup1\n        /* \"contract/DltToken.sol\":2089:2100  totalSupply */\n      sload(0x02)\n        /* \"contract/DltToken.sol\":2089:2117  totalSupply - fivePercentage */\n      tag_97\n      swap2\n      swap1\n      tag_70\n      jump\t// in\n    tag_97:\n        /* \"contract/DltToken.sol\":2075:2086  totalSupply */\n      0x02\n        /* \"contract/DltToken.sol\":2075:2117  totalSupply = totalSupply - fivePercentage */\n      dup2\n      swap1\n      sstore\n      pop\n        /* \"contract/DltToken.sol\":2130:2162  burn(msg.sender, fivePercentage) */\n      tag_98\n        /* \"contract/DltToken.sol\":2135:2145  msg.sender */\n      caller\n        /* \"contract/DltToken.sol\":2147:2161  fivePercentage */\n      dup3\n        /* \"contract/DltToken.sol\":2130:2134  burn */\n      tag_78\n        /* \"contract/DltToken.sol\":2130:2162  burn(msg.sender, fivePercentage) */\n      jump\t// in\n    tag_98:\n        /* \"contract/DltToken.sol\":2209:2218  _reciever */\n      dup3\n        /* \"contract/DltToken.sol\":2188:2235  Transfer(msg.sender, _reciever, _amountOfToken) */\n      0xffffffffffffffffffffffffffffffffffffffff\n      and\n        /* \"contract/DltToken.sol\":2197:2207  msg.sender */\n      caller\n        /* \"contract/DltToken.sol\":2188:2235  Transfer(msg.sender, _reciever, _amountOfToken) */\n      0xffffffffffffffffffffffffffffffffffffffff\n      and\n      0xddf252ad1be2c89b69c2b068fc378daa952ba7f163c4a11628f55a4df523b3ef\n        /* \"contract/DltToken.sol\":2220:2234  _amountOfToken */\n      dup5\n        /* \"contract/DltToken.sol\":2188:2235  Transfer(msg.sender, _reciever, _amountOfToken) */\n      mload(0x40)\n      tag_99\n      swap2\n      swap1\n      tag_30\n      jump\t// in\n    tag_99:\n      mload(0x40)\n      dup1\n      swap2\n      sub\n      swap1\n      log3\n        /* \"contract/DltToken.sol\":1690:2243  {... */\n      pop\n        /* \"contract/DltToken.sol\":1619:2243  function transfer(address _reciever, uint256 _amountOfToken) external  {... */\n      pop\n      pop\n      jump\t// out\n        /* \"contract/DltToken.sol\":1293:1387  function getTotalSupply() external view returns (uint256){... */\n    tag_42:\n        /* \"contract/DltToken.sol\":1342:1349  uint256 */\n      0x00\n        /* \"contract/DltToken.sol\":1368:1379  totalSupply */\n      sload(0x02)\n        /* \"contract/DltToken.sol\":1361:1379  return totalSupply */\n      swap1\n      pop\n        /* \"contract/DltToken.sol\":1293:1387  function getTotalSupply() external view returns (uint256){... */\n      swap1\n      jump\t// out\n        /* \"contract/DltToken.sol\":2543:2676  function allowance(address _owner, address _delegate) external view returns (uint) {... */\n    tag_47:\n        /* \"contract/DltToken.sol\":2620:2624  uint */\n      0x00\n        /* \"contract/DltToken.sol\":2644:2649  allow */\n      0x05\n        /* \"contract/DltToken.sol\":2644:2657  allow[_owner] */\n      0x00\n        /* \"contract/DltToken.sol\":2650:2656  _owner */\n      dup5\n        /* \"contract/DltToken.sol\":2644:2657  allow[_owner] */\n      0xffffffffffffffffffffffffffffffffffffffff\n      and\n      0xffffffffffffffffffffffffffffffffffffffff\n      and\n      dup2\n      mstore\n      0x20\n      add\n      swap1\n      dup2\n      mstore\n      0x20\n      add\n      0x00\n      keccak256\n        /* \"contract/DltToken.sol\":2644:2668  allow[_owner][_delegate] */\n      0x00\n        /* \"contract/DltToken.sol\":2658:2667  _delegate */\n      dup4\n        /* \"contract/DltToken.sol\":2644:2668  allow[_owner][_delegate] */\n      0xffffffffffffffffffffffffffffffffffffffff\n      and\n      0xffffffffffffffffffffffffffffffffffffffff\n      and\n      dup2\n      mstore\n      0x20\n      add\n      swap1\n      dup2\n      mstore\n      0x20\n      add\n      0x00\n      keccak256\n      sload\n        /* \"contract/DltToken.sol\":2637:2668  return allow[_owner][_delegate] */\n      swap1\n      pop\n        /* \"contract/DltToken.sol\":2543:2676  function allowance(address _owner, address _delegate) external view returns (uint) {... */\n      swap3\n      swap2\n      pop\n      pop\n      jump\t// out\n        /* \"contract/DltToken.sol\":1122:1281  function calculateFivePercent(uint256 _amount)  internal pure  returns(uint256 fivePercentage ) {... */\n    tag_75:\n        /* \"contract/DltToken.sol\":1193:1215  uint256 fivePercentage */\n      0x00\n        /* \"contract/DltToken.sol\":1264:1267  100 */\n      0x64\n        /* \"contract/DltToken.sol\":1259:1260  5 */\n      0x05\n        /* \"contract/DltToken.sol\":1249:1256  _amount */\n      dup4\n        /* \"contract/DltToken.sol\":1249:1260  _amount * 5 */\n      tag_103\n      swap2\n      swap1\n      tag_104\n      jump\t// in\n    tag_103:\n        /* \"contract/DltToken.sol\":1248:1267  (_amount * 5) / 100 */\n      tag_105\n      swap2\n      swap1\n      tag_106\n      jump\t// in\n    tag_105:\n        /* \"contract/DltToken.sol\":1231:1267  fivePercentage = (_amount * 5) / 100 */\n      swap1\n      pop\n        /* \"contract/DltToken.sol\":1122:1281  function calculateFivePercent(uint256 _amount)  internal pure  returns(uint256 fivePercentage ) {... */\n      swap2\n      swap1\n      pop\n      jump\t// out\n        /* \"contract/DltToken.sol\":3477:3705  function burn(address _address, uint256 _amount) internal{... */\n    tag_78:\n        /* \"contract/DltToken.sol\":3587:3594  _amount */\n      dup1\n        /* \"contract/DltToken.sol\":3566:3574  balances */\n      0x04\n        /* \"contract/DltToken.sol\":3566:3584  balances[_address] */\n      0x00\n        /* \"contract/DltToken.sol\":3575:3583  _address */\n      dup5\n        /* \"contract/DltToken.sol\":3566:3584  balances[_address] */\n      0xffffffffffffffffffffffffffffffffffffffff\n      and\n      0xffffffffffffffffffffffffffffffffffffffff\n      and\n      dup2\n      mstore\n      0x20\n      add\n      swap1\n      dup2\n      mstore\n      0x20\n      add\n      0x00\n      keccak256\n      sload\n        /* \"contract/DltToken.sol\":3566:3594  balances[_address] - _amount */\n      tag_108\n      swap2\n      swap1\n      tag_70\n      jump\t// in\n    tag_108:\n        /* \"contract/DltToken.sol\":3545:3553  balances */\n      0x04\n        /* \"contract/DltToken.sol\":3545:3563  balances[_address] */\n      0x00\n        /* \"contract/DltToken.sol\":3554:3562  _address */\n      dup5\n        /* \"contract/DltToken.sol\":3545:3563  balances[_address] */\n      0xffffffffffffffffffffffffffffffffffffffff\n      and\n      0xffffffffffffffffffffffffffffffffffffffff\n      and\n      dup2\n      mstore\n      0x20\n      add\n      swap1\n      dup2\n      mstore\n      0x20\n      add\n      0x00\n      keccak256\n        /* \"contract/DltToken.sol\":3545:3594  balances[_address] = balances[_address] - _amount */\n      dup2\n      swap1\n      sstore\n      pop\n        /* \"contract/DltToken.sol\":3633:3640  _amount */\n      dup1\n        /* \"contract/DltToken.sol\":3619:3630  totalSupply */\n      sload(0x02)\n        /* \"contract/DltToken.sol\":3619:3640  totalSupply - _amount */\n      tag_109\n      swap2\n      swap1\n      tag_70\n      jump\t// in\n    tag_109:\n        /* \"contract/DltToken.sol\":3605:3616  totalSupply */\n      0x02\n        /* \"contract/DltToken.sol\":3605:3640  totalSupply = totalSupply - _amount */\n      dup2\n      swap1\n      sstore\n      pop\n        /* \"contract/DltToken.sol\":3685:3686  0 */\n      0x00\n        /* \"contract/DltToken.sol\":3658:3697  Transfer(_address, address(0), _amount) */\n      0xffffffffffffffffffffffffffffffffffffffff\n      and\n        /* \"contract/DltToken.sol\":3667:3675  _address */\n      dup3\n        /* \"contract/DltToken.sol\":3658:3697  Transfer(_address, address(0), _amount) */\n      0xffffffffffffffffffffffffffffffffffffffff\n      and\n      0xddf252ad1be2c89b69c2b068fc378daa952ba7f163c4a11628f55a4df523b3ef\n        /* \"contract/DltToken.sol\":3689:3696  _amount */\n      dup4\n        /* \"contract/DltToken.sol\":3658:3697  Transfer(_address, address(0), _amount) */\n      mload(0x40)\n      tag_110\n      swap2\n      swap1\n      tag_30\n      jump\t// in\n    tag_110:\n      mload(0x40)\n      dup1\n      swap2\n      sub\n      swap1\n      log3\n        /* \"contract/DltToken.sol\":3477:3705  function burn(address _address, uint256 _amount) internal{... */\n      pop\n      pop\n      jump\t// out\n        /* \"#utility.yul\":88:205   */\n    tag_112:\n        /* \"#utility.yul\":197:198   */\n      0x00\n        /* \"#utility.yul\":194:195   */\n      0x00\n        /* \"#utility.yul\":187:199   */\n      revert\n        /* \"#utility.yul\":334:460   */\n    tag_114:\n        /* \"#utility.yul\":371:378   */\n      0x00\n        /* \"#utility.yul\":411:453   */\n      0xffffffffffffffffffffffffffffffffffffffff\n        /* \"#utility.yul\":404:409   */\n      dup3\n        /* \"#utility.yul\":400:454   */\n      and\n        /* \"#utility.yul\":389:454   */\n      swap1\n      pop\n        /* \"#utility.yul\":334:460   */\n      swap2\n      swap1\n      pop\n      jump\t// out\n        /* \"#utility.yul\":466:562   */\n    tag_115:\n        /* \"#utility.yul\":503:510   */\n      0x00\n        /* \"#utility.yul\":532:556   */\n      tag_144\n        /* \"#utility.yul\":550:555   */\n      dup3\n        /* \"#utility.yul\":532:556   */\n      tag_114\n      jump\t// in\n    tag_144:\n        /* \"#utility.yul\":521:556   */\n      swap1\n      pop\n        /* \"#utility.yul\":466:562   */\n      swap2\n      swap1\n      pop\n      jump\t// out\n        /* \"#utility.yul\":568:690   */\n    tag_116:\n        /* \"#utility.yul\":641:665   */\n      tag_146\n        /* \"#utility.yul\":659:664   */\n      dup2\n        /* \"#utility.yul\":641:665   */\n      tag_115\n      jump\t// in\n    tag_146:\n        /* \"#utility.yul\":634:639   */\n      dup2\n        /* \"#utility.yul\":631:666   */\n      eq\n        /* \"#utility.yul\":621:684   */\n      tag_147\n      jumpi\n        /* \"#utility.yul\":680:681   */\n      0x00\n        /* \"#utility.yul\":677:678   */\n      0x00\n        /* \"#utility.yul\":670:682   */\n      revert\n        /* \"#utility.yul\":621:684   */\n    tag_147:\n        /* \"#utility.yul\":568:690   */\n      pop\n      jump\t// out\n        /* \"#utility.yul\":696:835   */\n    tag_117:\n        /* \"#utility.yul\":742:747   */\n      0x00\n        /* \"#utility.yul\":780:786   */\n      dup2\n        /* \"#utility.yul\":767:787   */\n      calldataload\n        /* \"#utility.yul\":758:787   */\n      swap1\n      pop\n        /* \"#utility.yul\":796:829   */\n      tag_149\n        /* \"#utility.yul\":823:828   */\n      dup2\n        /* \"#utility.yul\":796:829   */\n      tag_116\n      jump\t// in\n    tag_149:\n        /* \"#utility.yul\":696:835   */\n      swap3\n      swap2\n      pop\n      pop\n      jump\t// out\n        /* \"#utility.yul\":841:918   */\n    tag_118:\n        /* \"#utility.yul\":878:885   */\n      0x00\n        /* \"#utility.yul\":907:912   */\n      dup2\n        /* \"#utility.yul\":896:912   */\n      swap1\n      pop\n        /* \"#utility.yul\":841:918   */\n      swap2\n      swap1\n      pop\n      jump\t// out\n        /* \"#utility.yul\":924:1046   */\n    tag_119:\n        /* \"#utility.yul\":997:1021   */\n      tag_152\n        /* \"#utility.yul\":1015:1020   */\n      dup2\n        /* \"#utility.yul\":997:1021   */\n      tag_118\n      jump\t// in\n    tag_152:\n        /* \"#utility.yul\":990:995   */\n      dup2\n        /* \"#utility.yul\":987:1022   */\n      eq\n        /* \"#utility.yul\":977:1040   */\n      tag_153\n      jumpi\n        /* \"#utility.yul\":1036:1037   */\n      0x00\n        /* \"#utility.yul\":1033:1034   */\n      0x00\n        /* \"#utility.yul\":1026:1038   */\n      revert\n        /* \"#utility.yul\":977:1040   */\n    tag_153:\n        /* \"#utility.yul\":924:1046   */\n      pop\n      jump\t// out\n        /* \"#utility.yul\":1052:1191   */\n    tag_120:\n        /* \"#utility.yul\":1098:1103   */\n      0x00\n        /* \"#utility.yul\":1136:1142   */\n      dup2\n        /* \"#utility.yul\":1123:1143   */\n      calldataload\n        /* \"#utility.yul\":1114:1143   */\n      swap1\n      pop\n        /* \"#utility.yul\":1152:1185   */\n      tag_155\n        /* \"#utility.yul\":1179:1184   */\n      dup2\n        /* \"#utility.yul\":1152:1185   */\n      tag_119\n      jump\t// in\n    tag_155:\n        /* \"#utility.yul\":1052:1191   */\n      swap3\n      swap2\n      pop\n      pop\n      jump\t// out\n        /* \"#utility.yul\":1197:1671   */\n    tag_15:\n        /* \"#utility.yul\":1265:1271   */\n      0x00\n        /* \"#utility.yul\":1273:1279   */\n      0x00\n        /* \"#utility.yul\":1322:1324   */\n      0x40\n        /* \"#utility.yul\":1310:1319   */\n      dup4\n        /* \"#utility.yul\":1301:1308   */\n      dup6\n        /* \"#utility.yul\":1297:1320   */\n      sub\n        /* \"#utility.yul\":1293:1325   */\n      slt\n        /* \"#utility.yul\":1290:1409   */\n      iszero\n      tag_157\n      jumpi\n        /* \"#utility.yul\":1328:1407   */\n      tag_158\n      tag_112\n      jump\t// in\n    tag_158:\n        /* \"#utility.yul\":1290:1409   */\n    tag_157:\n        /* \"#utility.yul\":1448:1449   */\n      0x00\n        /* \"#utility.yul\":1473:1526   */\n      tag_159\n        /* \"#utility.yul\":1518:1525   */\n      dup6\n        /* \"#utility.yul\":1509:1515   */\n      dup3\n        /* \"#utility.yul\":1498:1507   */\n      dup7\n        /* \"#utility.yul\":1494:1516   */\n      add\n        /* \"#utility.yul\":1473:1526   */\n      tag_117\n      jump\t// in\n    tag_159:\n        /* \"#utility.yul\":1463:1526   */\n      swap3\n      pop\n        /* \"#utility.yul\":1419:1536   */\n      pop\n        /* \"#utility.yul\":1575:1577   */\n      0x20\n        /* \"#utility.yul\":1601:1654   */\n      tag_160\n        /* \"#utility.yul\":1646:1653   */\n      dup6\n        /* \"#utility.yul\":1637:1643   */\n      dup3\n        /* \"#utility.yul\":1626:1635   */\n      dup7\n        /* \"#utility.yul\":1622:1644   */\n      add\n        /* \"#utility.yul\":1601:1654   */\n      tag_120\n      jump\t// in\n    tag_160:\n        /* \"#utility.yul\":1591:1654   */\n      swap2\n      pop\n        /* \"#utility.yul\":1546:1664   */\n      pop\n        /* \"#utility.yul\":1197:1671   */\n      swap3\n      pop\n      swap3\n      swap1\n      pop\n      jump\t// out\n        /* \"#utility.yul\":1677:1776   */\n    tag_121:\n        /* \"#utility.yul\":1729:1735   */\n      0x00\n        /* \"#utility.yul\":1763:1768   */\n      dup2\n        /* \"#utility.yul\":1757:1769   */\n      mload\n        /* \"#utility.yul\":1747:1769   */\n      swap1\n      pop\n        /* \"#utility.yul\":1677:1776   */\n      swap2\n      swap1\n      pop\n      jump\t// out\n        /* \"#utility.yul\":1782:1951   */\n    tag_122:\n        /* \"#utility.yul\":1866:1877   */\n      0x00\n        /* \"#utility.yul\":1900:1906   */\n      dup3\n        /* \"#utility.yul\":1895:1898   */\n      dup3\n        /* \"#utility.yul\":1888:1907   */\n      mstore\n        /* \"#utility.yul\":1940:1944   */\n      0x20\n        /* \"#utility.yul\":1935:1938   */\n      dup3\n        /* \"#utility.yul\":1931:1945   */\n      add\n        /* \"#utility.yul\":1916:1945   */\n      swap1\n      pop\n        /* \"#utility.yul\":1782:1951   */\n      swap3\n      swap2\n      pop\n      pop\n      jump\t// out\n        /* \"#utility.yul\":1957:2096   */\n    tag_123:\n        /* \"#utility.yul\":2046:2052   */\n      dup3\n        /* \"#utility.yul\":2041:2044   */\n      dup2\n        /* \"#utility.yul\":2036:2039   */\n      dup4\n        /* \"#utility.yul\":2030:2053   */\n      mcopy\n        /* \"#utility.yul\":2087:2088   */\n      0x00\n        /* \"#utility.yul\":2078:2084   */\n      dup4\n        /* \"#utility.yul\":2073:2076   */\n      dup4\n        /* \"#utility.yul\":2069:2085   */\n      add\n        /* \"#utility.yul\":2062:2089   */\n      mstore\n        /* \"#utility.yul\":1957:2096   */\n      pop\n      pop\n      pop\n      jump\t// out\n        /* \"#utility.yul\":2102:2204   */\n    tag_124:\n        /* \"#utility.yul\":2143:2149   */\n      0x00\n        /* \"#utility.yul\":2194:2196   */\n      0x1f\n        /* \"#utility.yul\":2190:2197   */\n      not\n        /* \"#utility.yul\":2185:2187   */\n      0x1f\n        /* \"#utility.yul\":2178:2183   */\n      dup4\n        /* \"#utility.yul\":2174:2188   */\n      add\n        /* \"#utility.yul\":2170:2198   */\n      and\n        /* \"#utility.yul\":2160:2198   */\n      swap1\n      pop\n        /* \"#utility.yul\":2102:2204   */\n      swap2\n      swap1\n      pop\n      jump\t// out\n        /* \"#utility.yul\":2210:2587   */\n    tag_125:\n        /* \"#utility.yul\":2298:2301   */\n      0x00\n        /* \"#utility.yul\":2326:2365   */\n      tag_166\n        /* \"#utility.yul\":2359:2364   */\n      dup3\n        /* \"#utility.yul\":2326:2365   */\n      tag_121\n      jump\t// in\n    tag_166:\n        /* \"#utility.yul\":2381:2452   */\n      tag_167\n        /* \"#utility.yul\":2445:2451   */\n      dup2\n        /* \"#utility.yul\":2440:2443   */\n      dup6\n        /* \"#utility.yul\":2381:2452   */\n      tag_122\n      jump\t// in\n    tag_167:\n        /* \"#utility.yul\":2374:2452   */\n      swap4\n      pop\n        /* \"#utility.yul\":2461:2526   */\n      tag_168\n        /* \"#utility.yul\":2519:2525   */\n      dup2\n        /* \"#utility.yul\":2514:2517   */\n      dup6\n        /* \"#utility.yul\":2507:2511   */\n      0x20\n        /* \"#utility.yul\":2500:2505   */\n      dup7\n        /* \"#utility.yul\":2496:2512   */\n      add\n        /* \"#utility.yul\":2461:2526   */\n      tag_123\n      jump\t// in\n    tag_168:\n        /* \"#utility.yul\":2551:2580   */\n      tag_169\n        /* \"#utility.yul\":2573:2579   */\n      dup2\n        /* \"#utility.yul\":2551:2580   */\n      tag_124\n      jump\t// in\n    tag_169:\n        /* \"#utility.yul\":2546:2549   */\n      dup5\n        /* \"#utility.yul\":2542:2581   */\n      add\n        /* \"#utility.yul\":2535:2581   */\n      swap2\n      pop\n        /* \"#utility.yul\":2302:2587   */\n      pop\n        /* \"#utility.yul\":2210:2587   */\n      swap3\n      swap2\n      pop\n      pop\n      jump\t// out\n        /* \"#utility.yul\":2593:2906   */\n    tag_20:\n        /* \"#utility.yul\":2706:2710   */\n      0x00\n        /* \"#utility.yul\":2744:2746   */\n      0x20\n        /* \"#utility.yul\":2733:2742   */\n      dup3\n        /* \"#utility.yul\":2729:2747   */\n      add\n        /* \"#utility.yul\":2721:2747   */\n      swap1\n      pop\n        /* \"#utility.yul\":2793:2802   */\n      dup2\n        /* \"#utility.yul\":2787:2791   */\n      dup2\n        /* \"#utility.yul\":2783:2803   */\n      sub\n        /* \"#utility.yul\":2779:2780   */\n      0x00\n        /* \"#utility.yul\":2768:2777   */\n      dup4\n        /* \"#utility.yul\":2764:2781   */\n      add\n        /* \"#utility.yul\":2757:2804   */\n      mstore\n        /* \"#utility.yul\":2821:2899   */\n      tag_171\n        /* \"#utility.yul\":2894:2898   */\n      dup2\n        /* \"#utility.yul\":2885:2891   */\n      dup5\n        /* \"#utility.yul\":2821:2899   */\n      tag_125\n      jump\t// in\n    tag_171:\n        /* \"#utility.yul\":2813:2899   */\n      swap1\n      pop\n        /* \"#utility.yul\":2593:2906   */\n      swap3\n      swap2\n      pop\n      pop\n      jump\t// out\n        /* \"#utility.yul\":2912:3531   */\n    tag_23:\n        /* \"#utility.yul\":2989:2995   */\n      0x00\n        /* \"#utility.yul\":2997:3003   */\n      0x00\n        /* \"#utility.yul\":3005:3011   */\n      0x00\n        /* \"#utility.yul\":3054:3056   */\n      0x60\n        /* \"#utility.yul\":3042:3051   */\n      dup5\n        /* \"#utility.yul\":3033:3040   */\n      dup7\n        /* \"#utility.yul\":3029:3052   */\n      sub\n        /* \"#utility.yul\":3025:3057   */\n      slt\n        /* \"#utility.yul\":3022:3141   */\n      iszero\n      tag_173\n      jumpi\n        /* \"#utility.yul\":3060:3139   */\n      tag_174\n      tag_112\n      jump\t// in\n    tag_174:\n        /* \"#utility.yul\":3022:3141   */\n    tag_173:\n        /* \"#utility.yul\":3180:3181   */\n      0x00\n        /* \"#utility.yul\":3205:3258   */\n      tag_175\n        /* \"#utility.yul\":3250:3257   */\n      dup7\n        /* \"#utility.yul\":3241:3247   */\n      dup3\n        /* \"#utility.yul\":3230:3239   */\n      dup8\n        /* \"#utility.yul\":3226:3248   */\n      add\n        /* \"#utility.yul\":3205:3258   */\n      tag_117\n      jump\t// in\n    tag_175:\n        /* \"#utility.yul\":3195:3258   */\n      swap4\n      pop\n        /* \"#utility.yul\":3151:3268   */\n      pop\n        /* \"#utility.yul\":3307:3309   */\n      0x20\n        /* \"#utility.yul\":3333:3386   */\n      tag_176\n        /* \"#utility.yul\":3378:3385   */\n      dup7\n        /* \"#utility.yul\":3369:3375   */\n      dup3\n        /* \"#utility.yul\":3358:3367   */\n      dup8\n        /* \"#utility.yul\":3354:3376   */\n      add\n        /* \"#utility.yul\":3333:3386   */\n      tag_117\n      jump\t// in\n    tag_176:\n        /* \"#utility.yul\":3323:3386   */\n      swap3\n      pop\n        /* \"#utility.yul\":3278:3396   */\n      pop\n        /* \"#utility.yul\":3435:3437   */\n      0x40\n        /* \"#utility.yul\":3461:3514   */\n      tag_177\n        /* \"#utility.yul\":3506:3513   */\n      dup7\n        /* \"#utility.yul\":3497:3503   */\n      dup3\n        /* \"#utility.yul\":3486:3495   */\n      dup8\n        /* \"#utility.yul\":3482:3504   */\n      add\n        /* \"#utility.yul\":3461:3514   */\n      tag_120\n      jump\t// in\n    tag_177:\n        /* \"#utility.yul\":3451:3514   */\n      swap2\n      pop\n        /* \"#utility.yul\":3406:3524   */\n      pop\n        /* \"#utility.yul\":2912:3531   */\n      swap3\n      pop\n      swap3\n      pop\n      swap3\n      jump\t// out\n        /* \"#utility.yul\":3537:3866   */\n    tag_27:\n        /* \"#utility.yul\":3596:3602   */\n      0x00\n        /* \"#utility.yul\":3645:3647   */\n      0x20\n        /* \"#utility.yul\":3633:3642   */\n      dup3\n        /* \"#utility.yul\":3624:3631   */\n      dup5\n        /* \"#utility.yul\":3620:3643   */\n      sub\n        /* \"#utility.yul\":3616:3648   */\n      slt\n        /* \"#utility.yul\":3613:3732   */\n      iszero\n      tag_179\n      jumpi\n        /* \"#utility.yul\":3651:3730   */\n      tag_180\n      tag_112\n      jump\t// in\n    tag_180:\n        /* \"#utility.yul\":3613:3732   */\n    tag_179:\n        /* \"#utility.yul\":3771:3772   */\n      0x00\n        /* \"#utility.yul\":3796:3849   */\n      tag_181\n        /* \"#utility.yul\":3841:3848   */\n      dup5\n        /* \"#utility.yul\":3832:3838   */\n      dup3\n        /* \"#utility.yul\":3821:3830   */\n      dup6\n        /* \"#utility.yul\":3817:3839   */\n      add\n        /* \"#utility.yul\":3796:3849   */\n      tag_117\n      jump\t// in\n    tag_181:\n        /* \"#utility.yul\":3786:3849   */\n      swap2\n      pop\n        /* \"#utility.yul\":3742:3859   */\n      pop\n        /* \"#utility.yul\":3537:3866   */\n      swap3\n      swap2\n      pop\n      pop\n      jump\t// out\n        /* \"#utility.yul\":3872:3990   */\n    tag_126:\n        /* \"#utility.yul\":3959:3983   */\n      tag_183\n        /* \"#utility.yul\":3977:3982   */\n      dup2\n        /* \"#utility.yul\":3959:3983   */\n      tag_118\n      jump\t// in\n    tag_183:\n        /* \"#utility.yul\":3954:3957   */\n      dup3\n        /* \"#utility.yul\":3947:3984   */\n      mstore\n        /* \"#utility.yul\":3872:3990   */\n      pop\n      pop\n      jump\t// out\n        /* \"#utility.yul\":3996:4218   */\n    tag_30:\n        /* \"#utility.yul\":4089:4093   */\n      0x00\n        /* \"#utility.yul\":4127:4129   */\n      0x20\n        /* \"#utility.yul\":4116:4125   */\n      dup3\n        /* \"#utility.yul\":4112:4130   */\n      add\n        /* \"#utility.yul\":4104:4130   */\n      swap1\n      pop\n        /* \"#utility.yul\":4140:4211   */\n      tag_185\n        /* \"#utility.yul\":4208:4209   */\n      0x00\n        /* \"#utility.yul\":4197:4206   */\n      dup4\n        /* \"#utility.yul\":4193:4210   */\n      add\n        /* \"#utility.yul\":4184:4190   */\n      dup5\n        /* \"#utility.yul\":4140:4211   */\n      tag_126\n      jump\t// in\n    tag_185:\n        /* \"#utility.yul\":3996:4218   */\n      swap3\n      swap2\n      pop\n      pop\n      jump\t// out\n        /* \"#utility.yul\":4224:4310   */\n    tag_127:\n        /* \"#utility.yul\":4259:4266   */\n      0x00\n        /* \"#utility.yul\":4299:4303   */\n      0xff\n        /* \"#utility.yul\":4292:4297   */\n      dup3\n        /* \"#utility.yul\":4288:4304   */\n      and\n        /* \"#utility.yul\":4277:4304   */\n      swap1\n      pop\n        /* \"#utility.yul\":4224:4310   */\n      swap2\n      swap1\n      pop\n      jump\t// out\n        /* \"#utility.yul\":4316:4428   */\n    tag_128:\n        /* \"#utility.yul\":4399:4421   */\n      tag_188\n        /* \"#utility.yul\":4415:4420   */\n      dup2\n        /* \"#utility.yul\":4399:4421   */\n      tag_127\n      jump\t// in\n    tag_188:\n        /* \"#utility.yul\":4394:4397   */\n      dup3\n        /* \"#utility.yul\":4387:4422   */\n      mstore\n        /* \"#utility.yul\":4316:4428   */\n      pop\n      pop\n      jump\t// out\n        /* \"#utility.yul\":4434:4648   */\n    tag_34:\n        /* \"#utility.yul\":4523:4527   */\n      0x00\n        /* \"#utility.yul\":4561:4563   */\n      0x20\n        /* \"#utility.yul\":4550:4559   */\n      dup3\n        /* \"#utility.yul\":4546:4564   */\n      add\n        /* \"#utility.yul\":4538:4564   */\n      swap1\n      pop\n        /* \"#utility.yul\":4574:4641   */\n      tag_190\n        /* \"#utility.yul\":4638:4639   */\n      0x00\n        /* \"#utility.yul\":4627:4636   */\n      dup4\n        /* \"#utility.yul\":4623:4640   */\n      add\n        /* \"#utility.yul\":4614:4620   */\n      dup5\n        /* \"#utility.yul\":4574:4641   */\n      tag_128\n      jump\t// in\n    tag_190:\n        /* \"#utility.yul\":4434:4648   */\n      swap3\n      swap2\n      pop\n      pop\n      jump\t// out\n        /* \"#utility.yul\":4654:5128   */\n    tag_46:\n        /* \"#utility.yul\":4722:4728   */\n      0x00\n        /* \"#utility.yul\":4730:4736   */\n      0x00\n        /* \"#utility.yul\":4779:4781   */\n      0x40\n        /* \"#utility.yul\":4767:4776   */\n      dup4\n        /* \"#utility.yul\":4758:4765   */\n      dup6\n        /* \"#utility.yul\":4754:4777   */\n      sub\n        /* \"#utility.yul\":4750:4782   */\n      slt\n        /* \"#utility.yul\":4747:4866   */\n      iszero\n      tag_192\n      jumpi\n        /* \"#utility.yul\":4785:4864   */\n      tag_193\n      tag_112\n      jump\t// in\n    tag_193:\n        /* \"#utility.yul\":4747:4866   */\n    tag_192:\n        /* \"#utility.yul\":4905:4906   */\n      0x00\n        /* \"#utility.yul\":4930:4983   */\n      tag_194\n        /* \"#utility.yul\":4975:4982   */\n      dup6\n        /* \"#utility.yul\":4966:4972   */\n      dup3\n        /* \"#utility.yul\":4955:4964   */\n      dup7\n        /* \"#utility.yul\":4951:4973   */\n      add\n        /* \"#utility.yul\":4930:4983   */\n      tag_117\n      jump\t// in\n    tag_194:\n        /* \"#utility.yul\":4920:4983   */\n      swap3\n      pop\n        /* \"#utility.yul\":4876:4993   */\n      pop\n        /* \"#utility.yul\":5032:5034   */\n      0x20\n        /* \"#utility.yul\":5058:5111   */\n      tag_195\n        /* \"#utility.yul\":5103:5110   */\n      dup6\n        /* \"#utility.yul\":5094:5100   */\n      dup3\n        /* \"#utility.yul\":5083:5092   */\n      dup7\n        /* \"#utility.yul\":5079:5101   */\n      add\n        /* \"#utility.yul\":5058:5111   */\n      tag_117\n      jump\t// in\n    tag_195:\n        /* \"#utility.yul\":5048:5111   */\n      swap2\n      pop\n        /* \"#utility.yul\":5003:5121   */\n      pop\n        /* \"#utility.yul\":4654:5128   */\n      swap3\n      pop\n      swap3\n      swap1\n      pop\n      jump\t// out\n        /* \"#utility.yul\":5134:5305   */\n    tag_129:\n        /* \"#utility.yul\":5274:5297   */\n      0x42616c616e6365206973206e6f7420656e6f7567680000000000000000000000\n        /* \"#utility.yul\":5270:5271   */\n      0x00\n        /* \"#utility.yul\":5262:5268   */\n      dup3\n        /* \"#utility.yul\":5258:5272   */\n      add\n        /* \"#utility.yul\":5251:5298   */\n      mstore\n        /* \"#utility.yul\":5134:5305   */\n      pop\n      jump\t// out\n        /* \"#utility.yul\":5311:5677   */\n    tag_130:\n        /* \"#utility.yul\":5453:5456   */\n      0x00\n        /* \"#utility.yul\":5474:5541   */\n      tag_198\n        /* \"#utility.yul\":5538:5540   */\n      0x15\n        /* \"#utility.yul\":5533:5536   */\n      dup4\n        /* \"#utility.yul\":5474:5541   */\n      tag_122\n      jump\t// in\n    tag_198:\n        /* \"#utility.yul\":5467:5541   */\n      swap2\n      pop\n        /* \"#utility.yul\":5550:5643   */\n      tag_199\n        /* \"#utility.yul\":5639:5642   */\n      dup3\n        /* \"#utility.yul\":5550:5643   */\n      tag_129\n      jump\t// in\n    tag_199:\n        /* \"#utility.yul\":5668:5670   */\n      0x20\n        /* \"#utility.yul\":5663:5666   */\n      dup3\n        /* \"#utility.yul\":5659:5671   */\n      add\n        /* \"#utility.yul\":5652:5671   */\n      swap1\n      pop\n        /* \"#utility.yul\":5311:5677   */\n      swap2\n      swap1\n      pop\n      jump\t// out\n        /* \"#utility.yul\":5683:6102   */\n    tag_52:\n        /* \"#utility.yul\":5849:5853   */\n      0x00\n        /* \"#utility.yul\":5887:5889   */\n      0x20\n        /* \"#utility.yul\":5876:5885   */\n      dup3\n        /* \"#utility.yul\":5872:5890   */\n      add\n        /* \"#utility.yul\":5864:5890   */\n      swap1\n      pop\n        /* \"#utility.yul\":5936:5945   */\n      dup2\n        /* \"#utility.yul\":5930:5934   */\n      dup2\n        /* \"#utility.yul\":5926:5946   */\n      sub\n        /* \"#utility.yul\":5922:5923   */\n      0x00\n        /* \"#utility.yul\":5911:5920   */\n      dup4\n        /* \"#utility.yul\":5907:5924   */\n      add\n        /* \"#utility.yul\":5900:5947   */\n      mstore\n        /* \"#utility.yul\":5964:6095   */\n      tag_201\n        /* \"#utility.yul\":6090:6094   */\n      dup2\n        /* \"#utility.yul\":5964:6095   */\n      tag_130\n      jump\t// in\n    tag_201:\n        /* \"#utility.yul\":5956:6095   */\n      swap1\n      pop\n        /* \"#utility.yul\":5683:6102   */\n      swap2\n      swap1\n      pop\n      jump\t// out\n        /* \"#utility.yul\":6108:6288   */\n    tag_131:\n        /* \"#utility.yul\":6156:6233   */\n      0x4e487b7100000000000000000000000000000000000000000000000000000000\n        /* \"#utility.yul\":6153:6154   */\n      0x00\n        /* \"#utility.yul\":6146:6234   */\n      mstore\n        /* \"#utility.yul\":6253:6257   */\n      0x22\n        /* \"#utility.yul\":6250:6251   */\n      0x04\n        /* \"#utility.yul\":6243:6258   */\n      mstore\n        /* \"#utility.yul\":6277:6281   */\n      0x24\n        /* \"#utility.yul\":6274:6275   */\n      0x00\n        /* \"#utility.yul\":6267:6282   */\n      revert\n        /* \"#utility.yul\":6294:6614   */\n    tag_56:\n        /* \"#utility.yul\":6338:6344   */\n      0x00\n        /* \"#utility.yul\":6375:6376   */\n      0x02\n        /* \"#utility.yul\":6369:6373   */\n      dup3\n        /* \"#utility.yul\":6365:6377   */\n      div\n        /* \"#utility.yul\":6355:6377   */\n      swap1\n      pop\n        /* \"#utility.yul\":6422:6423   */\n      0x01\n        /* \"#utility.yul\":6416:6420   */\n      dup3\n        /* \"#utility.yul\":6412:6424   */\n      and\n        /* \"#utility.yul\":6443:6461   */\n      dup1\n        /* \"#utility.yul\":6433:6514   */\n      tag_204\n      jumpi\n        /* \"#utility.yul\":6499:6503   */\n      0x7f\n        /* \"#utility.yul\":6491:6497   */\n      dup3\n        /* \"#utility.yul\":6487:6504   */\n      and\n        /* \"#utility.yul\":6477:6504   */\n      swap2\n      pop\n        /* \"#utility.yul\":6433:6514   */\n    tag_204:\n        /* \"#utility.yul\":6561:6563   */\n      0x20\n        /* \"#utility.yul\":6553:6559   */\n      dup3\n        /* \"#utility.yul\":6550:6564   */\n      lt\n        /* \"#utility.yul\":6530:6548   */\n      dup2\n        /* \"#utility.yul\":6527:6565   */\n      sub\n        /* \"#utility.yul\":6524:6608   */\n      tag_205\n      jumpi\n        /* \"#utility.yul\":6580:6598   */\n      tag_206\n      tag_131\n      jump\t// in\n    tag_206:\n        /* \"#utility.yul\":6524:6608   */\n    tag_205:\n        /* \"#utility.yul\":6345:6614   */\n      pop\n        /* \"#utility.yul\":6294:6614   */\n      swap2\n      swap1\n      pop\n      jump\t// out\n        /* \"#utility.yul\":6620:6792   */\n    tag_132:\n        /* \"#utility.yul\":6760:6784   */\n      0x41646472657373206973206e6f7420616c6c6f77656400000000000000000000\n        /* \"#utility.yul\":6756:6757   */\n      0x00\n        /* \"#utility.yul\":6748:6754   */\n      dup3\n        /* \"#utility.yul\":6744:6758   */\n      add\n        /* \"#utility.yul\":6737:6785   */\n      mstore\n        /* \"#utility.yul\":6620:6792   */\n      pop\n      jump\t// out\n        /* \"#utility.yul\":6798:7164   */\n    tag_133:\n        /* \"#utility.yul\":6940:6943   */\n      0x00\n        /* \"#utility.yul\":6961:7028   */\n      tag_209\n        /* \"#utility.yul\":7025:7027   */\n      0x16\n        /* \"#utility.yul\":7020:7023   */\n      dup4\n        /* \"#utility.yul\":6961:7028   */\n      tag_122\n      jump\t// in\n    tag_209:\n        /* \"#utility.yul\":6954:7028   */\n      swap2\n      pop\n        /* \"#utility.yul\":7037:7130   */\n      tag_210\n        /* \"#utility.yul\":7126:7129   */\n      dup3\n        /* \"#utility.yul\":7037:7130   */\n      tag_132\n      jump\t// in\n    tag_210:\n        /* \"#utility.yul\":7155:7157   */\n      0x20\n        /* \"#utility.yul\":7150:7153   */\n      dup3\n        /* \"#utility.yul\":7146:7158   */\n      add\n        /* \"#utility.yul\":7139:7158   */\n      swap1\n      pop\n        /* \"#utility.yul\":6798:7164   */\n      swap2\n      swap1\n      pop\n      jump\t// out\n        /* \"#utility.yul\":7170:7589   */\n    tag_64:\n        /* \"#utility.yul\":7336:7340   */\n      0x00\n        /* \"#utility.yul\":7374:7376   */\n      0x20\n        /* \"#utility.yul\":7363:7372   */\n      dup3\n        /* \"#utility.yul\":7359:7377   */\n      add\n        /* \"#utility.yul\":7351:7377   */\n      swap1\n      pop\n        /* \"#utility.yul\":7423:7432   */\n      dup2\n        /* \"#utility.yul\":7417:7421   */\n      dup2\n        /* \"#utility.yul\":7413:7433   */\n      sub\n        /* \"#utility.yul\":7409:7410   */\n      0x00\n        /* \"#utility.yul\":7398:7407   */\n      dup4\n        /* \"#utility.yul\":7394:7411   */\n      add\n        /* \"#utility.yul\":7387:7434   */\n      mstore\n        /* \"#utility.yul\":7451:7582   */\n      tag_212\n        /* \"#utility.yul\":7577:7581   */\n      dup2\n        /* \"#utility.yul\":7451:7582   */\n      tag_133\n      jump\t// in\n    tag_212:\n        /* \"#utility.yul\":7443:7582   */\n      swap1\n      pop\n        /* \"#utility.yul\":7170:7589   */\n      swap2\n      swap1\n      pop\n      jump\t// out\n        /* \"#utility.yul\":7595:7775   */\n    tag_134:\n        /* \"#utility.yul\":7643:7720   */\n      0x4e487b7100000000000000000000000000000000000000000000000000000000\n        /* \"#utility.yul\":7640:7641   */\n      0x00\n        /* \"#utility.yul\":7633:7721   */\n      mstore\n        /* \"#utility.yul\":7740:7744   */\n      0x11\n        /* \"#utility.yul\":7737:7738   */\n      0x04\n        /* \"#utility.yul\":7730:7745   */\n      mstore\n        /* \"#utility.yul\":7764:7768   */\n      0x24\n        /* \"#utility.yul\":7761:7762   */\n      0x00\n        /* \"#utility.yul\":7754:7769   */\n      revert\n        /* \"#utility.yul\":7781:7975   */\n    tag_70:\n        /* \"#utility.yul\":7821:7825   */\n      0x00\n        /* \"#utility.yul\":7841:7861   */\n      tag_215\n        /* \"#utility.yul\":7859:7860   */\n      dup3\n        /* \"#utility.yul\":7841:7861   */\n      tag_118\n      jump\t// in\n    tag_215:\n        /* \"#utility.yul\":7836:7861   */\n      swap2\n      pop\n        /* \"#utility.yul\":7875:7895   */\n      tag_216\n        /* \"#utility.yul\":7893:7894   */\n      dup4\n        /* \"#utility.yul\":7875:7895   */\n      tag_118\n      jump\t// in\n    tag_216:\n        /* \"#utility.yul\":7870:7895   */\n      swap3\n      pop\n        /* \"#utility.yul\":7919:7920   */\n      dup3\n        /* \"#utility.yul\":7916:7917   */\n      dup3\n        /* \"#utility.yul\":7912:7921   */\n      sub\n        /* \"#utility.yul\":7904:7921   */\n      swap1\n      pop\n        /* \"#utility.yul\":7943:7944   */\n      dup2\n        /* \"#utility.yul\":7937:7941   */\n      dup2\n        /* \"#utility.yul\":7934:7945   */\n      gt\n        /* \"#utility.yul\":7931:7968   */\n      iszero\n      tag_217\n      jumpi\n        /* \"#utility.yul\":7948:7966   */\n      tag_218\n      tag_134\n      jump\t// in\n    tag_218:\n        /* \"#utility.yul\":7931:7968   */\n    tag_217:\n        /* \"#utility.yul\":7781:7975   */\n      swap3\n      swap2\n      pop\n      pop\n      jump\t// out\n        /* \"#utility.yul\":7981:8172   */\n    tag_73:\n        /* \"#utility.yul\":8021:8024   */\n      0x00\n        /* \"#utility.yul\":8040:8060   */\n      tag_220\n        /* \"#utility.yul\":8058:8059   */\n      dup3\n        /* \"#utility.yul\":8040:8060   */\n      tag_118\n      jump\t// in\n    tag_220:\n        /* \"#utility.yul\":8035:8060   */\n      swap2\n      pop\n        /* \"#utility.yul\":8074:8094   */\n      tag_221\n        /* \"#utility.yul\":8092:8093   */\n      dup4\n        /* \"#utility.yul\":8074:8094   */\n      tag_118\n      jump\t// in\n    tag_221:\n        /* \"#utility.yul\":8069:8094   */\n      swap3\n      pop\n        /* \"#utility.yul\":8117:8118   */\n      dup3\n        /* \"#utility.yul\":8114:8115   */\n      dup3\n        /* \"#utility.yul\":8110:8119   */\n      add\n        /* \"#utility.yul\":8103:8119   */\n      swap1\n      pop\n        /* \"#utility.yul\":8138:8141   */\n      dup1\n        /* \"#utility.yul\":8135:8136   */\n      dup3\n        /* \"#utility.yul\":8132:8142   */\n      gt\n        /* \"#utility.yul\":8129:8165   */\n      iszero\n      tag_222\n      jumpi\n        /* \"#utility.yul\":8145:8163   */\n      tag_223\n      tag_134\n      jump\t// in\n    tag_223:\n        /* \"#utility.yul\":8129:8165   */\n    tag_222:\n        /* \"#utility.yul\":7981:8172   */\n      swap3\n      swap2\n      pop\n      pop\n      jump\t// out\n        /* \"#utility.yul\":8178:8407   */\n    tag_135:\n        /* \"#utility.yul\":8318:8352   */\n      0x596f752063616e27742074616b65206d6f7265207468616e2077686174206973\n        /* \"#utility.yul\":8314:8315   */\n      0x00\n        /* \"#utility.yul\":8306:8312   */\n      dup3\n        /* \"#utility.yul\":8302:8316   */\n      add\n        /* \"#utility.yul\":8295:8353   */\n      mstore\n        /* \"#utility.yul\":8387:8399   */\n      0x206176616c6961626c6500000000000000000000000000000000000000000000\n        /* \"#utility.yul\":8382:8384   */\n      0x20\n        /* \"#utility.yul\":8374:8380   */\n      dup3\n        /* \"#utility.yul\":8370:8385   */\n      add\n        /* \"#utility.yul\":8363:8400   */\n      mstore\n        /* \"#utility.yul\":8178:8407   */\n      pop\n      jump\t// out\n        /* \"#utility.yul\":8413:8779   */\n    tag_136:\n        /* \"#utility.yul\":8555:8558   */\n      0x00\n        /* \"#utility.yul\":8576:8643   */\n      tag_226\n        /* \"#utility.yul\":8640:8642   */\n      0x2a\n        /* \"#utility.yul\":8635:8638   */\n      dup4\n        /* \"#utility.yul\":8576:8643   */\n      tag_122\n      jump\t// in\n    tag_226:\n        /* \"#utility.yul\":8569:8643   */\n      swap2\n      pop\n        /* \"#utility.yul\":8652:8745   */\n      tag_227\n        /* \"#utility.yul\":8741:8744   */\n      dup3\n        /* \"#utility.yul\":8652:8745   */\n      tag_135\n      jump\t// in\n    tag_227:\n        /* \"#utility.yul\":8770:8772   */\n      0x40\n        /* \"#utility.yul\":8765:8768   */\n      dup3\n        /* \"#utility.yul\":8761:8773   */\n      add\n        /* \"#utility.yul\":8754:8773   */\n      swap1\n      pop\n        /* \"#utility.yul\":8413:8779   */\n      swap2\n      swap1\n      pop\n      jump\t// out\n        /* \"#utility.yul\":8785:9204   */\n    tag_93:\n        /* \"#utility.yul\":8951:8955   */\n      0x00\n        /* \"#utility.yul\":8989:8991   */\n      0x20\n        /* \"#utility.yul\":8978:8987   */\n      dup3\n        /* \"#utility.yul\":8974:8992   */\n      add\n        /* \"#utility.yul\":8966:8992   */\n      swap1\n      pop\n        /* \"#utility.yul\":9038:9047   */\n      dup2\n        /* \"#utility.yul\":9032:9036   */\n      dup2\n        /* \"#utility.yul\":9028:9048   */\n      sub\n        /* \"#utility.yul\":9024:9025   */\n      0x00\n        /* \"#utility.yul\":9013:9022   */\n      dup4\n        /* \"#utility.yul\":9009:9026   */\n      add\n        /* \"#utility.yul\":9002:9049   */\n      mstore\n        /* \"#utility.yul\":9066:9197   */\n      tag_229\n        /* \"#utility.yul\":9192:9196   */\n      dup2\n        /* \"#utility.yul\":9066:9197   */\n      tag_136\n      jump\t// in\n    tag_229:\n        /* \"#utility.yul\":9058:9197   */\n      swap1\n      pop\n        /* \"#utility.yul\":8785:9204   */\n      swap2\n      swap1\n      pop\n      jump\t// out\n        /* \"#utility.yul\":9210:9620   */\n    tag_104:\n        /* \"#utility.yul\":9250:9257   */\n      0x00\n        /* \"#utility.yul\":9273:9293   */\n      tag_231\n        /* \"#utility.yul\":9291:9292   */\n      dup3\n        /* \"#utility.yul\":9273:9293   */\n      tag_118\n      jump\t// in\n    tag_231:\n        /* \"#utility.yul\":9268:9293   */\n      swap2\n      pop\n        /* \"#utility.yul\":9307:9327   */\n      tag_232\n        /* \"#utility.yul\":9325:9326   */\n      dup4\n        /* \"#utility.yul\":9307:9327   */\n      tag_118\n      jump\t// in\n    tag_232:\n        /* \"#utility.yul\":9302:9327   */\n      swap3\n      pop\n        /* \"#utility.yul\":9362:9363   */\n      dup3\n        /* \"#utility.yul\":9359:9360   */\n      dup3\n        /* \"#utility.yul\":9355:9364   */\n      mul\n        /* \"#utility.yul\":9384:9414   */\n      tag_233\n        /* \"#utility.yul\":9402:9413   */\n      dup2\n        /* \"#utility.yul\":9384:9414   */\n      tag_118\n      jump\t// in\n    tag_233:\n        /* \"#utility.yul\":9373:9414   */\n      swap2\n      pop\n        /* \"#utility.yul\":9563:9564   */\n      dup3\n        /* \"#utility.yul\":9554:9561   */\n      dup3\n        /* \"#utility.yul\":9550:9565   */\n      div\n        /* \"#utility.yul\":9547:9548   */\n      dup5\n        /* \"#utility.yul\":9544:9566   */\n      eq\n        /* \"#utility.yul\":9524:9525   */\n      dup4\n        /* \"#utility.yul\":9517:9526   */\n      iszero\n        /* \"#utility.yul\":9497:9580   */\n      or\n        /* \"#utility.yul\":9474:9613   */\n      tag_234\n      jumpi\n        /* \"#utility.yul\":9593:9611   */\n      tag_235\n      tag_134\n      jump\t// in\n    tag_235:\n        /* \"#utility.yul\":9474:9613   */\n    tag_234:\n        /* \"#utility.yul\":9258:9620   */\n      pop\n        /* \"#utility.yul\":9210:9620   */\n      swap3\n      swap2\n      pop\n      pop\n      jump\t// out\n        /* \"#utility.yul\":9626:9806   */\n    tag_137:\n        /* \"#utility.yul\":9674:9751   */\n      0x4e487b7100000000000000000000000000000000000000000000000000000000\n        /* \"#utility.yul\":9671:9672   */\n      0x00\n        /* \"#utility.yul\":9664:9752   */\n      mstore\n        /* \"#utility.yul\":9771:9775   */\n      0x12\n        /* \"#utility.yul\":9768:9769   */\n      0x04\n        /* \"#utility.yul\":9761:9776   */\n      mstore\n        /* \"#utility.yul\":9795:9799   */\n      0x24\n        /* \"#utility.yul\":9792:9793   */\n      0x00\n        /* \"#utility.yul\":9785:9800   */\n      revert\n        /* \"#utility.yul\":9812:9997   */\n    tag_106:\n        /* \"#utility.yul\":9852:9853   */\n      0x00\n        /* \"#utility.yul\":9869:9889   */\n      tag_238\n        /* \"#utility.yul\":9887:9888   */\n      dup3\n        /* \"#utility.yul\":9869:9889   */\n      tag_118\n      jump\t// in\n    tag_238:\n        /* \"#utility.yul\":9864:9889   */\n      swap2\n      pop\n        /* \"#utility.yul\":9903:9923   */\n      tag_239\n        /* \"#utility.yul\":9921:9922   */\n      dup4\n        /* \"#utility.yul\":9903:9923   */\n      tag_118\n      jump\t// in\n    tag_239:\n        /* \"#utility.yul\":9898:9923   */\n      swap3\n      pop\n        /* \"#utility.yul\":9942:9943   */\n      dup3\n        /* \"#utility.yul\":9932:9967   */\n      tag_240\n      jumpi\n        /* \"#utility.yul\":9947:9965   */\n      tag_241\n      tag_137\n      jump\t// in\n    tag_241:\n        /* \"#utility.yul\":9932:9967   */\n    tag_240:\n        /* \"#utility.yul\":9989:9990   */\n      dup3\n        /* \"#utility.yul\":9986:9987   */\n      dup3\n        /* \"#utility.yul\":9982:9991   */\n      div\n        /* \"#utility.yul\":9977:9991   */\n      swap1\n      pop\n        /* \"#utility.yul\":9812:9997   */\n      swap3\n      swap2\n      pop\n      pop\n      jump\t// out\n\n    auxdata: 0xa26469706673582212202629245049a32c088b811a94cc11f4f18008a8246901c5ed8c0b95f6f802046164736f6c634300081b0033\n}\n",
				"bytecode": {
					"linkReferences": {},
					"object": "608060405234801561000f575f5ffd5b5060405161197d38038061197d83398181016040528101906100319190610337565b815f908161003f91906105bd565b50806001908161004f91906105bd565b503360035f6101000a81548173ffffffffffffffffffffffffffffffffffffffff021916908373ffffffffffffffffffffffffffffffffffffffff1602179055506100c4620f424060035f9054906101000a900473ffffffffffffffffffffffffffffffffffffffff166100cb60201b60201c565b5050610755565b5f670de0b6b3a7640000836100e091906106b9565b90508060045f8473ffffffffffffffffffffffffffffffffffffffff1673ffffffffffffffffffffffffffffffffffffffff1681526020019081526020015f205461012b91906106fa565b60045f8473ffffffffffffffffffffffffffffffffffffffff1673ffffffffffffffffffffffffffffffffffffffff1681526020019081526020015f20819055508060025461017a91906106fa565b6002819055508173ffffffffffffffffffffffffffffffffffffffff165f73ffffffffffffffffffffffffffffffffffffffff167fddf252ad1be2c89b69c2b068fc378daa952ba7f163c4a11628f55a4df523b3ef836040516101dd919061073c565b60405180910390a3505050565b5f604051905090565b5f5ffd5b5f5ffd5b5f5ffd5b5f5ffd5b5f601f19601f8301169050919050565b7f4e487b71000000000000000000000000000000000000000000000000000000005f52604160045260245ffd5b61024982610203565b810181811067ffffffffffffffff8211171561026857610267610213565b5b80604052505050565b5f61027a6101ea565b90506102868282610240565b919050565b5f67ffffffffffffffff8211156102a5576102a4610213565b5b6102ae82610203565b9050602081019050919050565b8281835e5f83830152505050565b5f6102db6102d68461028b565b610271565b9050828152602081018484840111156102f7576102f66101ff565b5b6103028482856102bb565b509392505050565b5f82601f83011261031e5761031d6101fb565b5b815161032e8482602086016102c9565b91505092915050565b5f5f6040838503121561034d5761034c6101f3565b5b5f83015167ffffffffffffffff81111561036a576103696101f7565b5b6103768582860161030a565b925050602083015167ffffffffffffffff811115610397576103966101f7565b5b6103a38582860161030a565b9150509250929050565b5f81519050919050565b7f4e487b71000000000000000000000000000000000000000000000000000000005f52602260045260245ffd5b5f60028204905060018216806103fb57607f821691505b60208210810361040e5761040d6103b7565b5b50919050565b5f819050815f5260205f209050919050565b5f6020601f8301049050919050565b5f82821b905092915050565b5f600883026104707fffffffffffffffffffffffffffffffffffffffffffffffffffffffffffffffff82610435565b61047a8683610435565b95508019841693508086168417925050509392505050565b5f819050919050565b5f819050919050565b5f6104be6104b96104b484610492565b61049b565b610492565b9050919050565b5f819050919050565b6104d7836104a4565b6104eb6104e3826104c5565b848454610441565b825550505050565b5f5f905090565b6105026104f3565b61050d8184846104ce565b505050565b5b81811015610530576105255f826104fa565b600181019050610513565b5050565b601f8211156105755761054681610414565b61054f84610426565b8101602085101561055e578190505b61057261056a85610426565b830182610512565b50505b505050565b5f82821c905092915050565b5f6105955f198460080261057a565b1980831691505092915050565b5f6105ad8383610586565b9150826002028217905092915050565b6105c6826103ad565b67ffffffffffffffff8111156105df576105de610213565b5b6105e982546103e4565b6105f4828285610534565b5f60209050601f831160018114610625575f8415610613578287015190505b61061d85826105a2565b865550610684565b601f19841661063386610414565b5f5b8281101561065a57848901518255600182019150602085019450602081019050610635565b868310156106775784890151610673601f891682610586565b8355505b6001600288020188555050505b505050505050565b7f4e487b71000000000000000000000000000000000000000000000000000000005f52601160045260245ffd5b5f6106c382610492565b91506106ce83610492565b92508282026106dc81610492565b915082820484148315176106f3576106f261068c565b5b5092915050565b5f61070482610492565b915061070f83610492565b92508282019050808211156107275761072661068c565b5b92915050565b61073681610492565b82525050565b5f60208201905061074f5f83018461072d565b92915050565b61121b806107625f395ff3fe608060405234801561000f575f5ffd5b5060043610610091575f3560e01c806376809ce31161006457806376809ce31461011b578063862b092b14610139578063a9059cbb14610157578063c4e41b2214610173578063dd62ed3e1461019157610091565b8063095ea7b31461009557806315070401146100b157806323b872dd146100cf57806370a08231146100eb575b5f5ffd5b6100af60048036038101906100aa9190610d16565b6101c1565b005b6100b9610326565b6040516100c69190610dc4565b60405180910390f35b6100e960048036038101906100e49190610de4565b6103b6565b005b61010560048036038101906101009190610e34565b610796565b6040516101129190610e6e565b60405180910390f35b6101236107dc565b6040516101309190610ea2565b60405180910390f35b6101416107e4565b60405161014e9190610dc4565b60405180910390f35b610171600480360381019061016c9190610d16565b610873565b005b61017b610ad2565b6040516101889190610e6e565b60405180910390f35b6101ab60048036038101906101a69190610ebb565b610adb565b6040516101b89190610e6e565b60405180910390f35b8060045f3373ffffffffffffffffffffffffffffffffffffffff1673ffffffffffffffffffffffffffffffffffffffff1681526020019081526020015f205411610240576040517f08c379a000000000000000000000000000000000000000000000000000000000815260040161023790610f43565b60405180910390fd5b8060055f3373ffffffffffffffffffffffffffffffffffffffff1673ffffffffffffffffffffffffffffffffffffffff1681526020019081526020015f205f8473ffffffffffffffffffffffffffffffffffffffff1673ffffffffffffffffffffffffffffffffffffffff1681526020019081526020015f20819055508173ffffffffffffffffffffffffffffffffffffffff163373ffffffffffffffffffffffffffffffffffffffff167f8c5be1e5ebec7d5bd14f71427d1e84f3dd0314c0f7b2291e5b200ac8c7c3b9258360405161031a9190610e6e565b60405180910390a35050565b60606001805461033590610f8e565b80601f016020809104026020016040519081016040528092919081815260200182805461036190610f8e565b80156103ac5780601f10610383576101008083540402835291602001916103ac565b820191905f5260205f20905b81548152906001019060200180831161038f57829003601f168201915b5050505050905090565b5f73ffffffffffffffffffffffffffffffffffffffff168373ffffffffffffffffffffffffffffffffffffffff1603610424576040517f08c379a000000000000000000000000000000000000000000000000000000000815260040161041b90611008565b60405180910390fd5b5f73ffffffffffffffffffffffffffffffffffffffff168273ffffffffffffffffffffffffffffffffffffffff1603610492576040517f08c379a000000000000000000000000000000000000000000000000000000000815260040161048990611008565b60405180910390fd5b60045f8473ffffffffffffffffffffffffffffffffffffffff1673ffffffffffffffffffffffffffffffffffffffff1681526020019081526020015f20548111156104db575f5ffd5b60055f8473ffffffffffffffffffffffffffffffffffffffff1673ffffffffffffffffffffffffffffffffffffffff1681526020019081526020015f205f3373ffffffffffffffffffffffffffffffffffffffff1673ffffffffffffffffffffffffffffffffffffffff1681526020019081526020015f205481111561055f575f5ffd5b8060045f8573ffffffffffffffffffffffffffffffffffffffff1673ffffffffffffffffffffffffffffffffffffffff1681526020019081526020015f20546105a89190611053565b60045f8573ffffffffffffffffffffffffffffffffffffffff1673ffffffffffffffffffffffffffffffffffffffff1681526020019081526020015f20819055508060055f8573ffffffffffffffffffffffffffffffffffffffff1673ffffffffffffffffffffffffffffffffffffffff1681526020019081526020015f205f3373ffffffffffffffffffffffffffffffffffffffff1673ffffffffffffffffffffffffffffffffffffffff1681526020019081526020015f205f8282546106709190611053565b925050819055508060045f8473ffffffffffffffffffffffffffffffffffffffff1673ffffffffffffffffffffffffffffffffffffffff1681526020019081526020015f20546106c09190611086565b60045f8473ffffffffffffffffffffffffffffffffffffffff1673ffffffffffffffffffffffffffffffffffffffff1681526020019081526020015f20819055505f61070b82610b5d565b90508060025461071b9190611053565b60028190555061072b8482610b7e565b8273ffffffffffffffffffffffffffffffffffffffff168473ffffffffffffffffffffffffffffffffffffffff167fddf252ad1be2c89b69c2b068fc378daa952ba7f163c4a11628f55a4df523b3ef846040516107889190610e6e565b60405180910390a350505050565b5f60045f8373ffffffffffffffffffffffffffffffffffffffff1673ffffffffffffffffffffffffffffffffffffffff1681526020019081526020015f20549050919050565b5f6012905090565b60605f80546107f290610f8e565b80601f016020809104026020016040519081016040528092919081815260200182805461081e90610f8e565b80156108695780601f1061084057610100808354040283529160200191610869565b820191905f5260205f20905b81548152906001019060200180831161084c57829003601f168201915b5050505050905090565b5f73ffffffffffffffffffffffffffffffffffffffff168273ffffffffffffffffffffffffffffffffffffffff16036108e1576040517f08c379a00000000000000000000000000000000000000000000000000000000081526004016108d890611008565b60405180910390fd5b60045f3373ffffffffffffffffffffffffffffffffffffffff1673ffffffffffffffffffffffffffffffffffffffff1681526020019081526020015f2054811115610961576040517f08c379a000000000000000000000000000000000000000000000000000000000815260040161095890611129565b60405180910390fd5b8060045f3373ffffffffffffffffffffffffffffffffffffffff1673ffffffffffffffffffffffffffffffffffffffff1681526020019081526020015f205f8282546109ad9190611053565b925050819055508060045f8473ffffffffffffffffffffffffffffffffffffffff1673ffffffffffffffffffffffffffffffffffffffff1681526020019081526020015f20546109fd9190611086565b60045f8473ffffffffffffffffffffffffffffffffffffffff1673ffffffffffffffffffffffffffffffffffffffff1681526020019081526020015f20819055505f610a4882610b5d565b905080600254610a589190611053565b600281905550610a683382610b7e565b8273ffffffffffffffffffffffffffffffffffffffff163373ffffffffffffffffffffffffffffffffffffffff167fddf252ad1be2c89b69c2b068fc378daa952ba7f163c4a11628f55a4df523b3ef84604051610ac59190610e6e565b60405180910390a3505050565b5f600254905090565b5f60055f8473ffffffffffffffffffffffffffffffffffffffff1673ffffffffffffffffffffffffffffffffffffffff1681526020019081526020015f205f8373ffffffffffffffffffffffffffffffffffffffff1673ffffffffffffffffffffffffffffffffffffffff1681526020019081526020015f2054905092915050565b5f6064600583610b6d9190611147565b610b7791906111b5565b9050919050565b8060045f8473ffffffffffffffffffffffffffffffffffffffff1673ffffffffffffffffffffffffffffffffffffffff1681526020019081526020015f2054610bc79190611053565b60045f8473ffffffffffffffffffffffffffffffffffffffff1673ffffffffffffffffffffffffffffffffffffffff1681526020019081526020015f208190555080600254610c169190611053565b6002819055505f73ffffffffffffffffffffffffffffffffffffffff168273ffffffffffffffffffffffffffffffffffffffff167fddf252ad1be2c89b69c2b068fc378daa952ba7f163c4a11628f55a4df523b3ef83604051610c799190610e6e565b60405180910390a35050565b5f5ffd5b5f73ffffffffffffffffffffffffffffffffffffffff82169050919050565b5f610cb282610c89565b9050919050565b610cc281610ca8565b8114610ccc575f5ffd5b50565b5f81359050610cdd81610cb9565b92915050565b5f819050919050565b610cf581610ce3565b8114610cff575f5ffd5b50565b5f81359050610d1081610cec565b92915050565b5f5f60408385031215610d2c57610d2b610c85565b5b5f610d3985828601610ccf565b9250506020610d4a85828601610d02565b9150509250929050565b5f81519050919050565b5f82825260208201905092915050565b8281835e5f83830152505050565b5f601f19601f8301169050919050565b5f610d9682610d54565b610da08185610d5e565b9350610db0818560208601610d6e565b610db981610d7c565b840191505092915050565b5f6020820190508181035f830152610ddc8184610d8c565b905092915050565b5f5f5f60608486031215610dfb57610dfa610c85565b5b5f610e0886828701610ccf565b9350506020610e1986828701610ccf565b9250506040610e2a86828701610d02565b9150509250925092565b5f60208284031215610e4957610e48610c85565b5b5f610e5684828501610ccf565b91505092915050565b610e6881610ce3565b82525050565b5f602082019050610e815f830184610e5f565b92915050565b5f60ff82169050919050565b610e9c81610e87565b82525050565b5f602082019050610eb55f830184610e93565b92915050565b5f5f60408385031215610ed157610ed0610c85565b5b5f610ede85828601610ccf565b9250506020610eef85828601610ccf565b9150509250929050565b7f42616c616e6365206973206e6f7420656e6f75676800000000000000000000005f82015250565b5f610f2d601583610d5e565b9150610f3882610ef9565b602082019050919050565b5f6020820190508181035f830152610f5a81610f21565b9050919050565b7f4e487b71000000000000000000000000000000000000000000000000000000005f52602260045260245ffd5b5f6002820490506001821680610fa557607f821691505b602082108103610fb857610fb7610f61565b5b50919050565b7f41646472657373206973206e6f7420616c6c6f776564000000000000000000005f82015250565b5f610ff2601683610d5e565b9150610ffd82610fbe565b602082019050919050565b5f6020820190508181035f83015261101f81610fe6565b9050919050565b7f4e487b71000000000000000000000000000000000000000000000000000000005f52601160045260245ffd5b5f61105d82610ce3565b915061106883610ce3565b92508282039050818111156110805761107f611026565b5b92915050565b5f61109082610ce3565b915061109b83610ce3565b92508282019050808211156110b3576110b2611026565b5b92915050565b7f596f752063616e27742074616b65206d6f7265207468616e20776861742069735f8201527f206176616c6961626c6500000000000000000000000000000000000000000000602082015250565b5f611113602a83610d5e565b915061111e826110b9565b604082019050919050565b5f6020820190508181035f83015261114081611107565b9050919050565b5f61115182610ce3565b915061115c83610ce3565b925082820261116a81610ce3565b9150828204841483151761118157611180611026565b5b5092915050565b7f4e487b71000000000000000000000000000000000000000000000000000000005f52601260045260245ffd5b5f6111bf82610ce3565b91506111ca83610ce3565b9250826111da576111d9611188565b5b82820490509291505056fea26469706673582212202629245049a32c088b811a94cc11f4f18008a8246901c5ed8c0b95f6f802046164736f6c634300081b0033",
					"opcodes": "PUSH1 0x80 PUSH1 0x40 MSTORE CALLVALUE DUP1 ISZERO PUSH2 0xF JUMPI PUSH0 PUSH0 REVERT JUMPDEST POP PUSH1 0x40 MLOAD PUSH2 0x197D CODESIZE SUB DUP1 PUSH2 0x197D DUP4 CODECOPY DUP2 DUP2 ADD PUSH1 0x40 MSTORE DUP2 ADD SWAP1 PUSH2 0x31 SWAP2 SWAP1 PUSH2 0x337 JUMP JUMPDEST DUP2 PUSH0 SWAP1 DUP2 PUSH2 0x3F SWAP2 SWAP1 PUSH2 0x5BD JUMP JUMPDEST POP DUP1 PUSH1 0x1 SWAP1 DUP2 PUSH2 0x4F SWAP2 SWAP1 PUSH2 0x5BD JUMP JUMPDEST POP CALLER PUSH1 0x3 PUSH0 PUSH2 0x100 EXP DUP2 SLOAD DUP2 PUSH20 0xFFFFFFFFFFFFFFFFFFFFFFFFFFFFFFFFFFFFFFFF MUL NOT AND SWAP1 DUP4 PUSH20 0xFFFFFFFFFFFFFFFFFFFFFFFFFFFFFFFFFFFFFFFF AND MUL OR SWAP1 SSTORE POP PUSH2 0xC4 PUSH3 0xF4240 PUSH1 0x3 PUSH0 SWAP1 SLOAD SWAP1 PUSH2 0x100 EXP SWAP1 DIV PUSH20 0xFFFFFFFFFFFFFFFFFFFFFFFFFFFFFFFFFFFFFFFF AND PUSH2 0xCB PUSH1 0x20 SHL PUSH1 0x20 SHR JUMP JUMPDEST POP POP PUSH2 0x755 JUMP JUMPDEST PUSH0 PUSH8 0xDE0B6B3A7640000 DUP4 PUSH2 0xE0 SWAP2 SWAP1 PUSH2 0x6B9 JUMP JUMPDEST SWAP1 POP DUP1 PUSH1 0x4 PUSH0 DUP5 PUSH20 0xFFFFFFFFFFFFFFFFFFFFFFFFFFFFFFFFFFFFFFFF AND PUSH20 0xFFFFFFFFFFFFFFFFFFFFFFFFFFFFFFFFFFFFFFFF AND DUP2 MSTORE PUSH1 0x20 ADD SWAP1 DUP2 MSTORE PUSH1 0x20 ADD PUSH0 KECCAK256 SLOAD PUSH2 0x12B SWAP2 SWAP1 PUSH2 0x6FA JUMP JUMPDEST PUSH1 0x4 PUSH0 DUP5 PUSH20 0xFFFFFFFFFFFFFFFFFFFFFFFFFFFFFFFFFFFFFFFF AND PUSH20 0xFFFFFFFFFFFFFFFFFFFFFFFFFFFFFFFFFFFFFFFF AND DUP2 MSTORE PUSH1 0x20 ADD SWAP1 DUP2 MSTORE PUSH1 0x20 ADD PUSH0 KECCAK256 DUP2 SWAP1 SSTORE POP DUP1 PUSH1 0x2 SLOAD PUSH2 0x17A SWAP2 SWAP1 PUSH2 0x6FA JUMP JUMPDEST PUSH1 0x2 DUP2 SWAP1 SSTORE POP DUP2 PUSH20 0xFFFFFFFFFFFFFFFFFFFFFFFFFFFFFFFFFFFFFFFF AND PUSH0 PUSH20 0xFFFFFFFFFFFFFFFFFFFFFFFFFFFFFFFFFFFFFFFF AND PUSH32 0xDDF252AD1BE2C89B69C2B068FC378DAA952BA7F163C4A11628F55A4DF523B3EF DUP4 PUSH1 0x40 MLOAD PUSH2 0x1DD SWAP2 SWAP1 PUSH2 0x73C JUMP JUMPDEST PUSH1 0x40 MLOAD DUP1 SWAP2 SUB SWAP1 LOG3 POP POP POP JUMP JUMPDEST PUSH0 PUSH1 0x40 MLOAD SWAP1 POP SWAP1 JUMP JUMPDEST PUSH0 PUSH0 REVERT JUMPDEST PUSH0 PUSH0 REVERT JUMPDEST PUSH0 PUSH0 REVERT JUMPDEST PUSH0 PUSH0 REVERT JUMPDEST PUSH0 PUSH1 0x1F NOT PUSH1 0x1F DUP4 ADD AND SWAP1 POP SWAP2 SWAP1 POP JUMP JUMPDEST PUSH32 0x4E487B7100000000000000000000000000000000000000000000000000000000 PUSH0 MSTORE PUSH1 0x41 PUSH1 0x4 MSTORE PUSH1 0x24 PUSH0 REVERT JUMPDEST PUSH2 0x249 DUP3 PUSH2 0x203 JUMP JUMPDEST DUP2 ADD DUP2 DUP2 LT PUSH8 0xFFFFFFFFFFFFFFFF DUP3 GT OR ISZERO PUSH2 0x268 JUMPI PUSH2 0x267 PUSH2 0x213 JUMP JUMPDEST JUMPDEST DUP1 PUSH1 0x40 MSTORE POP POP POP JUMP JUMPDEST PUSH0 PUSH2 0x27A PUSH2 0x1EA JUMP JUMPDEST SWAP1 POP PUSH2 0x286 DUP3 DUP3 PUSH2 0x240 JUMP JUMPDEST SWAP2 SWAP1 POP JUMP JUMPDEST PUSH0 PUSH8 0xFFFFFFFFFFFFFFFF DUP3 GT ISZERO PUSH2 0x2A5 JUMPI PUSH2 0x2A4 PUSH2 0x213 JUMP JUMPDEST JUMPDEST PUSH2 0x2AE DUP3 PUSH2 0x203 JUMP JUMPDEST SWAP1 POP PUSH1 0x20 DUP2 ADD SWAP1 POP SWAP2 SWAP1 POP JUMP JUMPDEST DUP3 DUP2 DUP4 MCOPY PUSH0 DUP4 DUP4 ADD MSTORE POP POP POP JUMP JUMPDEST PUSH0 PUSH2 0x2DB PUSH2 0x2D6 DUP5 PUSH2 0x28B JUMP JUMPDEST PUSH2 0x271 JUMP JUMPDEST SWAP1 POP DUP3 DUP2 MSTORE PUSH1 0x20 DUP2 ADD DUP5 DUP5 DUP5 ADD GT ISZERO PUSH2 0x2F7 JUMPI PUSH2 0x2F6 PUSH2 0x1FF JUMP JUMPDEST JUMPDEST PUSH2 0x302 DUP5 DUP3 DUP6 PUSH2 0x2BB JUMP JUMPDEST POP SWAP4 SWAP3 POP POP POP JUMP JUMPDEST PUSH0 DUP3 PUSH1 0x1F DUP4 ADD SLT PUSH2 0x31E JUMPI PUSH2 0x31D PUSH2 0x1FB JUMP JUMPDEST JUMPDEST DUP2 MLOAD PUSH2 0x32E DUP5 DUP3 PUSH1 0x20 DUP7 ADD PUSH2 0x2C9 JUMP JUMPDEST SWAP2 POP POP SWAP3 SWAP2 POP POP JUMP JUMPDEST PUSH0 PUSH0 PUSH1 0x40 DUP4 DUP6 SUB SLT ISZERO PUSH2 0x34D JUMPI PUSH2 0x34C PUSH2 0x1F3 JUMP JUMPDEST JUMPDEST PUSH0 DUP4 ADD MLOAD PUSH8 0xFFFFFFFFFFFFFFFF DUP2 GT ISZERO PUSH2 0x36A JUMPI PUSH2 0x369 PUSH2 0x1F7 JUMP JUMPDEST JUMPDEST PUSH2 0x376 DUP6 DUP3 DUP7 ADD PUSH2 0x30A JUMP JUMPDEST SWAP3 POP POP PUSH1 0x20 DUP4 ADD MLOAD PUSH8 0xFFFFFFFFFFFFFFFF DUP2 GT ISZERO PUSH2 0x397 JUMPI PUSH2 0x396 PUSH2 0x1F7 JUMP JUMPDEST JUMPDEST PUSH2 0x3A3 DUP6 DUP3 DUP7 ADD PUSH2 0x30A JUMP JUMPDEST SWAP2 POP POP SWAP3 POP SWAP3 SWAP1 POP JUMP JUMPDEST PUSH0 DUP2 MLOAD SWAP1 POP SWAP2 SWAP1 POP JUMP JUMPDEST PUSH32 0x4E487B7100000000000000000000000000000000000000000000000000000000 PUSH0 MSTORE PUSH1 0x22 PUSH1 0x4 MSTORE PUSH1 0x24 PUSH0 REVERT JUMPDEST PUSH0 PUSH1 0x2 DUP3 DIV SWAP1 POP PUSH1 0x1 DUP3 AND DUP1 PUSH2 0x3FB JUMPI PUSH1 0x7F DUP3 AND SWAP2 POP JUMPDEST PUSH1 0x20 DUP3 LT DUP2 SUB PUSH2 0x40E JUMPI PUSH2 0x40D PUSH2 0x3B7 JUMP JUMPDEST JUMPDEST POP SWAP2 SWAP1 POP JUMP JUMPDEST PUSH0 DUP2 SWAP1 POP DUP2 PUSH0 MSTORE PUSH1 0x20 PUSH0 KECCAK256 SWAP1 POP SWAP2 SWAP1 POP JUMP JUMPDEST PUSH0 PUSH1 0x20 PUSH1 0x1F DUP4 ADD DIV SWAP1 POP SWAP2 SWAP1 POP JUMP JUMPDEST PUSH0 DUP3 DUP3 SHL SWAP1 POP SWAP3 SWAP2 POP POP JUMP JUMPDEST PUSH0 PUSH1 0x8 DUP4 MUL PUSH2 0x470 PUSH32 0xFFFFFFFFFFFFFFFFFFFFFFFFFFFFFFFFFFFFFFFFFFFFFFFFFFFFFFFFFFFFFFFF DUP3 PUSH2 0x435 JUMP JUMPDEST PUSH2 0x47A DUP7 DUP4 PUSH2 0x435 JUMP JUMPDEST SWAP6 POP DUP1 NOT DUP5 AND SWAP4 POP DUP1 DUP7 AND DUP5 OR SWAP3 POP POP POP SWAP4 SWAP3 POP POP POP JUMP JUMPDEST PUSH0 DUP2 SWAP1 POP SWAP2 SWAP1 POP JUMP JUMPDEST PUSH0 DUP2 SWAP1 POP SWAP2 SWAP1 POP JUMP JUMPDEST PUSH0 PUSH2 0x4BE PUSH2 0x4B9 PUSH2 0x4B4 DUP5 PUSH2 0x492 JUMP JUMPDEST PUSH2 0x49B JUMP JUMPDEST PUSH2 0x492 JUMP JUMPDEST SWAP1 POP SWAP2 SWAP1 POP JUMP JUMPDEST PUSH0 DUP2 SWAP1 POP SWAP2 SWAP1 POP JUMP JUMPDEST PUSH2 0x4D7 DUP4 PUSH2 0x4A4 JUMP JUMPDEST PUSH2 0x4EB PUSH2 0x4E3 DUP3 PUSH2 0x4C5 JUMP JUMPDEST DUP5 DUP5 SLOAD PUSH2 0x441 JUMP JUMPDEST DUP3 SSTORE POP POP POP POP JUMP JUMPDEST PUSH0 PUSH0 SWAP1 POP SWAP1 JUMP JUMPDEST PUSH2 0x502 PUSH2 0x4F3 JUMP JUMPDEST PUSH2 0x50D DUP2 DUP5 DUP5 PUSH2 0x4CE JUMP JUMPDEST POP POP POP JUMP JUMPDEST JUMPDEST DUP2 DUP2 LT ISZERO PUSH2 0x530 JUMPI PUSH2 0x525 PUSH0 DUP3 PUSH2 0x4FA JUMP JUMPDEST PUSH1 0x1 DUP2 ADD SWAP1 POP PUSH2 0x513 JUMP JUMPDEST POP POP JUMP JUMPDEST PUSH1 0x1F DUP3 GT ISZERO PUSH2 0x575 JUMPI PUSH2 0x546 DUP2 PUSH2 0x414 JUMP JUMPDEST PUSH2 0x54F DUP5 PUSH2 0x426 JUMP JUMPDEST DUP2 ADD PUSH1 0x20 DUP6 LT ISZERO PUSH2 0x55E JUMPI DUP2 SWAP1 POP JUMPDEST PUSH2 0x572 PUSH2 0x56A DUP6 PUSH2 0x426 JUMP JUMPDEST DUP4 ADD DUP3 PUSH2 0x512 JUMP JUMPDEST POP POP JUMPDEST POP POP POP JUMP JUMPDEST PUSH0 DUP3 DUP3 SHR SWAP1 POP SWAP3 SWAP2 POP POP JUMP JUMPDEST PUSH0 PUSH2 0x595 PUSH0 NOT DUP5 PUSH1 0x8 MUL PUSH2 0x57A JUMP JUMPDEST NOT DUP1 DUP4 AND SWAP2 POP POP SWAP3 SWAP2 POP POP JUMP JUMPDEST PUSH0 PUSH2 0x5AD DUP4 DUP4 PUSH2 0x586 JUMP JUMPDEST SWAP2 POP DUP3 PUSH1 0x2 MUL DUP3 OR SWAP1 POP SWAP3 SWAP2 POP POP JUMP JUMPDEST PUSH2 0x5C6 DUP3 PUSH2 0x3AD JUMP JUMPDEST PUSH8 0xFFFFFFFFFFFFFFFF DUP2 GT ISZERO PUSH2 0x5DF JUMPI PUSH2 0x5DE PUSH2 0x213 JUMP JUMPDEST JUMPDEST PUSH2 0x5E9 DUP3 SLOAD PUSH2 0x3E4 JUMP JUMPDEST PUSH2 0x5F4 DUP3 DUP3 DUP6 PUSH2 0x534 JUMP JUMPDEST PUSH0 PUSH1 0x20 SWAP1 POP PUSH1 0x1F DUP4 GT PUSH1 0x1 DUP2 EQ PUSH2 0x625 JUMPI PUSH0 DUP5 ISZERO PUSH2 0x613 JUMPI DUP3 DUP8 ADD MLOAD SWAP1 POP JUMPDEST PUSH2 0x61D DUP6 DUP3 PUSH2 0x5A2 JUMP JUMPDEST DUP7 SSTORE POP PUSH2 0x684 JUMP JUMPDEST PUSH1 0x1F NOT DUP5 AND PUSH2 0x633 DUP7 PUSH2 0x414 JUMP JUMPDEST PUSH0 JUMPDEST DUP3 DUP2 LT ISZERO PUSH2 0x65A JUMPI DUP5 DUP10 ADD MLOAD DUP3 SSTORE PUSH1 0x1 DUP3 ADD SWAP2 POP PUSH1 0x20 DUP6 ADD SWAP5 POP PUSH1 0x20 DUP2 ADD SWAP1 POP PUSH2 0x635 JUMP JUMPDEST DUP7 DUP4 LT ISZERO PUSH2 0x677 JUMPI DUP5 DUP10 ADD MLOAD PUSH2 0x673 PUSH1 0x1F DUP10 AND DUP3 PUSH2 0x586 JUMP JUMPDEST DUP4 SSTORE POP JUMPDEST PUSH1 0x1 PUSH1 0x2 DUP9 MUL ADD DUP9 SSTORE POP POP POP JUMPDEST POP POP POP POP POP POP JUMP JUMPDEST PUSH32 0x4E487B7100000000000000000000000000000000000000000000000000000000 PUSH0 MSTORE PUSH1 0x11 PUSH1 0x4 MSTORE PUSH1 0x24 PUSH0 REVERT JUMPDEST PUSH0 PUSH2 0x6C3 DUP3 PUSH2 0x492 JUMP JUMPDEST SWAP2 POP PUSH2 0x6CE DUP4 PUSH2 0x492 JUMP JUMPDEST SWAP3 POP DUP3 DUP3 MUL PUSH2 0x6DC DUP2 PUSH2 0x492 JUMP JUMPDEST SWAP2 POP DUP3 DUP3 DIV DUP5 EQ DUP4 ISZERO OR PUSH2 0x6F3 JUMPI PUSH2 0x6F2 PUSH2 0x68C JUMP JUMPDEST JUMPDEST POP SWAP3 SWAP2 POP POP JUMP JUMPDEST PUSH0 PUSH2 0x704 DUP3 PUSH2 0x492 JUMP JUMPDEST SWAP2 POP PUSH2 0x70F DUP4 PUSH2 0x492 JUMP JUMPDEST SWAP3 POP DUP3 DUP3 ADD SWAP1 POP DUP1 DUP3 GT ISZERO PUSH2 0x727 JUMPI PUSH2 0x726 PUSH2 0x68C JUMP JUMPDEST JUMPDEST SWAP3 SWAP2 POP POP JUMP JUMPDEST PUSH2 0x736 DUP2 PUSH2 0x492 JUMP JUMPDEST DUP3 MSTORE POP POP JUMP JUMPDEST PUSH0 PUSH1 0x20 DUP3 ADD SWAP1 POP PUSH2 0x74F PUSH0 DUP4 ADD DUP5 PUSH2 0x72D JUMP JUMPDEST SWAP3 SWAP2 POP POP JUMP JUMPDEST PUSH2 0x121B DUP1 PUSH2 0x762 PUSH0 CODECOPY PUSH0 RETURN INVALID PUSH1 0x80 PUSH1 0x40 MSTORE CALLVALUE DUP1 ISZERO PUSH2 0xF JUMPI PUSH0 PUSH0 REVERT JUMPDEST POP PUSH1 0x4 CALLDATASIZE LT PUSH2 0x91 JUMPI PUSH0 CALLDATALOAD PUSH1 0xE0 SHR DUP1 PUSH4 0x76809CE3 GT PUSH2 0x64 JUMPI DUP1 PUSH4 0x76809CE3 EQ PUSH2 0x11B JUMPI DUP1 PUSH4 0x862B092B EQ PUSH2 0x139 JUMPI DUP1 PUSH4 0xA9059CBB EQ PUSH2 0x157 JUMPI DUP1 PUSH4 0xC4E41B22 EQ PUSH2 0x173 JUMPI DUP1 PUSH4 0xDD62ED3E EQ PUSH2 0x191 JUMPI PUSH2 0x91 JUMP JUMPDEST DUP1 PUSH4 0x95EA7B3 EQ PUSH2 0x95 JUMPI DUP1 PUSH4 0x15070401 EQ PUSH2 0xB1 JUMPI DUP1 PUSH4 0x23B872DD EQ PUSH2 0xCF JUMPI DUP1 PUSH4 0x70A08231 EQ PUSH2 0xEB JUMPI JUMPDEST PUSH0 PUSH0 REVERT JUMPDEST PUSH2 0xAF PUSH1 0x4 DUP1 CALLDATASIZE SUB DUP2 ADD SWAP1 PUSH2 0xAA SWAP2 SWAP1 PUSH2 0xD16 JUMP JUMPDEST PUSH2 0x1C1 JUMP JUMPDEST STOP JUMPDEST PUSH2 0xB9 PUSH2 0x326 JUMP JUMPDEST PUSH1 0x40 MLOAD PUSH2 0xC6 SWAP2 SWAP1 PUSH2 0xDC4 JUMP JUMPDEST PUSH1 0x40 MLOAD DUP1 SWAP2 SUB SWAP1 RETURN JUMPDEST PUSH2 0xE9 PUSH1 0x4 DUP1 CALLDATASIZE SUB DUP2 ADD SWAP1 PUSH2 0xE4 SWAP2 SWAP1 PUSH2 0xDE4 JUMP JUMPDEST PUSH2 0x3B6 JUMP JUMPDEST STOP JUMPDEST PUSH2 0x105 PUSH1 0x4 DUP1 CALLDATASIZE SUB DUP2 ADD SWAP1 PUSH2 0x100 SWAP2 SWAP1 PUSH2 0xE34 JUMP JUMPDEST PUSH2 0x796 JUMP JUMPDEST PUSH1 0x40 MLOAD PUSH2 0x112 SWAP2 SWAP1 PUSH2 0xE6E JUMP JUMPDEST PUSH1 0x40 MLOAD DUP1 SWAP2 SUB SWAP1 RETURN JUMPDEST PUSH2 0x123 PUSH2 0x7DC JUMP JUMPDEST PUSH1 0x40 MLOAD PUSH2 0x130 SWAP2 SWAP1 PUSH2 0xEA2 JUMP JUMPDEST PUSH1 0x40 MLOAD DUP1 SWAP2 SUB SWAP1 RETURN JUMPDEST PUSH2 0x141 PUSH2 0x7E4 JUMP JUMPDEST PUSH1 0x40 MLOAD PUSH2 0x14E SWAP2 SWAP1 PUSH2 0xDC4 JUMP JUMPDEST PUSH1 0x40 MLOAD DUP1 SWAP2 SUB SWAP1 RETURN JUMPDEST PUSH2 0x171 PUSH1 0x4 DUP1 CALLDATASIZE SUB DUP2 ADD SWAP1 PUSH2 0x16C SWAP2 SWAP1 PUSH2 0xD16 JUMP JUMPDEST PUSH2 0x873 JUMP JUMPDEST STOP JUMPDEST PUSH2 0x17B PUSH2 0xAD2 JUMP JUMPDEST PUSH1 0x40 MLOAD PUSH2 0x188 SWAP2 SWAP1 PUSH2 0xE6E JUMP JUMPDEST PUSH1 0x40 MLOAD DUP1 SWAP2 SUB SWAP1 RETURN JUMPDEST PUSH2 0x1AB PUSH1 0x4 DUP1 CALLDATASIZE SUB DUP2 ADD SWAP1 PUSH2 0x1A6 SWAP2 SWAP1 PUSH2 0xEBB JUMP JUMPDEST PUSH2 0xADB JUMP JUMPDEST PUSH1 0x40 MLOAD PUSH2 0x1B8 SWAP2 SWAP1 PUSH2 0xE6E JUMP JUMPDEST PUSH1 0x40 MLOAD DUP1 SWAP2 SUB SWAP1 RETURN JUMPDEST DUP1 PUSH1 0x4 PUSH0 CALLER PUSH20 0xFFFFFFFFFFFFFFFFFFFFFFFFFFFFFFFFFFFFFFFF AND PUSH20 0xFFFFFFFFFFFFFFFFFFFFFFFFFFFFFFFFFFFFFFFF AND DUP2 MSTORE PUSH1 0x20 ADD SWAP1 DUP2 MSTORE PUSH1 0x20 ADD PUSH0 KECCAK256 SLOAD GT PUSH2 0x240 JUMPI PUSH1 0x40 MLOAD PUSH32 0x8C379A000000000000000000000000000000000000000000000000000000000 DUP2 MSTORE PUSH1 0x4 ADD PUSH2 0x237 SWAP1 PUSH2 0xF43 JUMP JUMPDEST PUSH1 0x40 MLOAD DUP1 SWAP2 SUB SWAP1 REVERT JUMPDEST DUP1 PUSH1 0x5 PUSH0 CALLER PUSH20 0xFFFFFFFFFFFFFFFFFFFFFFFFFFFFFFFFFFFFFFFF AND PUSH20 0xFFFFFFFFFFFFFFFFFFFFFFFFFFFFFFFFFFFFFFFF AND DUP2 MSTORE PUSH1 0x20 ADD SWAP1 DUP2 MSTORE PUSH1 0x20 ADD PUSH0 KECCAK256 PUSH0 DUP5 PUSH20 0xFFFFFFFFFFFFFFFFFFFFFFFFFFFFFFFFFFFFFFFF AND PUSH20 0xFFFFFFFFFFFFFFFFFFFFFFFFFFFFFFFFFFFFFFFF AND DUP2 MSTORE PUSH1 0x20 ADD SWAP1 DUP2 MSTORE PUSH1 0x20 ADD PUSH0 KECCAK256 DUP2 SWAP1 SSTORE POP DUP2 PUSH20 0xFFFFFFFFFFFFFFFFFFFFFFFFFFFFFFFFFFFFFFFF AND CALLER PUSH20 0xFFFFFFFFFFFFFFFFFFFFFFFFFFFFFFFFFFFFFFFF AND PUSH32 0x8C5BE1E5EBEC7D5BD14F71427D1E84F3DD0314C0F7B2291E5B200AC8C7C3B925 DUP4 PUSH1 0x40 MLOAD PUSH2 0x31A SWAP2 SWAP1 PUSH2 0xE6E JUMP JUMPDEST PUSH1 0x40 MLOAD DUP1 SWAP2 SUB SWAP1 LOG3 POP POP JUMP JUMPDEST PUSH1 0x60 PUSH1 0x1 DUP1 SLOAD PUSH2 0x335 SWAP1 PUSH2 0xF8E JUMP JUMPDEST DUP1 PUSH1 0x1F ADD PUSH1 0x20 DUP1 SWAP2 DIV MUL PUSH1 0x20 ADD PUSH1 0x40 MLOAD SWAP1 DUP2 ADD PUSH1 0x40 MSTORE DUP1 SWAP3 SWAP2 SWAP1 DUP2 DUP2 MSTORE PUSH1 0x20 ADD DUP3 DUP1 SLOAD PUSH2 0x361 SWAP1 PUSH2 0xF8E JUMP JUMPDEST DUP1 ISZERO PUSH2 0x3AC JUMPI DUP1 PUSH1 0x1F LT PUSH2 0x383 JUMPI PUSH2 0x100 DUP1 DUP4 SLOAD DIV MUL DUP4 MSTORE SWAP2 PUSH1 0x20 ADD SWAP2 PUSH2 0x3AC JUMP JUMPDEST DUP3 ADD SWAP2 SWAP1 PUSH0 MSTORE PUSH1 0x20 PUSH0 KECCAK256 SWAP1 JUMPDEST DUP2 SLOAD DUP2 MSTORE SWAP1 PUSH1 0x1 ADD SWAP1 PUSH1 0x20 ADD DUP1 DUP4 GT PUSH2 0x38F JUMPI DUP3 SWAP1 SUB PUSH1 0x1F AND DUP3 ADD SWAP2 JUMPDEST POP POP POP POP POP SWAP1 POP SWAP1 JUMP JUMPDEST PUSH0 PUSH20 0xFFFFFFFFFFFFFFFFFFFFFFFFFFFFFFFFFFFFFFFF AND DUP4 PUSH20 0xFFFFFFFFFFFFFFFFFFFFFFFFFFFFFFFFFFFFFFFF AND SUB PUSH2 0x424 JUMPI PUSH1 0x40 MLOAD PUSH32 0x8C379A000000000000000000000000000000000000000000000000000000000 DUP2 MSTORE PUSH1 0x4 ADD PUSH2 0x41B SWAP1 PUSH2 0x1008 JUMP JUMPDEST PUSH1 0x40 MLOAD DUP1 SWAP2 SUB SWAP1 REVERT JUMPDEST PUSH0 PUSH20 0xFFFFFFFFFFFFFFFFFFFFFFFFFFFFFFFFFFFFFFFF AND DUP3 PUSH20 0xFFFFFFFFFFFFFFFFFFFFFFFFFFFFFFFFFFFFFFFF AND SUB PUSH2 0x492 JUMPI PUSH1 0x40 MLOAD PUSH32 0x8C379A000000000000000000000000000000000000000000000000000000000 DUP2 MSTORE PUSH1 0x4 ADD PUSH2 0x489 SWAP1 PUSH2 0x1008 JUMP JUMPDEST PUSH1 0x40 MLOAD DUP1 SWAP2 SUB SWAP1 REVERT JUMPDEST PUSH1 0x4 PUSH0 DUP5 PUSH20 0xFFFFFFFFFFFFFFFFFFFFFFFFFFFFFFFFFFFFFFFF AND PUSH20 0xFFFFFFFFFFFFFFFFFFFFFFFFFFFFFFFFFFFFFFFF AND DUP2 MSTORE PUSH1 0x20 ADD SWAP1 DUP2 MSTORE PUSH1 0x20 ADD PUSH0 KECCAK256 SLOAD DUP2 GT ISZERO PUSH2 0x4DB JUMPI PUSH0 PUSH0 REVERT JUMPDEST PUSH1 0x5 PUSH0 DUP5 PUSH20 0xFFFFFFFFFFFFFFFFFFFFFFFFFFFFFFFFFFFFFFFF AND PUSH20 0xFFFFFFFFFFFFFFFFFFFFFFFFFFFFFFFFFFFFFFFF AND DUP2 MSTORE PUSH1 0x20 ADD SWAP1 DUP2 MSTORE PUSH1 0x20 ADD PUSH0 KECCAK256 PUSH0 CALLER PUSH20 0xFFFFFFFFFFFFFFFFFFFFFFFFFFFFFFFFFFFFFFFF AND PUSH20 0xFFFFFFFFFFFFFFFFFFFFFFFFFFFFFFFFFFFFFFFF AND DUP2 MSTORE PUSH1 0x20 ADD SWAP1 DUP2 MSTORE PUSH1 0x20 ADD PUSH0 KECCAK256 SLOAD DUP2 GT ISZERO PUSH2 0x55F JUMPI PUSH0 PUSH0 REVERT JUMPDEST DUP1 PUSH1 0x4 PUSH0 DUP6 PUSH20 0xFFFFFFFFFFFFFFFFFFFFFFFFFFFFFFFFFFFFFFFF AND PUSH20 0xFFFFFFFFFFFFFFFFFFFFFFFFFFFFFFFFFFFFFFFF AND DUP2 MSTORE PUSH1 0x20 ADD SWAP1 DUP2 MSTORE PUSH1 0x20 ADD PUSH0 KECCAK256 SLOAD PUSH2 0x5A8 SWAP2 SWAP1 PUSH2 0x1053 JUMP JUMPDEST PUSH1 0x4 PUSH0 DUP6 PUSH20 0xFFFFFFFFFFFFFFFFFFFFFFFFFFFFFFFFFFFFFFFF AND PUSH20 0xFFFFFFFFFFFFFFFFFFFFFFFFFFFFFFFFFFFFFFFF AND DUP2 MSTORE PUSH1 0x20 ADD SWAP1 DUP2 MSTORE PUSH1 0x20 ADD PUSH0 KECCAK256 DUP2 SWAP1 SSTORE POP DUP1 PUSH1 0x5 PUSH0 DUP6 PUSH20 0xFFFFFFFFFFFFFFFFFFFFFFFFFFFFFFFFFFFFFFFF AND PUSH20 0xFFFFFFFFFFFFFFFFFFFFFFFFFFFFFFFFFFFFFFFF AND DUP2 MSTORE PUSH1 0x20 ADD SWAP1 DUP2 MSTORE PUSH1 0x20 ADD PUSH0 KECCAK256 PUSH0 CALLER PUSH20 0xFFFFFFFFFFFFFFFFFFFFFFFFFFFFFFFFFFFFFFFF AND PUSH20 0xFFFFFFFFFFFFFFFFFFFFFFFFFFFFFFFFFFFFFFFF AND DUP2 MSTORE PUSH1 0x20 ADD SWAP1 DUP2 MSTORE PUSH1 0x20 ADD PUSH0 KECCAK256 PUSH0 DUP3 DUP3 SLOAD PUSH2 0x670 SWAP2 SWAP1 PUSH2 0x1053 JUMP JUMPDEST SWAP3 POP POP DUP2 SWAP1 SSTORE POP DUP1 PUSH1 0x4 PUSH0 DUP5 PUSH20 0xFFFFFFFFFFFFFFFFFFFFFFFFFFFFFFFFFFFFFFFF AND PUSH20 0xFFFFFFFFFFFFFFFFFFFFFFFFFFFFFFFFFFFFFFFF AND DUP2 MSTORE PUSH1 0x20 ADD SWAP1 DUP2 MSTORE PUSH1 0x20 ADD PUSH0 KECCAK256 SLOAD PUSH2 0x6C0 SWAP2 SWAP1 PUSH2 0x1086 JUMP JUMPDEST PUSH1 0x4 PUSH0 DUP5 PUSH20 0xFFFFFFFFFFFFFFFFFFFFFFFFFFFFFFFFFFFFFFFF AND PUSH20 0xFFFFFFFFFFFFFFFFFFFFFFFFFFFFFFFFFFFFFFFF AND DUP2 MSTORE PUSH1 0x20 ADD SWAP1 DUP2 MSTORE PUSH1 0x20 ADD PUSH0 KECCAK256 DUP2 SWAP1 SSTORE POP PUSH0 PUSH2 0x70B DUP3 PUSH2 0xB5D JUMP JUMPDEST SWAP1 POP DUP1 PUSH1 0x2 SLOAD PUSH2 0x71B SWAP2 SWAP1 PUSH2 0x1053 JUMP JUMPDEST PUSH1 0x2 DUP2 SWAP1 SSTORE POP PUSH2 0x72B DUP5 DUP3 PUSH2 0xB7E JUMP JUMPDEST DUP3 PUSH20 0xFFFFFFFFFFFFFFFFFFFFFFFFFFFFFFFFFFFFFFFF AND DUP5 PUSH20 0xFFFFFFFFFFFFFFFFFFFFFFFFFFFFFFFFFFFFFFFF AND PUSH32 0xDDF252AD1BE2C89B69C2B068FC378DAA952BA7F163C4A11628F55A4DF523B3EF DUP5 PUSH1 0x40 MLOAD PUSH2 0x788 SWAP2 SWAP1 PUSH2 0xE6E JUMP JUMPDEST PUSH1 0x40 MLOAD DUP1 SWAP2 SUB SWAP1 LOG3 POP POP POP POP JUMP JUMPDEST PUSH0 PUSH1 0x4 PUSH0 DUP4 PUSH20 0xFFFFFFFFFFFFFFFFFFFFFFFFFFFFFFFFFFFFFFFF AND PUSH20 0xFFFFFFFFFFFFFFFFFFFFFFFFFFFFFFFFFFFFFFFF AND DUP2 MSTORE PUSH1 0x20 ADD SWAP1 DUP2 MSTORE PUSH1 0x20 ADD PUSH0 KECCAK256 SLOAD SWAP1 POP SWAP2 SWAP1 POP JUMP JUMPDEST PUSH0 PUSH1 0x12 SWAP1 POP SWAP1 JUMP JUMPDEST PUSH1 0x60 PUSH0 DUP1 SLOAD PUSH2 0x7F2 SWAP1 PUSH2 0xF8E JUMP JUMPDEST DUP1 PUSH1 0x1F ADD PUSH1 0x20 DUP1 SWAP2 DIV MUL PUSH1 0x20 ADD PUSH1 0x40 MLOAD SWAP1 DUP2 ADD PUSH1 0x40 MSTORE DUP1 SWAP3 SWAP2 SWAP1 DUP2 DUP2 MSTORE PUSH1 0x20 ADD DUP3 DUP1 SLOAD PUSH2 0x81E SWAP1 PUSH2 0xF8E JUMP JUMPDEST DUP1 ISZERO PUSH2 0x869 JUMPI DUP1 PUSH1 0x1F LT PUSH2 0x840 JUMPI PUSH2 0x100 DUP1 DUP4 SLOAD DIV MUL DUP4 MSTORE SWAP2 PUSH1 0x20 ADD SWAP2 PUSH2 0x869 JUMP JUMPDEST DUP3 ADD SWAP2 SWAP1 PUSH0 MSTORE PUSH1 0x20 PUSH0 KECCAK256 SWAP1 JUMPDEST DUP2 SLOAD DUP2 MSTORE SWAP1 PUSH1 0x1 ADD SWAP1 PUSH1 0x20 ADD DUP1 DUP4 GT PUSH2 0x84C JUMPI DUP3 SWAP1 SUB PUSH1 0x1F AND DUP3 ADD SWAP2 JUMPDEST POP POP POP POP POP SWAP1 POP SWAP1 JUMP JUMPDEST PUSH0 PUSH20 0xFFFFFFFFFFFFFFFFFFFFFFFFFFFFFFFFFFFFFFFF AND DUP3 PUSH20 0xFFFFFFFFFFFFFFFFFFFFFFFFFFFFFFFFFFFFFFFF AND SUB PUSH2 0x8E1 JUMPI PUSH1 0x40 MLOAD PUSH32 0x8C379A000000000000000000000000000000000000000000000000000000000 DUP2 MSTORE PUSH1 0x4 ADD PUSH2 0x8D8 SWAP1 PUSH2 0x1008 JUMP JUMPDEST PUSH1 0x40 MLOAD DUP1 SWAP2 SUB SWAP1 REVERT JUMPDEST PUSH1 0x4 PUSH0 CALLER PUSH20 0xFFFFFFFFFFFFFFFFFFFFFFFFFFFFFFFFFFFFFFFF AND PUSH20 0xFFFFFFFFFFFFFFFFFFFFFFFFFFFFFFFFFFFFFFFF AND DUP2 MSTORE PUSH1 0x20 ADD SWAP1 DUP2 MSTORE PUSH1 0x20 ADD PUSH0 KECCAK256 SLOAD DUP2 GT ISZERO PUSH2 0x961 JUMPI PUSH1 0x40 MLOAD PUSH32 0x8C379A000000000000000000000000000000000000000000000000000000000 DUP2 MSTORE PUSH1 0x4 ADD PUSH2 0x958 SWAP1 PUSH2 0x1129 JUMP JUMPDEST PUSH1 0x40 MLOAD DUP1 SWAP2 SUB SWAP1 REVERT JUMPDEST DUP1 PUSH1 0x4 PUSH0 CALLER PUSH20 0xFFFFFFFFFFFFFFFFFFFFFFFFFFFFFFFFFFFFFFFF AND PUSH20 0xFFFFFFFFFFFFFFFFFFFFFFFFFFFFFFFFFFFFFFFF AND DUP2 MSTORE PUSH1 0x20 ADD SWAP1 DUP2 MSTORE PUSH1 0x20 ADD PUSH0 KECCAK256 PUSH0 DUP3 DUP3 SLOAD PUSH2 0x9AD SWAP2 SWAP1 PUSH2 0x1053 JUMP JUMPDEST SWAP3 POP POP DUP2 SWAP1 SSTORE POP DUP1 PUSH1 0x4 PUSH0 DUP5 PUSH20 0xFFFFFFFFFFFFFFFFFFFFFFFFFFFFFFFFFFFFFFFF AND PUSH20 0xFFFFFFFFFFFFFFFFFFFFFFFFFFFFFFFFFFFFFFFF AND DUP2 MSTORE PUSH1 0x20 ADD SWAP1 DUP2 MSTORE PUSH1 0x20 ADD PUSH0 KECCAK256 SLOAD PUSH2 0x9FD SWAP2 SWAP1 PUSH2 0x1086 JUMP JUMPDEST PUSH1 0x4 PUSH0 DUP5 PUSH20 0xFFFFFFFFFFFFFFFFFFFFFFFFFFFFFFFFFFFFFFFF AND PUSH20 0xFFFFFFFFFFFFFFFFFFFFFFFFFFFFFFFFFFFFFFFF AND DUP2 MSTORE PUSH1 0x20 ADD SWAP1 DUP2 MSTORE PUSH1 0x20 ADD PUSH0 KECCAK256 DUP2 SWAP1 SSTORE POP PUSH0 PUSH2 0xA48 DUP3 PUSH2 0xB5D JUMP JUMPDEST SWAP1 POP DUP1 PUSH1 0x2 SLOAD PUSH2 0xA58 SWAP2 SWAP1 PUSH2 0x1053 JUMP JUMPDEST PUSH1 0x2 DUP2 SWAP1 SSTORE POP PUSH2 0xA68 CALLER DUP3 PUSH2 0xB7E JUMP JUMPDEST DUP3 PUSH20 0xFFFFFFFFFFFFFFFFFFFFFFFFFFFFFFFFFFFFFFFF AND CALLER PUSH20 0xFFFFFFFFFFFFFFFFFFFFFFFFFFFFFFFFFFFFFFFF AND PUSH32 0xDDF252AD1BE2C89B69C2B068FC378DAA952BA7F163C4A11628F55A4DF523B3EF DUP5 PUSH1 0x40 MLOAD PUSH2 0xAC5 SWAP2 SWAP1 PUSH2 0xE6E JUMP JUMPDEST PUSH1 0x40 MLOAD DUP1 SWAP2 SUB SWAP1 LOG3 POP POP POP JUMP JUMPDEST PUSH0 PUSH1 0x2 SLOAD SWAP1 POP SWAP1 JUMP JUMPDEST PUSH0 PUSH1 0x5 PUSH0 DUP5 PUSH20 0xFFFFFFFFFFFFFFFFFFFFFFFFFFFFFFFFFFFFFFFF AND PUSH20 0xFFFFFFFFFFFFFFFFFFFFFFFFFFFFFFFFFFFFFFFF AND DUP2 MSTORE PUSH1 0x20 ADD SWAP1 DUP2 MSTORE PUSH1 0x20 ADD PUSH0 KECCAK256 PUSH0 DUP4 PUSH20 0xFFFFFFFFFFFFFFFFFFFFFFFFFFFFFFFFFFFFFFFF AND PUSH20 0xFFFFFFFFFFFFFFFFFFFFFFFFFFFFFFFFFFFFFFFF AND DUP2 MSTORE PUSH1 0x20 ADD SWAP1 DUP2 MSTORE PUSH1 0x20 ADD PUSH0 KECCAK256 SLOAD SWAP1 POP SWAP3 SWAP2 POP POP JUMP JUMPDEST PUSH0 PUSH1 0x64 PUSH1 0x5 DUP4 PUSH2 0xB6D SWAP2 SWAP1 PUSH2 0x1147 JUMP JUMPDEST PUSH2 0xB77 SWAP2 SWAP1 PUSH2 0x11B5 JUMP JUMPDEST SWAP1 POP SWAP2 SWAP1 POP JUMP JUMPDEST DUP1 PUSH1 0x4 PUSH0 DUP5 PUSH20 0xFFFFFFFFFFFFFFFFFFFFFFFFFFFFFFFFFFFFFFFF AND PUSH20 0xFFFFFFFFFFFFFFFFFFFFFFFFFFFFFFFFFFFFFFFF AND DUP2 MSTORE PUSH1 0x20 ADD SWAP1 DUP2 MSTORE PUSH1 0x20 ADD PUSH0 KECCAK256 SLOAD PUSH2 0xBC7 SWAP2 SWAP1 PUSH2 0x1053 JUMP JUMPDEST PUSH1 0x4 PUSH0 DUP5 PUSH20 0xFFFFFFFFFFFFFFFFFFFFFFFFFFFFFFFFFFFFFFFF AND PUSH20 0xFFFFFFFFFFFFFFFFFFFFFFFFFFFFFFFFFFFFFFFF AND DUP2 MSTORE PUSH1 0x20 ADD SWAP1 DUP2 MSTORE PUSH1 0x20 ADD PUSH0 KECCAK256 DUP2 SWAP1 SSTORE POP DUP1 PUSH1 0x2 SLOAD PUSH2 0xC16 SWAP2 SWAP1 PUSH2 0x1053 JUMP JUMPDEST PUSH1 0x2 DUP2 SWAP1 SSTORE POP PUSH0 PUSH20 0xFFFFFFFFFFFFFFFFFFFFFFFFFFFFFFFFFFFFFFFF AND DUP3 PUSH20 0xFFFFFFFFFFFFFFFFFFFFFFFFFFFFFFFFFFFFFFFF AND PUSH32 0xDDF252AD1BE2C89B69C2B068FC378DAA952BA7F163C4A11628F55A4DF523B3EF DUP4 PUSH1 0x40 MLOAD PUSH2 0xC79 SWAP2 SWAP1 PUSH2 0xE6E JUMP JUMPDEST PUSH1 0x40 MLOAD DUP1 SWAP2 SUB SWAP1 LOG3 POP POP JUMP JUMPDEST PUSH0 PUSH0 REVERT JUMPDEST PUSH0 PUSH20 0xFFFFFFFFFFFFFFFFFFFFFFFFFFFFFFFFFFFFFFFF DUP3 AND SWAP1 POP SWAP2 SWAP1 POP JUMP JUMPDEST PUSH0 PUSH2 0xCB2 DUP3 PUSH2 0xC89 JUMP JUMPDEST SWAP1 POP SWAP2 SWAP1 POP JUMP JUMPDEST PUSH2 0xCC2 DUP2 PUSH2 0xCA8 JUMP JUMPDEST DUP2 EQ PUSH2 0xCCC JUMPI PUSH0 PUSH0 REVERT JUMPDEST POP JUMP JUMPDEST PUSH0 DUP2 CALLDATALOAD SWAP1 POP PUSH2 0xCDD DUP2 PUSH2 0xCB9 JUMP JUMPDEST SWAP3 SWAP2 POP POP JUMP JUMPDEST PUSH0 DUP2 SWAP1 POP SWAP2 SWAP1 POP JUMP JUMPDEST PUSH2 0xCF5 DUP2 PUSH2 0xCE3 JUMP JUMPDEST DUP2 EQ PUSH2 0xCFF JUMPI PUSH0 PUSH0 REVERT JUMPDEST POP JUMP JUMPDEST PUSH0 DUP2 CALLDATALOAD SWAP1 POP PUSH2 0xD10 DUP2 PUSH2 0xCEC JUMP JUMPDEST SWAP3 SWAP2 POP POP JUMP JUMPDEST PUSH0 PUSH0 PUSH1 0x40 DUP4 DUP6 SUB SLT ISZERO PUSH2 0xD2C JUMPI PUSH2 0xD2B PUSH2 0xC85 JUMP JUMPDEST JUMPDEST PUSH0 PUSH2 0xD39 DUP6 DUP3 DUP7 ADD PUSH2 0xCCF JUMP JUMPDEST SWAP3 POP POP PUSH1 0x20 PUSH2 0xD4A DUP6 DUP3 DUP7 ADD PUSH2 0xD02 JUMP JUMPDEST SWAP2 POP POP SWAP3 POP SWAP3 SWAP1 POP JUMP JUMPDEST PUSH0 DUP2 MLOAD SWAP1 POP SWAP2 SWAP1 POP JUMP JUMPDEST PUSH0 DUP3 DUP3 MSTORE PUSH1 0x20 DUP3 ADD SWAP1 POP SWAP3 SWAP2 POP POP JUMP JUMPDEST DUP3 DUP2 DUP4 MCOPY PUSH0 DUP4 DUP4 ADD MSTORE POP POP POP JUMP JUMPDEST PUSH0 PUSH1 0x1F NOT PUSH1 0x1F DUP4 ADD AND SWAP1 POP SWAP2 SWAP1 POP JUMP JUMPDEST PUSH0 PUSH2 0xD96 DUP3 PUSH2 0xD54 JUMP JUMPDEST PUSH2 0xDA0 DUP2 DUP6 PUSH2 0xD5E JUMP JUMPDEST SWAP4 POP PUSH2 0xDB0 DUP2 DUP6 PUSH1 0x20 DUP7 ADD PUSH2 0xD6E JUMP JUMPDEST PUSH2 0xDB9 DUP2 PUSH2 0xD7C JUMP JUMPDEST DUP5 ADD SWAP2 POP POP SWAP3 SWAP2 POP POP JUMP JUMPDEST PUSH0 PUSH1 0x20 DUP3 ADD SWAP1 POP DUP2 DUP2 SUB PUSH0 DUP4 ADD MSTORE PUSH2 0xDDC DUP2 DUP5 PUSH2 0xD8C JUMP JUMPDEST SWAP1 POP SWAP3 SWAP2 POP POP JUMP JUMPDEST PUSH0 PUSH0 PUSH0 PUSH1 0x60 DUP5 DUP7 SUB SLT ISZERO PUSH2 0xDFB JUMPI PUSH2 0xDFA PUSH2 0xC85 JUMP JUMPDEST JUMPDEST PUSH0 PUSH2 0xE08 DUP7 DUP3 DUP8 ADD PUSH2 0xCCF JUMP JUMPDEST SWAP4 POP POP PUSH1 0x20 PUSH2 0xE19 DUP7 DUP3 DUP8 ADD PUSH2 0xCCF JUMP JUMPDEST SWAP3 POP POP PUSH1 0x40 PUSH2 0xE2A DUP7 DUP3 DUP8 ADD PUSH2 0xD02 JUMP JUMPDEST SWAP2 POP POP SWAP3 POP SWAP3 POP SWAP3 JUMP JUMPDEST PUSH0 PUSH1 0x20 DUP3 DUP5 SUB SLT ISZERO PUSH2 0xE49 JUMPI PUSH2 0xE48 PUSH2 0xC85 JUMP JUMPDEST JUMPDEST PUSH0 PUSH2 0xE56 DUP5 DUP3 DUP6 ADD PUSH2 0xCCF JUMP JUMPDEST SWAP2 POP POP SWAP3 SWAP2 POP POP JUMP JUMPDEST PUSH2 0xE68 DUP2 PUSH2 0xCE3 JUMP JUMPDEST DUP3 MSTORE POP POP JUMP JUMPDEST PUSH0 PUSH1 0x20 DUP3 ADD SWAP1 POP PUSH2 0xE81 PUSH0 DUP4 ADD DUP5 PUSH2 0xE5F JUMP JUMPDEST SWAP3 SWAP2 POP POP JUMP JUMPDEST PUSH0 PUSH1 0xFF DUP3 AND SWAP1 POP SWAP2 SWAP1 POP JUMP JUMPDEST PUSH2 0xE9C DUP2 PUSH2 0xE87 JUMP JUMPDEST DUP3 MSTORE POP POP JUMP JUMPDEST PUSH0 PUSH1 0x20 DUP3 ADD SWAP1 POP PUSH2 0xEB5 PUSH0 DUP4 ADD DUP5 PUSH2 0xE93 JUMP JUMPDEST SWAP3 SWAP2 POP POP JUMP JUMPDEST PUSH0 PUSH0 PUSH1 0x40 DUP4 DUP6 SUB SLT ISZERO PUSH2 0xED1 JUMPI PUSH2 0xED0 PUSH2 0xC85 JUMP JUMPDEST JUMPDEST PUSH0 PUSH2 0xEDE DUP6 DUP3 DUP7 ADD PUSH2 0xCCF JUMP JUMPDEST SWAP3 POP POP PUSH1 0x20 PUSH2 0xEEF DUP6 DUP3 DUP7 ADD PUSH2 0xCCF JUMP JUMPDEST SWAP2 POP POP SWAP3 POP SWAP3 SWAP1 POP JUMP JUMPDEST PUSH32 0x42616C616E6365206973206E6F7420656E6F7567680000000000000000000000 PUSH0 DUP3 ADD MSTORE POP JUMP JUMPDEST PUSH0 PUSH2 0xF2D PUSH1 0x15 DUP4 PUSH2 0xD5E JUMP JUMPDEST SWAP2 POP PUSH2 0xF38 DUP3 PUSH2 0xEF9 JUMP JUMPDEST PUSH1 0x20 DUP3 ADD SWAP1 POP SWAP2 SWAP1 POP JUMP JUMPDEST PUSH0 PUSH1 0x20 DUP3 ADD SWAP1 POP DUP2 DUP2 SUB PUSH0 DUP4 ADD MSTORE PUSH2 0xF5A DUP2 PUSH2 0xF21 JUMP JUMPDEST SWAP1 POP SWAP2 SWAP1 POP JUMP JUMPDEST PUSH32 0x4E487B7100000000000000000000000000000000000000000000000000000000 PUSH0 MSTORE PUSH1 0x22 PUSH1 0x4 MSTORE PUSH1 0x24 PUSH0 REVERT JUMPDEST PUSH0 PUSH1 0x2 DUP3 DIV SWAP1 POP PUSH1 0x1 DUP3 AND DUP1 PUSH2 0xFA5 JUMPI PUSH1 0x7F DUP3 AND SWAP2 POP JUMPDEST PUSH1 0x20 DUP3 LT DUP2 SUB PUSH2 0xFB8 JUMPI PUSH2 0xFB7 PUSH2 0xF61 JUMP JUMPDEST JUMPDEST POP SWAP2 SWAP1 POP JUMP JUMPDEST PUSH32 0x41646472657373206973206E6F7420616C6C6F77656400000000000000000000 PUSH0 DUP3 ADD MSTORE POP JUMP JUMPDEST PUSH0 PUSH2 0xFF2 PUSH1 0x16 DUP4 PUSH2 0xD5E JUMP JUMPDEST SWAP2 POP PUSH2 0xFFD DUP3 PUSH2 0xFBE JUMP JUMPDEST PUSH1 0x20 DUP3 ADD SWAP1 POP SWAP2 SWAP1 POP JUMP JUMPDEST PUSH0 PUSH1 0x20 DUP3 ADD SWAP1 POP DUP2 DUP2 SUB PUSH0 DUP4 ADD MSTORE PUSH2 0x101F DUP2 PUSH2 0xFE6 JUMP JUMPDEST SWAP1 POP SWAP2 SWAP1 POP JUMP JUMPDEST PUSH32 0x4E487B7100000000000000000000000000000000000000000000000000000000 PUSH0 MSTORE PUSH1 0x11 PUSH1 0x4 MSTORE PUSH1 0x24 PUSH0 REVERT JUMPDEST PUSH0 PUSH2 0x105D DUP3 PUSH2 0xCE3 JUMP JUMPDEST SWAP2 POP PUSH2 0x1068 DUP4 PUSH2 0xCE3 JUMP JUMPDEST SWAP3 POP DUP3 DUP3 SUB SWAP1 POP DUP2 DUP2 GT ISZERO PUSH2 0x1080 JUMPI PUSH2 0x107F PUSH2 0x1026 JUMP JUMPDEST JUMPDEST SWAP3 SWAP2 POP POP JUMP JUMPDEST PUSH0 PUSH2 0x1090 DUP3 PUSH2 0xCE3 JUMP JUMPDEST SWAP2 POP PUSH2 0x109B DUP4 PUSH2 0xCE3 JUMP JUMPDEST SWAP3 POP DUP3 DUP3 ADD SWAP1 POP DUP1 DUP3 GT ISZERO PUSH2 0x10B3 JUMPI PUSH2 0x10B2 PUSH2 0x1026 JUMP JUMPDEST JUMPDEST SWAP3 SWAP2 POP POP JUMP JUMPDEST PUSH32 0x596F752063616E27742074616B65206D6F7265207468616E2077686174206973 PUSH0 DUP3 ADD MSTORE PUSH32 0x206176616C6961626C6500000000000000000000000000000000000000000000 PUSH1 0x20 DUP3 ADD MSTORE POP JUMP JUMPDEST PUSH0 PUSH2 0x1113 PUSH1 0x2A DUP4 PUSH2 0xD5E JUMP JUMPDEST SWAP2 POP PUSH2 0x111E DUP3 PUSH2 0x10B9 JUMP JUMPDEST PUSH1 0x40 DUP3 ADD SWAP1 POP SWAP2 SWAP1 POP JUMP JUMPDEST PUSH0 PUSH1 0x20 DUP3 ADD SWAP1 POP DUP2 DUP2 SUB PUSH0 DUP4 ADD MSTORE PUSH2 0x1140 DUP2 PUSH2 0x1107 JUMP JUMPDEST SWAP1 POP SWAP2 SWAP1 POP JUMP JUMPDEST PUSH0 PUSH2 0x1151 DUP3 PUSH2 0xCE3 JUMP JUMPDEST SWAP2 POP PUSH2 0x115C DUP4 PUSH2 0xCE3 JUMP JUMPDEST SWAP3 POP DUP3 DUP3 MUL PUSH2 0x116A DUP2 PUSH2 0xCE3 JUMP JUMPDEST SWAP2 POP DUP3 DUP3 DIV DUP5 EQ DUP4 ISZERO OR PUSH2 0x1181 JUMPI PUSH2 0x1180 PUSH2 0x1026 JUMP JUMPDEST JUMPDEST POP SWAP3 SWAP2 POP POP JUMP JUMPDEST PUSH32 0x4E487B7100000000000000000000000000000000000000000000000000000000 PUSH0 MSTORE PUSH1 0x12 PUSH1 0x4 MSTORE PUSH1 0x24 PUSH0 REVERT JUMPDEST PUSH0 PUSH2 0x11BF DUP3 PUSH2 0xCE3 JUMP JUMPDEST SWAP2 POP PUSH2 0x11CA DUP4 PUSH2 0xCE3 JUMP JUMPDEST SWAP3 POP DUP3 PUSH2 0x11DA JUMPI PUSH2 0x11D9 PUSH2 0x1188 JUMP JUMPDEST JUMPDEST DUP3 DUP3 DIV SWAP1 POP SWAP3 SWAP2 POP POP JUMP INVALID LOG2 PUSH5 0x6970667358 0x22 SLT KECCAK256 0x26 0x29 0x24 POP BLOBHASH LOG3 0x2C ADDMOD DUP12 DUP2 BYTE SWAP5 0xCC GT DELEGATECALL CALL DUP1 ADDMOD 0xA8 0x24 PUSH10 0x1C5ED8C0B95F6F80204 PUSH2 0x6473 PUSH16 0x6C634300081B00330000000000000000 "
				},
				"gasEstimates": {
					"creation": {
						"codeDepositCost": "927000",
						"executionCost": "infinite",
						"totalCost": "infinite"
					},
					"external": {
						"allowance(address,address)": "infinite",
						"approve(address,uint256)": "infinite",
						"balanceOf(address)": "2896",
						"decimal()": "338",
						"getSymbol()": "infinite",
						"getTokenName()": "infinite",
						"getTotalSupply()": "2498",
						"transfer(address,uint256)": "infinite",
						"transferFrom(address,address,uint256)": "infinite"
					},
					"internal": {
						"burn(address,uint256)": "infinite",
						"calculateFivePercent(uint256)": "infinite",
						"mint(uint256,address)": "infinite"
					}
				},
				"methodIdentifiers": {
					"allowance(address,address)": "dd62ed3e",
					"approve(address,uint256)": "095ea7b3",
					"balanceOf(address)": "70a08231",
					"decimal()": "76809ce3",
					"getSymbol()": "15070401",
					"getTokenName()": "862b092b",
					"getTotalSupply()": "c4e41b22",
					"transfer(address,uint256)": "a9059cbb",
					"transferFrom(address,address,uint256)": "23b872dd"
				}
			},
			"storageLayout": {
				"storage": [
					{
						"astId": 144,
						"contract": "contract/DltToken.sol:DltToken",
						"label": "tokenName",
						"offset": 0,
						"slot": "0",
						"type": "t_string_storage"
					},
					{
						"astId": 146,
						"contract": "contract/DltToken.sol:DltToken",
						"label": "tokenSymbol",
						"offset": 0,
						"slot": "1",
						"type": "t_string_storage"
					},
					{
						"astId": 148,
						"contract": "contract/DltToken.sol:DltToken",
						"label": "totalSupply",
						"offset": 0,
						"slot": "2",
						"type": "t_uint256"
					},
					{
						"astId": 150,
						"contract": "contract/DltToken.sol:DltToken",
						"label": "owner",
						"offset": 0,
						"slot": "3",
						"type": "t_address"
					},
					{
						"astId": 154,
						"contract": "contract/DltToken.sol:DltToken",
						"label": "balances",
						"offset": 0,
						"slot": "4",
						"type": "t_mapping(t_address,t_uint256)"
					},
					{
						"astId": 160,
						"contract": "contract/DltToken.sol:DltToken",
						"label": "allow",
						"offset": 0,
						"slot": "5",
						"type": "t_mapping(t_address,t_mapping(t_address,t_uint256))"
					}
				],
				"types": {
					"t_address": {
						"encoding": "inplace",
						"label": "address",
						"numberOfBytes": "20"
					},
					"t_mapping(t_address,t_mapping(t_address,t_uint256))": {
						"encoding": "mapping",
						"key": "t_address",
						"label": "mapping(address => mapping(address => uint256))",
						"numberOfBytes": "32",
						"value": "t_mapping(t_address,t_uint256)"
					},
					"t_mapping(t_address,t_uint256)": {
						"encoding": "mapping",
						"key": "t_address",
						"label": "mapping(address => uint256)",
						"numberOfBytes": "32",
						"value": "t_uint256"
					},
					"t_string_storage": {
						"encoding": "bytes",
						"label": "string",
						"numberOfBytes": "32"
					},
					"t_uint256": {
						"encoding": "inplace",
						"label": "uint256",
						"numberOfBytes": "32"
					}
				}
			},
			"userdoc": {
				"kind": "user",
				"methods": {},
				"version": 1
			}
		}
	}
}